{
  "contractName": "RealEstatePropertyFactory",
  "abi": [
    {
      "inputs": [
        {
          "internalType": "uint256",
          "name": "",
          "type": "uint256"
        }
      ],
      "name": "numOfAddress",
      "outputs": [
        {
          "internalType": "address",
          "name": "",
          "type": "address"
        }
      ],
      "stateMutability": "view",
      "type": "function",
      "constant": true
    },
    {
      "inputs": [
        {
          "internalType": "address",
          "name": "",
          "type": "address"
        }
      ],
      "name": "properties",
      "outputs": [
        {
          "internalType": "address payable",
          "name": "owner",
          "type": "address"
        },
        {
          "internalType": "uint256",
          "name": "numOfProperties",
          "type": "uint256"
        }
      ],
      "stateMutability": "view",
      "type": "function",
      "constant": true
    },
    {
      "inputs": [
        {
          "internalType": "address",
          "name": "",
          "type": "address"
        }
      ],
      "name": "tenant",
      "outputs": [
        {
          "internalType": "uint256",
          "name": "id",
          "type": "uint256"
        },
        {
          "internalType": "string",
          "name": "title",
          "type": "string"
        },
        {
          "internalType": "string",
          "name": "description",
          "type": "string"
        },
        {
          "internalType": "uint256",
          "name": "montlyPrice",
          "type": "uint256"
        },
        {
          "internalType": "uint256",
          "name": "depositAmount",
          "type": "uint256"
        },
        {
          "internalType": "uint256",
          "name": "depositPrice",
          "type": "uint256"
        },
        {
          "internalType": "address",
          "name": "owner",
          "type": "address"
        },
        {
          "internalType": "address payable",
          "name": "tenant",
          "type": "address"
        },
        {
          "internalType": "bool",
          "name": "available",
          "type": "bool"
        }
      ],
      "stateMutability": "view",
      "type": "function",
      "constant": true
    },
    {
      "inputs": [],
      "name": "getProperties",
      "outputs": [
        {
          "components": [
            {
              "internalType": "address payable",
              "name": "owner",
              "type": "address"
            },
            {
              "internalType": "uint256",
              "name": "numOfProperties",
              "type": "uint256"
            },
            {
              "components": [
                {
                  "internalType": "uint256",
                  "name": "id",
                  "type": "uint256"
                },
                {
                  "internalType": "string",
                  "name": "title",
                  "type": "string"
                },
                {
                  "internalType": "string",
                  "name": "description",
                  "type": "string"
                },
                {
                  "internalType": "uint256",
                  "name": "montlyPrice",
                  "type": "uint256"
                },
                {
                  "internalType": "uint256",
                  "name": "depositAmount",
                  "type": "uint256"
                },
                {
                  "internalType": "uint256",
                  "name": "depositPrice",
                  "type": "uint256"
                },
                {
                  "internalType": "address",
                  "name": "owner",
                  "type": "address"
                },
                {
                  "internalType": "address payable",
                  "name": "tenant",
                  "type": "address"
                },
                {
                  "internalType": "bool",
                  "name": "available",
                  "type": "bool"
                }
              ],
              "internalType": "struct RealEstatePropertyFactory.Property[]",
              "name": "properties",
              "type": "tuple[]"
            }
          ],
          "internalType": "struct RealEstatePropertyFactory.RealEstateProperty[]",
          "name": "",
          "type": "tuple[]"
        }
      ],
      "stateMutability": "view",
      "type": "function",
      "constant": true
    },
    {
      "inputs": [
        {
          "internalType": "address",
          "name": "propertyOwner",
          "type": "address"
        },
        {
          "internalType": "uint256",
          "name": "propertyId",
          "type": "uint256"
        }
      ],
      "name": "rentProperty",
      "outputs": [],
      "stateMutability": "payable",
      "type": "function",
      "payable": true
    },
    {
      "inputs": [
        {
          "internalType": "address",
          "name": "_address",
          "type": "address"
        }
      ],
      "name": "getPropertyByTenant",
      "outputs": [
        {
          "internalType": "string",
          "name": "",
          "type": "string"
        },
        {
          "internalType": "string",
          "name": "",
          "type": "string"
        },
        {
          "internalType": "uint256",
          "name": "",
          "type": "uint256"
        },
        {
          "internalType": "address",
          "name": "",
          "type": "address"
        },
        {
          "internalType": "address",
          "name": "",
          "type": "address"
        },
        {
          "internalType": "bool",
          "name": "",
          "type": "bool"
        }
      ],
      "stateMutability": "view",
      "type": "function",
      "constant": true
    },
    {
      "inputs": [
        {
          "internalType": "address",
          "name": "_address",
          "type": "address"
        }
      ],
      "name": "getBalanceOf",
      "outputs": [
        {
          "internalType": "uint256",
          "name": "",
          "type": "uint256"
        }
      ],
      "stateMutability": "view",
      "type": "function",
      "constant": true
    },
    {
      "inputs": [
        {
          "internalType": "string",
          "name": "_title",
          "type": "string"
        },
        {
          "internalType": "string",
          "name": "_description",
          "type": "string"
        },
        {
          "internalType": "uint256",
          "name": "_amount",
          "type": "uint256"
        },
        {
          "internalType": "uint256",
          "name": "_deposit",
          "type": "uint256"
        }
      ],
      "name": "createProperty",
      "outputs": [],
      "stateMutability": "nonpayable",
      "type": "function"
    },
    {
      "inputs": [],
      "name": "createRealEstateProperty",
      "outputs": [],
      "stateMutability": "nonpayable",
      "type": "function"
    }
  ],
  "bytecode": "0x608060405234801561001057600080fd5b50612471806100206000396000f3fe6080604052600436106100865760003560e01c80633df2fc04116100595780633df2fc0414610171578063751eaa0a146101885780639b96eece146101a4578063ec0cfd0b146101e1578063f9015a7d1461020c57610086565b80631a974aa91461008b5780631d26538f146100cd5780631e6efb3b146100f657806325ec77d714610133575b600080fd5b34801561009757600080fd5b506100b260048036038101906100ad919061181f565b610251565b6040516100c496959493929190611928565b60405180910390f35b3480156100d957600080fd5b506100f460048036038101906100ef9190611af8565b6105b7565b005b34801561010257600080fd5b5061011d60048036038101906101189190611b97565b610830565b60405161012a9190611bc4565b60405180910390f35b34801561013f57600080fd5b5061015a6004803603810190610155919061181f565b61086f565b604051610168929190611c00565b60405180910390f35b34801561017d57600080fd5b506101866108b3565b005b6101a2600480360381019061019d9190611c29565b610a07565b005b3480156101b057600080fd5b506101cb60048036038101906101c6919061181f565b610eb9565b6040516101d89190611c69565b60405180910390f35b3480156101ed57600080fd5b506101f6610eda565b6040516102039190611faa565b60405180910390f35b34801561021857600080fd5b50610233600480360381019061022e919061181f565b6112e3565b60405161024899989796959493929190611fcc565b60405180910390f35b60608060008060008061026e87600161148e90919063ffffffff16565b6102ad576040517f08c379a00000000000000000000000000000000000000000000000000000000081526004016102a4906120b3565b60405180910390fd5b600360008873ffffffffffffffffffffffffffffffffffffffff1673ffffffffffffffffffffffffffffffffffffffff168152602001908152602001600020600101600360008973ffffffffffffffffffffffffffffffffffffffff1673ffffffffffffffffffffffffffffffffffffffff168152602001908152602001600020600201600360008a73ffffffffffffffffffffffffffffffffffffffff1673ffffffffffffffffffffffffffffffffffffffff16815260200190815260200160002060050154600360008b73ffffffffffffffffffffffffffffffffffffffff1673ffffffffffffffffffffffffffffffffffffffff16815260200190815260200160002060070160009054906101000a900473ffffffffffffffffffffffffffffffffffffffff16600360008c73ffffffffffffffffffffffffffffffffffffffff1673ffffffffffffffffffffffffffffffffffffffff16815260200190815260200160002060060160009054906101000a900473ffffffffffffffffffffffffffffffffffffffff16600360008d73ffffffffffffffffffffffffffffffffffffffff1673ffffffffffffffffffffffffffffffffffffffff16815260200190815260200160002060070160149054906101000a900460ff1685805461049690612102565b80601f01602080910402602001604051908101604052809291908181526020018280546104c290612102565b801561050f5780601f106104e45761010080835404028352916020019161050f565b820191906000526020600020905b8154815290600101906020018083116104f257829003601f168201915b5050505050955084805461052290612102565b80601f016020809104026020016040519081016040528092919081815260200182805461054e90612102565b801561059b5780601f106105705761010080835404028352916020019161059b565b820191906000526020600020905b81548152906001019060200180831161057e57829003601f168201915b5050505050945095509550955095509550955091939550919395565b6105cb33600061148e90919063ffffffff16565b61060a576040517f08c379a000000000000000000000000000000000000000000000000000000000815260040161060190612180565b60405180910390fd5b6106126115cc565b6000600260003373ffffffffffffffffffffffffffffffffffffffff1673ffffffffffffffffffffffffffffffffffffffff168152602001908152602001600020905085826020018190525084826040018190525083826060018181525050828260a0018181525050600182610100019015159081151581525050338260c0019073ffffffffffffffffffffffffffffffffffffffff16908173ffffffffffffffffffffffffffffffffffffffff16815250508060010160008154809291906106da906121cf565b919050558260000181815250508060020182908060018154018082558091505060019003906000526020600020906008020160009091909190915060008201518160000155602082015181600101908051906020019061073b929190611646565b506040820151816002019080519060200190610758929190611646565b50606082015181600301556080820151816004015560a0820151816005015560c08201518160060160006101000a81548173ffffffffffffffffffffffffffffffffffffffff021916908373ffffffffffffffffffffffffffffffffffffffff16021790555060e08201518160070160006101000a81548173ffffffffffffffffffffffffffffffffffffffff021916908373ffffffffffffffffffffffffffffffffffffffff1602179055506101008201518160070160146101000a81548160ff0219169083151502179055505050505050505050565b6004818154811061084057600080fd5b906000526020600020016000915054906101000a900473ffffffffffffffffffffffffffffffffffffffff1681565b60026020528060005260406000206000915090508060000160009054906101000a900473ffffffffffffffffffffffffffffffffffffffff16908060010154905082565b6108c733600061148e90919063ffffffff16565b15610907576040517f08c379a00000000000000000000000000000000000000000000000000000000081526004016108fe90612264565b60405180910390fd5b6000600260003373ffffffffffffffffffffffffffffffffffffffff1673ffffffffffffffffffffffffffffffffffffffff1681526020019081526020016000209050338160000160006101000a81548173ffffffffffffffffffffffffffffffffffffffff021916908373ffffffffffffffffffffffffffffffffffffffff1602179055506004339080600181540180825580915050600190039060005260206000200160009091909190916101000a81548173ffffffffffffffffffffffffffffffffffffffff021916908373ffffffffffffffffffffffffffffffffffffffff160217905550610a0433600061152090919063ffffffff16565b50565b6000600260008473ffffffffffffffffffffffffffffffffffffffff1673ffffffffffffffffffffffffffffffffffffffff16815260200190815260200160002090506000816002018381548110610a6257610a61612284565b5b90600052602060002090600802016003015490506000826002018481548110610a8e57610a8d612284565b5b9060005260206000209060080201600501549050600034905060008382610ab591906122b3565b905060008183610ac591906122b3565b905060008486610ad591906122e7565b9050348114610b19576040517f08c379a0000000000000000000000000000000000000000000000000000000008152600401610b1090612389565b60405180910390fd5b60011515876002018981548110610b3357610b32612284565b5b906000526020600020906008020160070160149054906101000a900460ff16151514610b94576040517f08c379a0000000000000000000000000000000000000000000000000000000008152600401610b8b9061241b565b60405180910390fd5b33876002018981548110610bab57610baa612284565b5b906000526020600020906008020160070160006101000a81548173ffffffffffffffffffffffffffffffffffffffff021916908373ffffffffffffffffffffffffffffffffffffffff1602179055506000876002018981548110610c1257610c11612284565b5b906000526020600020906008020160070160146101000a81548160ff02191690831515021790555082876002018981548110610c5157610c50612284565b5b906000526020600020906008020160040181905550866002018881548110610c7c57610c7b612284565b5b9060005260206000209060080201600360003373ffffffffffffffffffffffffffffffffffffffff1673ffffffffffffffffffffffffffffffffffffffff168152602001908152602001600020600082015481600001556001820181600101908054610ce790612102565b610cf29291906116cc565b506002820181600201908054610d0790612102565b610d129291906116cc565b506003820154816003015560048201548160040155600582015481600501556006820160009054906101000a900473ffffffffffffffffffffffffffffffffffffffff168160060160006101000a81548173ffffffffffffffffffffffffffffffffffffffff021916908373ffffffffffffffffffffffffffffffffffffffff1602179055506007820160009054906101000a900473ffffffffffffffffffffffffffffffffffffffff168160070160006101000a81548173ffffffffffffffffffffffffffffffffffffffff021916908373ffffffffffffffffffffffffffffffffffffffff1602179055506007820160149054906101000a900460ff168160070160146101000a81548160ff0219169083151502179055509050508660000160009054906101000a900473ffffffffffffffffffffffffffffffffffffffff1673ffffffffffffffffffffffffffffffffffffffff166108fc839081150290604051600060405180830381858888f19350505050158015610e99573d6000803e3d6000fd5b50610eae33600161152090919063ffffffff16565b505050505050505050565b60008173ffffffffffffffffffffffffffffffffffffffff16319050919050565b606060006004805490509050600060048054905067ffffffffffffffff811115610f0757610f066119a1565b5b604051908082528060200260200182016040528015610f4057816020015b610f2d611759565b815260200190600190039081610f255790505b50905060005b828110156112da576002600060048381548110610f6657610f65612284565b5b9060005260206000200160009054906101000a900473ffffffffffffffffffffffffffffffffffffffff1673ffffffffffffffffffffffffffffffffffffffff1673ffffffffffffffffffffffffffffffffffffffff1681526020019081526020016000206040518060600160405290816000820160009054906101000a900473ffffffffffffffffffffffffffffffffffffffff1673ffffffffffffffffffffffffffffffffffffffff1673ffffffffffffffffffffffffffffffffffffffff1681526020016001820154815260200160028201805480602002602001604051908101604052809291908181526020016000905b828210156112a15783829060005260206000209060080201604051806101200160405290816000820154815260200160018201805461109990612102565b80601f01602080910402602001604051908101604052809291908181526020018280546110c590612102565b80156111125780601f106110e757610100808354040283529160200191611112565b820191906000526020600020905b8154815290600101906020018083116110f557829003601f168201915b5050505050815260200160028201805461112b90612102565b80601f016020809104026020016040519081016040528092919081815260200182805461115790612102565b80156111a45780601f10611179576101008083540402835291602001916111a4565b820191906000526020600020905b81548152906001019060200180831161118757829003601f168201915b505050505081526020016003820154815260200160048201548152602001600582015481526020016006820160009054906101000a900473ffffffffffffffffffffffffffffffffffffffff1673ffffffffffffffffffffffffffffffffffffffff1673ffffffffffffffffffffffffffffffffffffffff1681526020016007820160009054906101000a900473ffffffffffffffffffffffffffffffffffffffff1673ffffffffffffffffffffffffffffffffffffffff1673ffffffffffffffffffffffffffffffffffffffff1681526020016007820160149054906101000a900460ff1615151515815250508152602001906001019061105b565b50505050815250508282815181106112bc576112bb612284565b5b602002602001018190525080806112d2906121cf565b915050610f46565b50809250505090565b600360205280600052604060002060009150905080600001549080600101805461130c90612102565b80601f016020809104026020016040519081016040528092919081815260200182805461133890612102565b80156113855780601f1061135a57610100808354040283529160200191611385565b820191906000526020600020905b81548152906001019060200180831161136857829003601f168201915b50505050509080600201805461139a90612102565b80601f01602080910402602001604051908101604052809291908181526020018280546113c690612102565b80156114135780601f106113e857610100808354040283529160200191611413565b820191906000526020600020905b8154815290600101906020018083116113f657829003601f168201915b5050505050908060030154908060040154908060050154908060060160009054906101000a900473ffffffffffffffffffffffffffffffffffffffff16908060070160009054906101000a900473ffffffffffffffffffffffffffffffffffffffff16908060070160149054906101000a900460ff16905089565b60008073ffffffffffffffffffffffffffffffffffffffff168273ffffffffffffffffffffffffffffffffffffffff1614156114c957600080fd5b8260000160008373ffffffffffffffffffffffffffffffffffffffff1673ffffffffffffffffffffffffffffffffffffffff16815260200190815260200160002060009054906101000a900460ff16905092915050565b600073ffffffffffffffffffffffffffffffffffffffff168173ffffffffffffffffffffffffffffffffffffffff16141561155a57600080fd5b611564828261148e565b1561156e57600080fd5b60018260000160008373ffffffffffffffffffffffffffffffffffffffff1673ffffffffffffffffffffffffffffffffffffffff16815260200190815260200160002060006101000a81548160ff0219169083151502179055505050565b604051806101200160405280600081526020016060815260200160608152602001600081526020016000815260200160008152602001600073ffffffffffffffffffffffffffffffffffffffff168152602001600073ffffffffffffffffffffffffffffffffffffffff1681526020016000151581525090565b82805461165290612102565b90600052602060002090601f01602090048101928261167457600085556116bb565b82601f1061168d57805160ff19168380011785556116bb565b828001600101855582156116bb579182015b828111156116ba57825182559160200191906001019061169f565b5b5090506116c89190611790565b5090565b8280546116d890612102565b90600052602060002090601f0160209004810192826116fa5760008555611748565b82601f1061170b5780548555611748565b8280016001018555821561174857600052602060002091601f016020900482015b8281111561174757825482559160010191906001019061172c565b5b5090506117559190611790565b5090565b6040518060600160405280600073ffffffffffffffffffffffffffffffffffffffff16815260200160008152602001606081525090565b5b808211156117a9576000816000905550600101611791565b5090565b6000604051905090565b600080fd5b600080fd5b600073ffffffffffffffffffffffffffffffffffffffff82169050919050565b60006117ec826117c1565b9050919050565b6117fc816117e1565b811461180757600080fd5b50565b600081359050611819816117f3565b92915050565b600060208284031215611835576118346117b7565b5b60006118438482850161180a565b91505092915050565b600081519050919050565b600082825260208201905092915050565b60005b8381101561188657808201518184015260208101905061186b565b83811115611895576000848401525b50505050565b6000601f19601f8301169050919050565b60006118b78261184c565b6118c18185611857565b93506118d1818560208601611868565b6118da8161189b565b840191505092915050565b6000819050919050565b6118f8816118e5565b82525050565b611907816117e1565b82525050565b60008115159050919050565b6119228161190d565b82525050565b600060c082019050818103600083015261194281896118ac565b9050818103602083015261195681886118ac565b905061196560408301876118ef565b61197260608301866118fe565b61197f60808301856118fe565b61198c60a0830184611919565b979650505050505050565b600080fd5b600080fd5b7f4e487b7100000000000000000000000000000000000000000000000000000000600052604160045260246000fd5b6119d98261189b565b810181811067ffffffffffffffff821117156119f8576119f76119a1565b5b80604052505050565b6000611a0b6117ad565b9050611a1782826119d0565b919050565b600067ffffffffffffffff821115611a3757611a366119a1565b5b611a408261189b565b9050602081019050919050565b82818337600083830152505050565b6000611a6f611a6a84611a1c565b611a01565b905082815260208101848484011115611a8b57611a8a61199c565b5b611a96848285611a4d565b509392505050565b600082601f830112611ab357611ab2611997565b5b8135611ac3848260208601611a5c565b91505092915050565b611ad5816118e5565b8114611ae057600080fd5b50565b600081359050611af281611acc565b92915050565b60008060008060808587031215611b1257611b116117b7565b5b600085013567ffffffffffffffff811115611b3057611b2f6117bc565b5b611b3c87828801611a9e565b945050602085013567ffffffffffffffff811115611b5d57611b5c6117bc565b5b611b6987828801611a9e565b9350506040611b7a87828801611ae3565b9250506060611b8b87828801611ae3565b91505092959194509250565b600060208284031215611bad57611bac6117b7565b5b6000611bbb84828501611ae3565b91505092915050565b6000602082019050611bd960008301846118fe565b92915050565b6000611bea826117c1565b9050919050565b611bfa81611bdf565b82525050565b6000604082019050611c156000830185611bf1565b611c2260208301846118ef565b9392505050565b60008060408385031215611c4057611c3f6117b7565b5b6000611c4e8582860161180a565b9250506020611c5f85828601611ae3565b9150509250929050565b6000602082019050611c7e60008301846118ef565b92915050565b600081519050919050565b600082825260208201905092915050565b6000819050602082019050919050565b611cb981611bdf565b82525050565b611cc8816118e5565b82525050565b600081519050919050565b600082825260208201905092915050565b6000819050602082019050919050565b600082825260208201905092915050565b6000611d168261184c565b611d208185611cfa565b9350611d30818560208601611868565b611d398161189b565b840191505092915050565b611d4d816117e1565b82525050565b611d5c8161190d565b82525050565b600061012083016000830151611d7b6000860182611cbf565b5060208301518482036020860152611d938282611d0b565b91505060408301518482036040860152611dad8282611d0b565b9150506060830151611dc26060860182611cbf565b506080830151611dd56080860182611cbf565b5060a0830151611de860a0860182611cbf565b5060c0830151611dfb60c0860182611d44565b5060e0830151611e0e60e0860182611cb0565b50610100830151611e23610100860182611d53565b508091505092915050565b6000611e3a8383611d62565b905092915050565b6000602082019050919050565b6000611e5a82611cce565b611e648185611cd9565b935083602082028501611e7685611cea565b8060005b85811015611eb25784840389528151611e938582611e2e565b9450611e9e83611e42565b925060208a01995050600181019050611e7a565b50829750879550505050505092915050565b6000606083016000830151611edc6000860182611cb0565b506020830151611eef6020860182611cbf565b5060408301518482036040860152611f078282611e4f565b9150508091505092915050565b6000611f208383611ec4565b905092915050565b6000602082019050919050565b6000611f4082611c84565b611f4a8185611c8f565b935083602082028501611f5c85611ca0565b8060005b85811015611f985784840389528151611f798582611f14565b9450611f8483611f28565b925060208a01995050600181019050611f60565b50829750879550505050505092915050565b60006020820190508181036000830152611fc48184611f35565b905092915050565b600061012082019050611fe2600083018c6118ef565b8181036020830152611ff4818b6118ac565b90508181036040830152612008818a6118ac565b905061201760608301896118ef565b61202460808301886118ef565b61203160a08301876118ef565b61203e60c08301866118fe565b61204b60e0830185611bf1565b612059610100830184611919565b9a9950505050505050505050565b7f4e6f74206861732070726f70657274792072656e746564000000000000000000600082015250565b600061209d601783611857565b91506120a882612067565b602082019050919050565b600060208201905081810360008301526120cc81612090565b9050919050565b7f4e487b7100000000000000000000000000000000000000000000000000000000600052602260045260246000fd5b6000600282049050600182168061211a57607f821691505b6020821081141561212e5761212d6120d3565b5b50919050565b7f4e6f742070726f70657274796f776e6572000000000000000000000000000000600082015250565b600061216a601183611857565b915061217582612134565b602082019050919050565b600060208201905081810360008301526121998161215d565b9050919050565b7f4e487b7100000000000000000000000000000000000000000000000000000000600052601160045260246000fd5b60006121da826118e5565b91507fffffffffffffffffffffffffffffffffffffffffffffffffffffffffffffffff82141561220d5761220c6121a0565b5b600182019050919050565b7f6861732070726f70657274790000000000000000000000000000000000000000600082015250565b600061224e600c83611857565b915061225982612218565b602082019050919050565b6000602082019050818103600083015261227d81612241565b9050919050565b7f4e487b7100000000000000000000000000000000000000000000000000000000600052603260045260246000fd5b60006122be826118e5565b91506122c9836118e5565b9250828210156122dc576122db6121a0565b5b828203905092915050565b60006122f2826118e5565b91506122fd836118e5565b9250827fffffffffffffffffffffffffffffffffffffffffffffffffffffffffffffffff03821115612332576123316121a0565b5b828201905092915050565b7f596f7520646f6e2774206861766520656e6f7567682065746865720000000000600082015250565b6000612373601b83611857565b915061237e8261233d565b602082019050919050565b600060208201905081810360008301526123a281612366565b9050919050565b7f546869732070726f7065727479206973206e6f7420617661696c61626c65206660008201527f6f722072656e7400000000000000000000000000000000000000000000000000602082015250565b6000612405602783611857565b9150612410826123a9565b604082019050919050565b60006020820190508181036000830152612434816123f8565b905091905056fea2646970667358221220648b48c7522a01f8377a04531f98a07c2bd9ed06a77094ceb9ebdaefa1e1cf3e64736f6c63430008090033",
  "immutableReferences": {},
  "source": "// SPDX-License-Identifier: MIT\n\npragma solidity >=0.4.22 <0.9.0;\n\nlibrary Roles {\n  struct Role {\n    mapping (address => bool) bearer;\n  }\n\n  /**\n   * @dev give an account access to this role\n   */\n  function add(Role storage role, address account) internal {\n    require(account != address(0));\n    require(!has(role, account));\n    role.bearer[account] = true;\n  }\n\n  /**\n   * @dev remove an account's access to this role\n   */\n  function remove(Role storage role, address account) internal {\n    require(account != address(0));\n    require(has(role, account));\n\n    role.bearer[account] = false;\n  }\n\n  /**\n   * @dev check if an account has this role\n   * @return bool\n   */\n  function has(Role storage role, address account)\n    internal\n    view\n    returns (bool)\n  {\n    require(account != address(0));\n    return role.bearer[account];\n  }\n}\n\ncontract RealEstatePropertyFactory {\n    using Roles for Roles.Role;\n\n    // state variables\n    Roles.Role private _propertyOwners;\n    Roles.Role private _tenant;\n    \n    modifier isPropertyOwner() {\n        require(_propertyOwners.has(msg.sender), \"Not propertyowner\");\n        _;\n    }\n    \n    modifier hasProperty() {\n        require(!_propertyOwners.has(msg.sender), \"has property\");\n        _;\n    }\n    \n    modifier onlyTenant() {\n        require(_tenant.has(msg.sender), \"Not owner\");\n        _;\n    }\n    \n    modifier isTenant() {\n        require(_tenant.has(msg.sender) == false, \"Already has a Property\");\n        _;\n    }\n    \n    mapping(address => RealEstateProperty) public properties;\n    mapping(address => Property) public tenant;\n    address[] public numOfAddress;\n\n    struct RealEstateProperty {\n        address payable owner;\n        uint256 numOfProperties;\n        Property[] properties;\n    }\n\n    struct Property {\n        uint id;\n        string title;\n        string description;\n        uint256 montlyPrice;\n        uint256 depositAmount;\n        uint256 depositPrice;\n        address owner;\n        address payable tenant;\n        bool available;\n    }\n    \n     /**\n     * @dev get all properties for rental\n    */\n    function getProperties() public view returns (RealEstateProperty[] memory) {\n        uint256 numLength = numOfAddress.length;\n        RealEstateProperty[] memory memoryArray = new RealEstateProperty[](\n            numOfAddress.length\n        );\n        for (uint256 i = 0; i < numLength; i++) {\n            memoryArray[i] = properties[numOfAddress[i]];\n        }\n        return memoryArray;\n    }\n\n     /**\n     * @dev rental a property\n    */\n    function rentProperty(address propertyOwner, uint propertyId) public payable  {\n        RealEstateProperty storage property = properties[propertyOwner];\n        uint montlyPrice = property.properties[propertyId].montlyPrice;\n        uint depositPrice = property.properties[propertyId].depositPrice;\n        uint sum = msg.value;\n        uint deposit = sum - montlyPrice;\n        uint toPay = sum - deposit;\n        uint toCheck = montlyPrice + depositPrice;\n        require(toCheck == msg.value, \"You don't have enough ether\");\n        require(property.properties[propertyId].available == true, \"This property is not available for rent\");\n        property.properties[propertyId].tenant = payable(msg.sender); \n        property.properties[propertyId].available = false;\n        property.properties[propertyId].depositAmount = deposit;\n        tenant[msg.sender] = property.properties[propertyId];\n        property.owner.transfer(toPay);\n        _tenant.add(msg.sender);\n    }\n    \n    /**\n     * @dev get single property by address\n    */\n    function getPropertyByTenant(address _address)\n        public\n        view\n        returns (\n            string memory,\n            string memory,\n            uint256,\n            address,\n            address,\n            bool\n            \n        )\n    {\n        require(_tenant.has(_address), \"Not has property rented\");\n        return (\n            tenant[_address].title,\n            tenant[_address].description,\n            tenant[_address].depositPrice,\n            tenant[_address].tenant,\n            tenant[_address].owner,\n            tenant[_address].available\n            \n        );\n    }\n    \n    function getBalanceOf(address _address) public view returns(uint)  {\n      return _address.balance;        \n    }\n \n\n    // Create a property - only property owners\n    function createProperty(\n        string memory _title,\n        string memory _description,\n        uint256 _amount,\n        uint256 _deposit\n    ) public isPropertyOwner {\n        Property memory property;\n        RealEstateProperty storage p = properties[msg.sender];\n        property.title = _title;\n        property.description = _description;\n        property.montlyPrice = _amount;\n        property.depositPrice = _deposit;\n        property.available = true;\n        property.owner = msg.sender;\n        property.id = p.numOfProperties++;\n        p.properties.push(property);\n    }\n\n    // Owners create a real state property\n    function createRealEstateProperty() public hasProperty {\n        RealEstateProperty storage c = properties[msg.sender];\n        c.owner = payable(msg.sender);\n        numOfAddress.push(msg.sender);\n        _propertyOwners.add(msg.sender);\n    }\n}\n",
  "sourcePath": "/Users/vicklercharles/Desktop/smart-contracts/blockchain-developer-bootcamp-final-project/contracts/RealEstatePropertyFactory.sol",
  "compiler": {
    "name": "solc",
    "version": "0.8.9+commit.e5eed63a.Emscripten.clang"
  },
  "schemaVersion": "3.4.3",
  "updatedAt": "2021-11-16T15:46:45.600Z",
  "networkType": "ethereum",
  "devdoc": {
    "kind": "dev",
    "methods": {
      "getProperties()": {
        "details": "get all properties for rental"
      },
      "getPropertyByTenant(address)": {
        "details": "get single property by address"
      },
      "rentProperty(address,uint256)": {
        "details": "rental a property"
      }
    },
    "version": 1
  },
  "userdoc": {
    "kind": "user",
    "methods": {},
    "version": 1
  }
}