{
  "contractName": "RealEstatePropertyFactory",
  "abi": [
    {
      "constant": true,
      "inputs": [
        {
          "internalType": "address",
          "name": "",
          "type": "address"
        }
      ],
      "name": "properties",
      "outputs": [
        {
          "internalType": "contract RealEstateProperty",
          "name": "",
          "type": "address"
        }
      ],
      "payable": false,
      "stateMutability": "view",
      "type": "function"
    },
    {
      "constant": true,
      "inputs": [
        {
          "internalType": "address",
          "name": "_propertyOwner",
          "type": "address"
        }
      ],
      "name": "getRealEstateProperty",
      "outputs": [
        {
          "components": [
            {
              "internalType": "string",
              "name": "title",
              "type": "string"
            },
            {
              "internalType": "string",
              "name": "description",
              "type": "string"
            },
            {
              "internalType": "uint256",
              "name": "montlyPrice",
              "type": "uint256"
            },
            {
              "internalType": "uint256",
              "name": "deposit",
              "type": "uint256"
            },
            {
              "internalType": "address payable",
              "name": "currentTenant",
              "type": "address"
            }
          ],
          "internalType": "struct SharedStructs.Property[]",
          "name": "",
          "type": "tuple[]"
        }
      ],
      "payable": false,
      "stateMutability": "view",
      "type": "function"
    },
    {
      "constant": false,
      "inputs": [
        {
          "internalType": "string",
          "name": "_title",
          "type": "string"
        },
        {
          "internalType": "string",
          "name": "_description",
          "type": "string"
        },
        {
          "internalType": "uint256",
          "name": "_amount",
          "type": "uint256"
        },
        {
          "internalType": "uint256",
          "name": "_deposit",
          "type": "uint256"
        }
      ],
      "name": "createRealEstateProperty",
      "outputs": [],
      "payable": false,
      "stateMutability": "nonpayable",
      "type": "function"
    }
  ],
  "bytecode": "0x608060405234801561001057600080fd5b5061157b806100206000396000f3fe608060405234801561001057600080fd5b50600436106100415760003560e01c806308e7c2dc1461004657806325ec77d714610062578063c313c8f014610092575b600080fd5b610060600480360361005b91908101906105bf565b6100c2565b005b61007c60048036036100779190810190610555565b610203565b60405161008991906108b3565b60405180910390f35b6100ac60048036036100a79190810190610555565b610236565b6040516100b99190610891565b60405180910390f35b6000336040516100d190610320565b6100db9190610815565b604051809103906000f0801580156100f7573d6000803e3d6000fd5b509050806000803373ffffffffffffffffffffffffffffffffffffffff1673ffffffffffffffffffffffffffffffffffffffff16815260200190815260200160002060006101000a81548173ffffffffffffffffffffffffffffffffffffffff021916908373ffffffffffffffffffffffffffffffffffffffff1602179055506001600081548092919060010191905055508073ffffffffffffffffffffffffffffffffffffffff166323dd40da33878787876040518663ffffffff1660e01b81526004016101ca959493929190610830565b600060405180830381600087803b1580156101e457600080fd5b505af11580156101f8573d6000803e3d6000fd5b505050505050505050565b60006020528060005260406000206000915054906101000a900473ffffffffffffffffffffffffffffffffffffffff1681565b60606000808373ffffffffffffffffffffffffffffffffffffffff1673ffffffffffffffffffffffffffffffffffffffff16815260200190815260200160002060009054906101000a900473ffffffffffffffffffffffffffffffffffffffff1673ffffffffffffffffffffffffffffffffffffffff1663ec0cfd0b6040518163ffffffff1660e01b815260040160006040518083038186803b1580156102dc57600080fd5b505afa1580156102f0573d6000803e3d6000fd5b505050506040513d6000823e3d601f19601f82011682018060405250610319919081019061057e565b9050919050565b610a0c80610b2d83390190565b60008135905061033c81610ae7565b92915050565b60008151905061035181610afe565b92915050565b600082601f83011261036857600080fd5b815161037b610376826108fb565b6108ce565b9150818183526020840193506020810190508360005b838110156103c157815186016103a78882610473565b845260208401935060208301925050600181019050610391565b5050505092915050565b600082601f8301126103dc57600080fd5b81516103ef6103ea82610923565b6108ce565b9150808252602083016020830185838301111561040b57600080fd5b610416838284610aa3565b50505092915050565b600082601f83011261043057600080fd5b813561044361043e8261094f565b6108ce565b9150808252602083016020830185838301111561045f57600080fd5b61046a838284610a94565b50505092915050565b600060a0828403121561048557600080fd5b61048f60a06108ce565b9050600082015167ffffffffffffffff8111156104ab57600080fd5b6104b7848285016103cb565b600083015250602082015167ffffffffffffffff8111156104d757600080fd5b6104e3848285016103cb565b60208301525060406104f784828501610540565b604083015250606061050b84828501610540565b606083015250608061051f84828501610342565b60808301525092915050565b60008135905061053a81610b15565b92915050565b60008151905061054f81610b15565b92915050565b60006020828403121561056757600080fd5b60006105758482850161032d565b91505092915050565b60006020828403121561059057600080fd5b600082015167ffffffffffffffff8111156105aa57600080fd5b6105b684828501610357565b91505092915050565b600080600080608085870312156105d557600080fd5b600085013567ffffffffffffffff8111156105ef57600080fd5b6105fb8782880161041f565b945050602085013567ffffffffffffffff81111561061857600080fd5b6106248782880161041f565b93505060406106358782880161052b565b92505060606106468782880161052b565b91505092959194509250565b600061065e838361077a565b905092915050565b61066f81610a3a565b82525050565b61067e816109fe565b82525050565b600061068f8261098b565b61069981856109b9565b9350836020820285016106ab8561097b565b8060005b858110156106e757848403895281516106c88582610652565b94506106d3836109ac565b925060208a019950506001810190506106af565b50829750879550505050505092915050565b61070281610a4c565b82525050565b6000610713826109a1565b61071d81856109db565b935061072d818560208601610aa3565b61073681610ad6565b840191505092915050565b600061074c82610996565b61075681856109ca565b9350610766818560208601610aa3565b61076f81610ad6565b840191505092915050565b600060a08301600083015184820360008601526107978282610741565b915050602083015184820360208601526107b18282610741565b91505060408301516107c660408601826107f7565b5060608301516107d960608601826107f7565b5060808301516107ec6080860182610675565b508091505092915050565b61080081610a30565b82525050565b61080f81610a30565b82525050565b600060208201905061082a6000830184610666565b92915050565b600060a0820190506108456000830188610666565b81810360208301526108578187610708565b9050818103604083015261086b8186610708565b905061087a6060830185610806565b6108876080830184610806565b9695505050505050565b600060208201905081810360008301526108ab8184610684565b905092915050565b60006020820190506108c860008301846106f9565b92915050565b6000604051905081810181811067ffffffffffffffff821117156108f157600080fd5b8060405250919050565b600067ffffffffffffffff82111561091257600080fd5b602082029050602081019050919050565b600067ffffffffffffffff82111561093a57600080fd5b601f19601f8301169050602081019050919050565b600067ffffffffffffffff82111561096657600080fd5b601f19601f8301169050602081019050919050565b6000819050602082019050919050565b600081519050919050565b600081519050919050565b600081519050919050565b6000602082019050919050565b600082825260208201905092915050565b600082825260208201905092915050565b600082825260208201905092915050565b60006109f782610a10565b9050919050565b6000610a0982610a10565b9050919050565b600073ffffffffffffffffffffffffffffffffffffffff82169050919050565b6000819050919050565b6000610a4582610a70565b9050919050565b6000610a5782610a5e565b9050919050565b6000610a6982610a10565b9050919050565b6000610a7b82610a82565b9050919050565b6000610a8d82610a10565b9050919050565b82818337600083830152505050565b60005b83811015610ac1578082015181840152602081019050610aa6565b83811115610ad0576000848401525b50505050565b6000601f19601f8301169050919050565b610af0816109ec565b8114610afb57600080fd5b50565b610b07816109fe565b8114610b1257600080fd5b50565b610b1e81610a30565b8114610b2957600080fd5b5056fe608060405234801561001057600080fd5b50604051610a0c380380610a0c8339818101604052610032919081019061008d565b806000806101000a81548173ffffffffffffffffffffffffffffffffffffffff021916908373ffffffffffffffffffffffffffffffffffffffff160217905550506100ff565b600081519050610087816100e8565b92915050565b60006020828403121561009f57600080fd5b60006100ad84828501610078565b91505092915050565b60006100c1826100c8565b9050919050565b600073ffffffffffffffffffffffffffffffffffffffff82169050919050565b6100f1816100b6565b81146100fc57600080fd5b50565b6108fe8061010e6000396000f3fe608060405234801561001057600080fd5b50600436106100415760003560e01c806323dd40da146100465780638da5cb5b14610062578063ec0cfd0b14610080575b600080fd5b610060600480360361005b91908101906104ee565b61009e565b005b61006a610117565b6040516100779190610701565b60405180910390f35b61008861013c565b604051610095919061071c565b60405180910390f35b6000600160008154809291906001019190505590506000600260008381526020019081526020016000209050858160000190805190602001906100e2929190610386565b50848160010190805190602001906100fb929190610386565b5083816002018190555082816003018190555050505050505050565b6000809054906101000a900473ffffffffffffffffffffffffffffffffffffffff1681565b60608060015460405190808252806020026020018201604052801561017b57816020015b610168610406565b8152602001906001900390816101605790505b50905060008090505b60015481101561037e57600260008281526020019081526020016000206040518060a0016040529081600082018054600181600116156101000203166002900480601f0160208091040260200160405190810160405280929190818152602001828054600181600116156101000203166002900480156102455780601f1061021a57610100808354040283529160200191610245565b820191906000526020600020905b81548152906001019060200180831161022857829003601f168201915b50505050508152602001600182018054600181600116156101000203166002900480601f0160208091040260200160405190810160405280929190818152602001828054600181600116156101000203166002900480156102e75780601f106102bc576101008083540402835291602001916102e7565b820191906000526020600020905b8154815290600101906020018083116102ca57829003601f168201915b5050505050815260200160028201548152602001600382015481526020016004820160009054906101000a900473ffffffffffffffffffffffffffffffffffffffff1673ffffffffffffffffffffffffffffffffffffffff1673ffffffffffffffffffffffffffffffffffffffff168152505082828151811061036657fe5b60200260200101819052508080600101915050610184565b508091505090565b828054600181600116156101000203166002900490600052602060002090601f016020900481019282601f106103c757805160ff19168380011785556103f5565b828001600101855582156103f5579182015b828111156103f45782518255916020019190600101906103d9565b5b509050610402919061044b565b5090565b6040518060a0016040528060608152602001606081526020016000815260200160008152602001600073ffffffffffffffffffffffffffffffffffffffff1681525090565b61046d91905b80821115610469576000816000905550600101610451565b5090565b90565b60008135905061047f8161088d565b92915050565b600082601f83011261049657600080fd5b81356104a96104a48261076b565b61073e565b915080825260208301602083018583830111156104c557600080fd5b6104d083828461083a565b50505092915050565b6000813590506104e8816108a4565b92915050565b600080600080600060a0868803121561050657600080fd5b600061051488828901610470565b955050602086013567ffffffffffffffff81111561053157600080fd5b61053d88828901610485565b945050604086013567ffffffffffffffff81111561055a57600080fd5b61056688828901610485565b9350506060610577888289016104d9565b9250506080610588888289016104d9565b9150509295509295909350565b60006105a18383610675565b905092915050565b6105b2816107fe565b82525050565b6105c1816107ec565b82525050565b60006105d2826107a7565b6105dc81856107ca565b9350836020820285016105ee85610797565b8060005b8581101561062a578484038952815161060b8582610595565b9450610616836107bd565b925060208a019950506001810190506105f2565b50829750879550505050505092915050565b6000610647826107b2565b61065181856107db565b9350610661818560208601610849565b61066a8161087c565b840191505092915050565b600060a0830160008301518482036000860152610692828261063c565b915050602083015184820360208601526106ac828261063c565b91505060408301516106c160408601826106f2565b5060608301516106d460608601826106f2565b5060808301516106e760808601826105a9565b508091505092915050565b6106fb81610830565b82525050565b600060208201905061071660008301846105b8565b92915050565b6000602082019050818103600083015261073681846105c7565b905092915050565b6000604051905081810181811067ffffffffffffffff8211171561076157600080fd5b8060405250919050565b600067ffffffffffffffff82111561078257600080fd5b601f19601f8301169050602081019050919050565b6000819050602082019050919050565b600081519050919050565b600081519050919050565b6000602082019050919050565b600082825260208201905092915050565b600082825260208201905092915050565b60006107f782610810565b9050919050565b600061080982610810565b9050919050565b600073ffffffffffffffffffffffffffffffffffffffff82169050919050565b6000819050919050565b82818337600083830152505050565b60005b8381101561086757808201518184015260208101905061084c565b83811115610876576000848401525b50505050565b6000601f19601f8301169050919050565b610896816107ec565b81146108a157600080fd5b50565b6108ad81610830565b81146108b857600080fd5b5056fea365627a7a723158204aedd7197c7588d7150b76177e3fe800df1b20e26c81f1c61db21e1da308e33d6c6578706572696d656e74616cf564736f6c63430005100040a365627a7a7231582004b60dd3b1fb7f309c7b20295a43fe76e61bfaa92e149c377bbfe530a35f8ba26c6578706572696d656e74616cf564736f6c63430005100040",
  "source": "// SPDX-License-Identifier: MIT\npragma experimental ABIEncoderV2;\npragma solidity >=0.4.22 <0.9.0;\n\nlibrary SharedStructs {\n    struct Property {\n        string title;\n        string description;\n        uint256 montlyPrice;\n        uint256 deposit;\n        address payable currentTenant;\n    }\n}\n\ncontract RealEstateProperty {\n    address public owner;\n\n    uint256 numProperties;\n    mapping(uint256 => SharedStructs.Property) properties;\n\n    constructor(address _owner) public {\n        owner = _owner;\n    }\n\n    modifier onlyOwner(address _owner) {\n        require(owner == _owner, \"Not authorized.\");\n        _;\n    }\n\n    function getProperties()\n        public\n        view\n        returns (SharedStructs.Property[] memory)\n    {\n        SharedStructs.Property[]\n            memory memoryArray = new SharedStructs.Property[](numProperties);\n        for (uint256 i = 0; i < numProperties; i++) {\n            memoryArray[i] = properties[i];\n        }\n        return memoryArray;\n    }\n\n    function createProperty(\n        address _propertyOwner,\n        string memory _title,\n        string memory _description,\n        uint256 _montlyPrice,\n        uint256 _deposit\n    ) public {\n        uint256 propertyID = numProperties++;\n        SharedStructs.Property storage p = properties[propertyID];\n        p.title = _title;\n        p.description = _description;\n        p.montlyPrice = _montlyPrice;\n        p.deposit = _deposit;\n    }\n}\n\ncontract RealEstatePropertyFactory {\n    mapping(address => RealEstateProperty) public properties;\n    uint256 private numProperties;\n    struct Property {\n        string title;\n        string description;\n        uint256 montlyPrice;\n        uint256 deposit;\n        address payable currentTenant;\n    }\n\n    function getRealEstateProperty(address _propertyOwner)\n        public\n        view\n        returns (SharedStructs.Property[] memory)\n    {\n        return properties[_propertyOwner].getProperties();\n    }\n\n    // Owners create a real state property\n    function createRealEstateProperty(\n        string memory _title,\n        string memory _description,\n        uint256 _amount,\n        uint256 _deposit\n    ) public {\n        RealEstateProperty property = new RealEstateProperty(msg.sender);\n        properties[msg.sender] = property;\n        numProperties++;\n        property.createProperty(\n            msg.sender,\n            _title,\n            _description,\n            _amount,\n            _deposit\n        );\n    }\n}\n",
  "sourcePath": "/Users/vicklercharles/Desktop/smart-contracts/blockchain-developer-bootcamp-final-project/contracts/RealEstatePropertyFactory.sol",
  "compiler": {
    "name": "solc",
    "version": "0.5.16+commit.9c3226ce.Emscripten.clang"
  },
  "schemaVersion": "3.4.3",
  "updatedAt": "2021-11-07T19:32:00.696Z",
  "devdoc": {
    "methods": {}
  },
  "userdoc": {
    "methods": {}
  }
}