{
  "contractName": "RealEstatePropertyFactory",
  "abi": [
    {
      "inputs": [
        {
          "internalType": "uint256",
          "name": "",
          "type": "uint256"
        }
      ],
      "name": "numOfAddress",
      "outputs": [
        {
          "internalType": "address",
          "name": "",
          "type": "address"
        }
      ],
      "stateMutability": "view",
      "type": "function",
      "constant": true
    },
    {
      "inputs": [
        {
          "internalType": "address",
          "name": "",
          "type": "address"
        }
      ],
      "name": "properties",
      "outputs": [
        {
          "internalType": "address payable",
          "name": "owner",
          "type": "address"
        },
        {
          "internalType": "uint256",
          "name": "numOfProperties",
          "type": "uint256"
        }
      ],
      "stateMutability": "view",
      "type": "function",
      "constant": true
    },
    {
      "inputs": [
        {
          "internalType": "address",
          "name": "",
          "type": "address"
        }
      ],
      "name": "tenant",
      "outputs": [
        {
          "internalType": "uint256",
          "name": "id",
          "type": "uint256"
        },
        {
          "internalType": "string",
          "name": "title",
          "type": "string"
        },
        {
          "internalType": "string",
          "name": "description",
          "type": "string"
        },
        {
          "internalType": "uint256",
          "name": "montlyPrice",
          "type": "uint256"
        },
        {
          "internalType": "uint256",
          "name": "depositAmount",
          "type": "uint256"
        },
        {
          "internalType": "uint256",
          "name": "depositPrice",
          "type": "uint256"
        },
        {
          "internalType": "address",
          "name": "owner",
          "type": "address"
        },
        {
          "internalType": "address payable",
          "name": "tenant",
          "type": "address"
        },
        {
          "internalType": "bool",
          "name": "available",
          "type": "bool"
        }
      ],
      "stateMutability": "view",
      "type": "function",
      "constant": true
    },
    {
      "inputs": [],
      "name": "getProperties",
      "outputs": [
        {
          "components": [
            {
              "internalType": "address payable",
              "name": "owner",
              "type": "address"
            },
            {
              "internalType": "uint256",
              "name": "numOfProperties",
              "type": "uint256"
            },
            {
              "components": [
                {
                  "internalType": "uint256",
                  "name": "id",
                  "type": "uint256"
                },
                {
                  "internalType": "string",
                  "name": "title",
                  "type": "string"
                },
                {
                  "internalType": "string",
                  "name": "description",
                  "type": "string"
                },
                {
                  "internalType": "uint256",
                  "name": "montlyPrice",
                  "type": "uint256"
                },
                {
                  "internalType": "uint256",
                  "name": "depositAmount",
                  "type": "uint256"
                },
                {
                  "internalType": "uint256",
                  "name": "depositPrice",
                  "type": "uint256"
                },
                {
                  "internalType": "address",
                  "name": "owner",
                  "type": "address"
                },
                {
                  "internalType": "address payable",
                  "name": "tenant",
                  "type": "address"
                },
                {
                  "internalType": "bool",
                  "name": "available",
                  "type": "bool"
                }
              ],
              "internalType": "struct RealEstatePropertyFactory.Property[]",
              "name": "properties",
              "type": "tuple[]"
            }
          ],
          "internalType": "struct RealEstatePropertyFactory.RealEstateProperty[]",
          "name": "",
          "type": "tuple[]"
        }
      ],
      "stateMutability": "view",
      "type": "function",
      "constant": true
    },
    {
      "inputs": [
        {
          "internalType": "address",
          "name": "propertyOwner",
          "type": "address"
        },
        {
          "internalType": "uint256",
          "name": "propertyId",
          "type": "uint256"
        }
      ],
      "name": "rentProperty",
      "outputs": [],
      "stateMutability": "payable",
      "type": "function",
      "payable": true
    },
    {
      "inputs": [
        {
          "internalType": "address",
          "name": "_address",
          "type": "address"
        }
      ],
      "name": "getProperty",
      "outputs": [
        {
          "internalType": "string",
          "name": "",
          "type": "string"
        },
        {
          "internalType": "string",
          "name": "",
          "type": "string"
        },
        {
          "internalType": "uint256",
          "name": "",
          "type": "uint256"
        },
        {
          "internalType": "address",
          "name": "",
          "type": "address"
        },
        {
          "internalType": "address",
          "name": "",
          "type": "address"
        },
        {
          "internalType": "bool",
          "name": "",
          "type": "bool"
        }
      ],
      "stateMutability": "view",
      "type": "function",
      "constant": true
    },
    {
      "inputs": [
        {
          "internalType": "string",
          "name": "_title",
          "type": "string"
        },
        {
          "internalType": "string",
          "name": "_description",
          "type": "string"
        },
        {
          "internalType": "uint256",
          "name": "_amount",
          "type": "uint256"
        },
        {
          "internalType": "uint256",
          "name": "_deposit",
          "type": "uint256"
        }
      ],
      "name": "createProperty",
      "outputs": [],
      "stateMutability": "nonpayable",
      "type": "function"
    },
    {
      "inputs": [],
      "name": "createRealEstateProperty",
      "outputs": [],
      "stateMutability": "nonpayable",
      "type": "function"
    }
  ],
  "bytecode": "0x608060405234801561001057600080fd5b50612406806100206000396000f3fe60806040526004361061007b5760003560e01c8063751eaa0a1161004e578063751eaa0a1461013b578063952ba6d414610157578063ec0cfd0b14610199578063f9015a7d146101c45761007b565b80631d26538f146100805780631e6efb3b146100a957806325ec77d7146100e65780633df2fc0414610124575b600080fd5b34801561008c57600080fd5b506100a760048036038101906100a29190611959565b610209565b005b3480156100b557600080fd5b506100d060048036038101906100cb91906119f8565b610482565b6040516100dd9190611a66565b60405180910390f35b3480156100f257600080fd5b5061010d60048036038101906101089190611aad565b6104c1565b60405161011b929190611b0a565b60405180910390f35b34801561013057600080fd5b50610139610505565b005b61015560048036038101906101509190611b33565b610659565b005b34801561016357600080fd5b5061017e60048036038101906101799190611aad565b610b0b565b60405161019096959493929190611c16565b60405180910390f35b3480156101a557600080fd5b506101ae610ef6565b6040516101bb9190611fab565b60405180910390f35b3480156101d057600080fd5b506101eb60048036038101906101e69190611aad565b6112ff565b60405161020099989796959493929190611fcd565b60405180910390f35b61021d3360006114aa90919063ffffffff16565b61025c576040517f08c379a0000000000000000000000000000000000000000000000000000000008152600401610253906120b4565b60405180910390fd5b6102646115e8565b6000600260003373ffffffffffffffffffffffffffffffffffffffff1673ffffffffffffffffffffffffffffffffffffffff168152602001908152602001600020905085826020018190525084826040018190525083826060018181525050828260a0018181525050600182610100019015159081151581525050338260c0019073ffffffffffffffffffffffffffffffffffffffff16908173ffffffffffffffffffffffffffffffffffffffff168152505080600101600081548092919061032c90612103565b919050558260000181815250508060020182908060018154018082558091505060019003906000526020600020906008020160009091909190915060008201518160000155602082015181600101908051906020019061038d929190611662565b5060408201518160020190805190602001906103aa929190611662565b50606082015181600301556080820151816004015560a0820151816005015560c08201518160060160006101000a81548173ffffffffffffffffffffffffffffffffffffffff021916908373ffffffffffffffffffffffffffffffffffffffff16021790555060e08201518160070160006101000a81548173ffffffffffffffffffffffffffffffffffffffff021916908373ffffffffffffffffffffffffffffffffffffffff1602179055506101008201518160070160146101000a81548160ff0219169083151502179055505050505050505050565b6004818154811061049257600080fd5b906000526020600020016000915054906101000a900473ffffffffffffffffffffffffffffffffffffffff1681565b60026020528060005260406000206000915090508060000160009054906101000a900473ffffffffffffffffffffffffffffffffffffffff16908060010154905082565b6105193360006114aa90919063ffffffff16565b15610559576040517f08c379a000000000000000000000000000000000000000000000000000000000815260040161055090612198565b60405180910390fd5b6000600260003373ffffffffffffffffffffffffffffffffffffffff1673ffffffffffffffffffffffffffffffffffffffff1681526020019081526020016000209050338160000160006101000a81548173ffffffffffffffffffffffffffffffffffffffff021916908373ffffffffffffffffffffffffffffffffffffffff1602179055506004339080600181540180825580915050600190039060005260206000200160009091909190916101000a81548173ffffffffffffffffffffffffffffffffffffffff021916908373ffffffffffffffffffffffffffffffffffffffff16021790555061065633600061153c90919063ffffffff16565b50565b6000600260008473ffffffffffffffffffffffffffffffffffffffff1673ffffffffffffffffffffffffffffffffffffffff168152602001908152602001600020905060008160020183815481106106b4576106b36121b8565b5b906000526020600020906008020160030154905060008260020184815481106106e0576106df6121b8565b5b906000526020600020906008020160050154905060003490506000838261070791906121e7565b90506000818361071791906121e7565b905060008486610727919061221b565b905034811461076b576040517f08c379a0000000000000000000000000000000000000000000000000000000008152600401610762906122bd565b60405180910390fd5b60011515876002018981548110610785576107846121b8565b5b906000526020600020906008020160070160149054906101000a900460ff161515146107e6576040517f08c379a00000000000000000000000000000000000000000000000000000000081526004016107dd9061234f565b60405180910390fd5b338760020189815481106107fd576107fc6121b8565b5b906000526020600020906008020160070160006101000a81548173ffffffffffffffffffffffffffffffffffffffff021916908373ffffffffffffffffffffffffffffffffffffffff1602179055506000876002018981548110610864576108636121b8565b5b906000526020600020906008020160070160146101000a81548160ff021916908315150217905550828760020189815481106108a3576108a26121b8565b5b9060005260206000209060080201600401819055508660020188815481106108ce576108cd6121b8565b5b9060005260206000209060080201600360003373ffffffffffffffffffffffffffffffffffffffff1673ffffffffffffffffffffffffffffffffffffffff1681526020019081526020016000206000820154816000015560018201816001019080546109399061239e565b6109449291906116e8565b5060028201816002019080546109599061239e565b6109649291906116e8565b506003820154816003015560048201548160040155600582015481600501556006820160009054906101000a900473ffffffffffffffffffffffffffffffffffffffff168160060160006101000a81548173ffffffffffffffffffffffffffffffffffffffff021916908373ffffffffffffffffffffffffffffffffffffffff1602179055506007820160009054906101000a900473ffffffffffffffffffffffffffffffffffffffff168160070160006101000a81548173ffffffffffffffffffffffffffffffffffffffff021916908373ffffffffffffffffffffffffffffffffffffffff1602179055506007820160149054906101000a900460ff168160070160146101000a81548160ff0219169083151502179055509050508660000160009054906101000a900473ffffffffffffffffffffffffffffffffffffffff1673ffffffffffffffffffffffffffffffffffffffff166108fc839081150290604051600060405180830381858888f19350505050158015610aeb573d6000803e3d6000fd5b50610b0033600161153c90919063ffffffff16565b505050505050505050565b606080600080600080600260008873ffffffffffffffffffffffffffffffffffffffff1673ffffffffffffffffffffffffffffffffffffffff168152602001908152602001600020600201600081548110610b6957610b686121b8565b5b9060005260206000209060080201600101600260008973ffffffffffffffffffffffffffffffffffffffff1673ffffffffffffffffffffffffffffffffffffffff168152602001908152602001600020600201600081548110610bcf57610bce6121b8565b5b9060005260206000209060080201600201600260008a73ffffffffffffffffffffffffffffffffffffffff1673ffffffffffffffffffffffffffffffffffffffff168152602001908152602001600020600201600081548110610c3557610c346121b8565b5b906000526020600020906008020160050154600260008b73ffffffffffffffffffffffffffffffffffffffff1673ffffffffffffffffffffffffffffffffffffffff168152602001908152602001600020600201600081548110610c9c57610c9b6121b8565b5b906000526020600020906008020160070160009054906101000a900473ffffffffffffffffffffffffffffffffffffffff16600260008c73ffffffffffffffffffffffffffffffffffffffff1673ffffffffffffffffffffffffffffffffffffffff168152602001908152602001600020600201600081548110610d2357610d226121b8565b5b906000526020600020906008020160060160009054906101000a900473ffffffffffffffffffffffffffffffffffffffff16600260008d73ffffffffffffffffffffffffffffffffffffffff1673ffffffffffffffffffffffffffffffffffffffff168152602001908152602001600020600201600081548110610daa57610da96121b8565b5b906000526020600020906008020160070160149054906101000a900460ff16858054610dd59061239e565b80601f0160208091040260200160405190810160405280929190818152602001828054610e019061239e565b8015610e4e5780601f10610e2357610100808354040283529160200191610e4e565b820191906000526020600020905b815481529060010190602001808311610e3157829003601f168201915b50505050509550848054610e619061239e565b80601f0160208091040260200160405190810160405280929190818152602001828054610e8d9061239e565b8015610eda5780601f10610eaf57610100808354040283529160200191610eda565b820191906000526020600020905b815481529060010190602001808311610ebd57829003601f168201915b5050505050945095509550955095509550955091939550919395565b606060006004805490509050600060048054905067ffffffffffffffff811115610f2357610f226117f8565b5b604051908082528060200260200182016040528015610f5c57816020015b610f49611775565b815260200190600190039081610f415790505b50905060005b828110156112f6576002600060048381548110610f8257610f816121b8565b5b9060005260206000200160009054906101000a900473ffffffffffffffffffffffffffffffffffffffff1673ffffffffffffffffffffffffffffffffffffffff1673ffffffffffffffffffffffffffffffffffffffff1681526020019081526020016000206040518060600160405290816000820160009054906101000a900473ffffffffffffffffffffffffffffffffffffffff1673ffffffffffffffffffffffffffffffffffffffff1673ffffffffffffffffffffffffffffffffffffffff1681526020016001820154815260200160028201805480602002602001604051908101604052809291908181526020016000905b828210156112bd578382906000526020600020906008020160405180610120016040529081600082015481526020016001820180546110b59061239e565b80601f01602080910402602001604051908101604052809291908181526020018280546110e19061239e565b801561112e5780601f106111035761010080835404028352916020019161112e565b820191906000526020600020905b81548152906001019060200180831161111157829003601f168201915b505050505081526020016002820180546111479061239e565b80601f01602080910402602001604051908101604052809291908181526020018280546111739061239e565b80156111c05780601f10611195576101008083540402835291602001916111c0565b820191906000526020600020905b8154815290600101906020018083116111a357829003601f168201915b505050505081526020016003820154815260200160048201548152602001600582015481526020016006820160009054906101000a900473ffffffffffffffffffffffffffffffffffffffff1673ffffffffffffffffffffffffffffffffffffffff1673ffffffffffffffffffffffffffffffffffffffff1681526020016007820160009054906101000a900473ffffffffffffffffffffffffffffffffffffffff1673ffffffffffffffffffffffffffffffffffffffff1673ffffffffffffffffffffffffffffffffffffffff1681526020016007820160149054906101000a900460ff16151515158152505081526020019060010190611077565b50505050815250508282815181106112d8576112d76121b8565b5b602002602001018190525080806112ee90612103565b915050610f62565b50809250505090565b60036020528060005260406000206000915090508060000154908060010180546113289061239e565b80601f01602080910402602001604051908101604052809291908181526020018280546113549061239e565b80156113a15780601f10611376576101008083540402835291602001916113a1565b820191906000526020600020905b81548152906001019060200180831161138457829003601f168201915b5050505050908060020180546113b69061239e565b80601f01602080910402602001604051908101604052809291908181526020018280546113e29061239e565b801561142f5780601f106114045761010080835404028352916020019161142f565b820191906000526020600020905b81548152906001019060200180831161141257829003601f168201915b5050505050908060030154908060040154908060050154908060060160009054906101000a900473ffffffffffffffffffffffffffffffffffffffff16908060070160009054906101000a900473ffffffffffffffffffffffffffffffffffffffff16908060070160149054906101000a900460ff16905089565b60008073ffffffffffffffffffffffffffffffffffffffff168273ffffffffffffffffffffffffffffffffffffffff1614156114e557600080fd5b8260000160008373ffffffffffffffffffffffffffffffffffffffff1673ffffffffffffffffffffffffffffffffffffffff16815260200190815260200160002060009054906101000a900460ff16905092915050565b600073ffffffffffffffffffffffffffffffffffffffff168173ffffffffffffffffffffffffffffffffffffffff16141561157657600080fd5b61158082826114aa565b1561158a57600080fd5b60018260000160008373ffffffffffffffffffffffffffffffffffffffff1673ffffffffffffffffffffffffffffffffffffffff16815260200190815260200160002060006101000a81548160ff0219169083151502179055505050565b604051806101200160405280600081526020016060815260200160608152602001600081526020016000815260200160008152602001600073ffffffffffffffffffffffffffffffffffffffff168152602001600073ffffffffffffffffffffffffffffffffffffffff1681526020016000151581525090565b82805461166e9061239e565b90600052602060002090601f01602090048101928261169057600085556116d7565b82601f106116a957805160ff19168380011785556116d7565b828001600101855582156116d7579182015b828111156116d65782518255916020019190600101906116bb565b5b5090506116e491906117ac565b5090565b8280546116f49061239e565b90600052602060002090601f0160209004810192826117165760008555611764565b82601f106117275780548555611764565b8280016001018555821561176457600052602060002091601f016020900482015b82811115611763578254825591600101919060010190611748565b5b50905061177191906117ac565b5090565b6040518060600160405280600073ffffffffffffffffffffffffffffffffffffffff16815260200160008152602001606081525090565b5b808211156117c55760008160009055506001016117ad565b5090565b6000604051905090565b600080fd5b600080fd5b600080fd5b600080fd5b6000601f19601f8301169050919050565b7f4e487b7100000000000000000000000000000000000000000000000000000000600052604160045260246000fd5b611830826117e7565b810181811067ffffffffffffffff8211171561184f5761184e6117f8565b5b80604052505050565b60006118626117c9565b905061186e8282611827565b919050565b600067ffffffffffffffff82111561188e5761188d6117f8565b5b611897826117e7565b9050602081019050919050565b82818337600083830152505050565b60006118c66118c184611873565b611858565b9050828152602081018484840111156118e2576118e16117e2565b5b6118ed8482856118a4565b509392505050565b600082601f83011261190a576119096117dd565b5b813561191a8482602086016118b3565b91505092915050565b6000819050919050565b61193681611923565b811461194157600080fd5b50565b6000813590506119538161192d565b92915050565b60008060008060808587031215611973576119726117d3565b5b600085013567ffffffffffffffff811115611991576119906117d8565b5b61199d878288016118f5565b945050602085013567ffffffffffffffff8111156119be576119bd6117d8565b5b6119ca878288016118f5565b93505060406119db87828801611944565b92505060606119ec87828801611944565b91505092959194509250565b600060208284031215611a0e57611a0d6117d3565b5b6000611a1c84828501611944565b91505092915050565b600073ffffffffffffffffffffffffffffffffffffffff82169050919050565b6000611a5082611a25565b9050919050565b611a6081611a45565b82525050565b6000602082019050611a7b6000830184611a57565b92915050565b611a8a81611a45565b8114611a9557600080fd5b50565b600081359050611aa781611a81565b92915050565b600060208284031215611ac357611ac26117d3565b5b6000611ad184828501611a98565b91505092915050565b6000611ae582611a25565b9050919050565b611af581611ada565b82525050565b611b0481611923565b82525050565b6000604082019050611b1f6000830185611aec565b611b2c6020830184611afb565b9392505050565b60008060408385031215611b4a57611b496117d3565b5b6000611b5885828601611a98565b9250506020611b6985828601611944565b9150509250929050565b600081519050919050565b600082825260208201905092915050565b60005b83811015611bad578082015181840152602081019050611b92565b83811115611bbc576000848401525b50505050565b6000611bcd82611b73565b611bd78185611b7e565b9350611be7818560208601611b8f565b611bf0816117e7565b840191505092915050565b60008115159050919050565b611c1081611bfb565b82525050565b600060c0820190508181036000830152611c308189611bc2565b90508181036020830152611c448188611bc2565b9050611c536040830187611afb565b611c606060830186611a57565b611c6d6080830185611a57565b611c7a60a0830184611c07565b979650505050505050565b600081519050919050565b600082825260208201905092915050565b6000819050602082019050919050565b611cba81611ada565b82525050565b611cc981611923565b82525050565b600081519050919050565b600082825260208201905092915050565b6000819050602082019050919050565b600082825260208201905092915050565b6000611d1782611b73565b611d218185611cfb565b9350611d31818560208601611b8f565b611d3a816117e7565b840191505092915050565b611d4e81611a45565b82525050565b611d5d81611bfb565b82525050565b600061012083016000830151611d7c6000860182611cc0565b5060208301518482036020860152611d948282611d0c565b91505060408301518482036040860152611dae8282611d0c565b9150506060830151611dc36060860182611cc0565b506080830151611dd66080860182611cc0565b5060a0830151611de960a0860182611cc0565b5060c0830151611dfc60c0860182611d45565b5060e0830151611e0f60e0860182611cb1565b50610100830151611e24610100860182611d54565b508091505092915050565b6000611e3b8383611d63565b905092915050565b6000602082019050919050565b6000611e5b82611ccf565b611e658185611cda565b935083602082028501611e7785611ceb565b8060005b85811015611eb35784840389528151611e948582611e2f565b9450611e9f83611e43565b925060208a01995050600181019050611e7b565b50829750879550505050505092915050565b6000606083016000830151611edd6000860182611cb1565b506020830151611ef06020860182611cc0565b5060408301518482036040860152611f088282611e50565b9150508091505092915050565b6000611f218383611ec5565b905092915050565b6000602082019050919050565b6000611f4182611c85565b611f4b8185611c90565b935083602082028501611f5d85611ca1565b8060005b85811015611f995784840389528151611f7a8582611f15565b9450611f8583611f29565b925060208a01995050600181019050611f61565b50829750879550505050505092915050565b60006020820190508181036000830152611fc58184611f36565b905092915050565b600061012082019050611fe3600083018c611afb565b8181036020830152611ff5818b611bc2565b90508181036040830152612009818a611bc2565b90506120186060830189611afb565b6120256080830188611afb565b61203260a0830187611afb565b61203f60c0830186611a57565b61204c60e0830185611aec565b61205a610100830184611c07565b9a9950505050505050505050565b7f4e6f742070726f70657274796f776e6572000000000000000000000000000000600082015250565b600061209e601183611b7e565b91506120a982612068565b602082019050919050565b600060208201905081810360008301526120cd81612091565b9050919050565b7f4e487b7100000000000000000000000000000000000000000000000000000000600052601160045260246000fd5b600061210e82611923565b91507fffffffffffffffffffffffffffffffffffffffffffffffffffffffffffffffff821415612141576121406120d4565b5b600182019050919050565b7f6861732070726f70657274790000000000000000000000000000000000000000600082015250565b6000612182600c83611b7e565b915061218d8261214c565b602082019050919050565b600060208201905081810360008301526121b181612175565b9050919050565b7f4e487b7100000000000000000000000000000000000000000000000000000000600052603260045260246000fd5b60006121f282611923565b91506121fd83611923565b9250828210156122105761220f6120d4565b5b828203905092915050565b600061222682611923565b915061223183611923565b9250827fffffffffffffffffffffffffffffffffffffffffffffffffffffffffffffffff03821115612266576122656120d4565b5b828201905092915050565b7f596f7520646f6e2774206861766520656e6f7567682065746865720000000000600082015250565b60006122a7601b83611b7e565b91506122b282612271565b602082019050919050565b600060208201905081810360008301526122d68161229a565b9050919050565b7f546869732070726f7065727479206973206e6f7420617661696c61626c65206660008201527f6f722072656e7400000000000000000000000000000000000000000000000000602082015250565b6000612339602783611b7e565b9150612344826122dd565b604082019050919050565b600060208201905081810360008301526123688161232c565b9050919050565b7f4e487b7100000000000000000000000000000000000000000000000000000000600052602260045260246000fd5b600060028204905060018216806123b657607f821691505b602082108114156123ca576123c961236f565b5b5091905056fea2646970667358221220c6f8c266bb3463eb839f58aa9dc0c7829dd03683c21fdd6e68034c2a7f61eb8664736f6c63430008090033",
  "immutableReferences": {},
  "source": "// SPDX-License-Identifier: MIT\n\npragma solidity >=0.4.22 <0.9.0;\n\nlibrary Roles {\n    struct Role {\n        mapping(address => bool) bearer;\n    }\n\n    /**\n     * @dev give an account access to this role\n     */\n    function add(Role storage role, address account) internal {\n        require(account != address(0));\n        require(!has(role, account));\n        role.bearer[account] = true;\n    }\n\n    /**\n     * @dev remove an account's access to this role\n     */\n    function remove(Role storage role, address account) internal {\n        require(account != address(0));\n        require(has(role, account));\n\n        role.bearer[account] = false;\n    }\n\n    /**\n     * @dev check if an account has this role\n     * @return bool\n     */\n    function has(Role storage role, address account)\n        internal\n        view\n        returns (bool)\n    {\n        require(account != address(0));\n        return role.bearer[account];\n    }\n}\n\ncontract RealEstatePropertyFactory {\n    using Roles for Roles.Role;\n\n    // state variables\n    Roles.Role private _propertyOwners;\n    Roles.Role private _tenant;\n\n    modifier isPropertyOwner() {\n        require(_propertyOwners.has(msg.sender), \"Not propertyowner\");\n        _;\n    }\n\n    modifier hasProperty() {\n        require(!_propertyOwners.has(msg.sender), \"has property\");\n        _;\n    }\n\n    modifier onlyTenant() {\n        require(_tenant.has(msg.sender), \"Not owner\");\n        _;\n    }\n\n    modifier isTenant() {\n        require(_tenant.has(msg.sender) == false, \"Already has a Property\");\n        _;\n    }\n\n    mapping(address => RealEstateProperty) public properties;\n    mapping(address => Property) public tenant;\n    address[] public numOfAddress;\n\n    struct RealEstateProperty {\n        address payable owner;\n        uint256 numOfProperties;\n        Property[] properties;\n    }\n\n    struct Property {\n        uint256 id;\n        string title;\n        string description;\n        uint256 montlyPrice;\n        uint256 depositAmount;\n        uint256 depositPrice;\n        address owner;\n        address payable tenant;\n        bool available;\n    }\n\n    /**\n     * @dev get all properties for rental\n     */\n    function getProperties() public view returns (RealEstateProperty[] memory) {\n        uint256 numLength = numOfAddress.length;\n        RealEstateProperty[] memory memoryArray = new RealEstateProperty[](\n            numOfAddress.length\n        );\n        for (uint256 i = 0; i < numLength; i++) {\n            memoryArray[i] = properties[numOfAddress[i]];\n        }\n        return memoryArray;\n    }\n\n    /**\n     * @dev rental a property\n     */\n    function rentProperty(address propertyOwner, uint256 propertyId)\n        public\n        payable\n    {\n        RealEstateProperty storage property = properties[propertyOwner];\n        uint256 montlyPrice = property.properties[propertyId].montlyPrice;\n        uint256 depositPrice = property.properties[propertyId].depositPrice;\n        uint256 sum = msg.value;\n        uint256 deposit = sum - montlyPrice;\n        uint256 toPay = sum - deposit;\n        uint256 toCheck = montlyPrice + depositPrice;\n        require(toCheck == msg.value, \"You don't have enough ether\");\n        require(\n            property.properties[propertyId].available == true,\n            \"This property is not available for rent\"\n        );\n        property.properties[propertyId].tenant = payable(msg.sender);\n        property.properties[propertyId].available = false;\n        property.properties[propertyId].depositAmount = deposit;\n        tenant[msg.sender] = property.properties[propertyId];\n        property.owner.transfer(toPay);\n        _tenant.add(msg.sender);\n    }\n\n    /**\n     * @dev get single property by address\n     */\n    function getProperty(address _address)\n        public\n        view\n        returns (\n            string memory,\n            string memory,\n            uint256,\n            address,\n            address,\n            bool\n        )\n    {\n        return (\n            properties[_address].properties[0].title,\n            properties[_address].properties[0].description,\n            properties[_address].properties[0].depositPrice,\n            properties[_address].properties[0].tenant,\n            properties[_address].properties[0].owner,\n            properties[_address].properties[0].available\n        );\n    }\n\n    // Create a property - only property owners\n    function createProperty(\n        string memory _title,\n        string memory _description,\n        uint256 _amount,\n        uint256 _deposit\n    ) public isPropertyOwner {\n        Property memory property;\n        RealEstateProperty storage p = properties[msg.sender];\n        property.title = _title;\n        property.description = _description;\n        property.montlyPrice = _amount;\n        property.depositPrice = _deposit;\n        property.available = true;\n        property.owner = msg.sender;\n        property.id = p.numOfProperties++;\n        p.properties.push(property);\n    }\n\n    // Owners create a real state property\n    function createRealEstateProperty() public hasProperty {\n        RealEstateProperty storage c = properties[msg.sender];\n        c.owner = payable(msg.sender);\n        numOfAddress.push(msg.sender);\n        _propertyOwners.add(msg.sender);\n    }\n}\n",
  "sourcePath": "/Users/vicklercharles/Desktop/smart-contracts/blockchain-developer-bootcamp-final-project/contracts/RealEstatePropertyFactory.sol",
  "compiler": {
    "name": "solc",
    "version": "0.8.9+commit.e5eed63a.Emscripten.clang"
  },
  "schemaVersion": "3.4.3",
  "updatedAt": "2021-11-10T13:29:33.940Z",
  "networkType": "ethereum",
  "devdoc": {
    "kind": "dev",
    "methods": {
      "getProperties()": {
        "details": "get all properties for rental"
      },
      "getProperty(address)": {
        "details": "get single property by address"
      },
      "rentProperty(address,uint256)": {
        "details": "rental a property"
      }
    },
    "version": 1
  },
  "userdoc": {
    "kind": "user",
    "methods": {},
    "version": 1
  }
}