{
  "contractName": "RealEstatePropertyFactory",
  "abi": [
    {
      "inputs": [
        {
          "internalType": "uint256",
          "name": "",
          "type": "uint256"
        }
      ],
      "name": "numOfAddress",
      "outputs": [
        {
          "internalType": "address",
          "name": "",
          "type": "address"
        }
      ],
      "stateMutability": "view",
      "type": "function",
      "constant": true
    },
    {
      "inputs": [
        {
          "internalType": "address",
          "name": "",
          "type": "address"
        }
      ],
      "name": "properties",
      "outputs": [
        {
          "internalType": "address payable",
          "name": "owner",
          "type": "address"
        },
        {
          "internalType": "uint256",
          "name": "numOfProperties",
          "type": "uint256"
        }
      ],
      "stateMutability": "view",
      "type": "function",
      "constant": true
    },
    {
      "inputs": [
        {
          "internalType": "address",
          "name": "",
          "type": "address"
        }
      ],
      "name": "tenant",
      "outputs": [
        {
          "internalType": "uint256",
          "name": "id",
          "type": "uint256"
        },
        {
          "internalType": "string",
          "name": "title",
          "type": "string"
        },
        {
          "internalType": "string",
          "name": "description",
          "type": "string"
        },
        {
          "internalType": "uint256",
          "name": "montlyPrice",
          "type": "uint256"
        },
        {
          "internalType": "uint256",
          "name": "depositAmount",
          "type": "uint256"
        },
        {
          "internalType": "uint256",
          "name": "depositPrice",
          "type": "uint256"
        },
        {
          "internalType": "address",
          "name": "owner",
          "type": "address"
        },
        {
          "internalType": "address payable",
          "name": "tenant",
          "type": "address"
        },
        {
          "internalType": "bool",
          "name": "available",
          "type": "bool"
        }
      ],
      "stateMutability": "view",
      "type": "function",
      "constant": true
    },
    {
      "inputs": [],
      "name": "getProperties",
      "outputs": [
        {
          "components": [
            {
              "internalType": "address payable",
              "name": "owner",
              "type": "address"
            },
            {
              "internalType": "uint256",
              "name": "numOfProperties",
              "type": "uint256"
            },
            {
              "components": [
                {
                  "internalType": "uint256",
                  "name": "id",
                  "type": "uint256"
                },
                {
                  "internalType": "string",
                  "name": "title",
                  "type": "string"
                },
                {
                  "internalType": "string",
                  "name": "description",
                  "type": "string"
                },
                {
                  "internalType": "uint256",
                  "name": "montlyPrice",
                  "type": "uint256"
                },
                {
                  "internalType": "uint256",
                  "name": "depositAmount",
                  "type": "uint256"
                },
                {
                  "internalType": "uint256",
                  "name": "depositPrice",
                  "type": "uint256"
                },
                {
                  "internalType": "address",
                  "name": "owner",
                  "type": "address"
                },
                {
                  "internalType": "address payable",
                  "name": "tenant",
                  "type": "address"
                },
                {
                  "internalType": "bool",
                  "name": "available",
                  "type": "bool"
                }
              ],
              "internalType": "struct RealEstatePropertyFactory.Property[]",
              "name": "properties",
              "type": "tuple[]"
            }
          ],
          "internalType": "struct RealEstatePropertyFactory.RealEstateProperty[]",
          "name": "",
          "type": "tuple[]"
        }
      ],
      "stateMutability": "view",
      "type": "function",
      "constant": true
    },
    {
      "inputs": [
        {
          "internalType": "address",
          "name": "propertyOwner",
          "type": "address"
        },
        {
          "internalType": "uint256",
          "name": "propertyId",
          "type": "uint256"
        }
      ],
      "name": "rentProperty",
      "outputs": [],
      "stateMutability": "payable",
      "type": "function",
      "payable": true
    },
    {
      "inputs": [
        {
          "internalType": "address",
          "name": "_address",
          "type": "address"
        }
      ],
      "name": "getPropertyByTenant",
      "outputs": [
        {
          "internalType": "uint256",
          "name": "id",
          "type": "uint256"
        },
        {
          "internalType": "string",
          "name": "title",
          "type": "string"
        },
        {
          "internalType": "string",
          "name": "description",
          "type": "string"
        },
        {
          "internalType": "uint256",
          "name": "depositPrice",
          "type": "uint256"
        },
        {
          "internalType": "uint256",
          "name": "montlyPrice",
          "type": "uint256"
        },
        {
          "internalType": "address",
          "name": "currentTenant",
          "type": "address"
        },
        {
          "internalType": "address",
          "name": "owner",
          "type": "address"
        },
        {
          "internalType": "bool",
          "name": "available",
          "type": "bool"
        }
      ],
      "stateMutability": "view",
      "type": "function",
      "constant": true
    },
    {
      "inputs": [
        {
          "internalType": "address",
          "name": "_address",
          "type": "address"
        }
      ],
      "name": "getBalanceOf",
      "outputs": [
        {
          "internalType": "uint256",
          "name": "",
          "type": "uint256"
        }
      ],
      "stateMutability": "view",
      "type": "function",
      "constant": true
    },
    {
      "inputs": [
        {
          "internalType": "string",
          "name": "_title",
          "type": "string"
        },
        {
          "internalType": "string",
          "name": "_description",
          "type": "string"
        },
        {
          "internalType": "uint256",
          "name": "_amount",
          "type": "uint256"
        },
        {
          "internalType": "uint256",
          "name": "_deposit",
          "type": "uint256"
        }
      ],
      "name": "createProperty",
      "outputs": [],
      "stateMutability": "nonpayable",
      "type": "function"
    }
  ],
  "bytecode": "0x608060405234801561001057600080fd5b5061234c806100206000396000f3fe60806040526004361061007b5760003560e01c8063751eaa0a1161004e578063751eaa0a146101685780639b96eece14610184578063ec0cfd0b146101c1578063f9015a7d146101ec5761007b565b80631a974aa9146100805780631d26538f146100c45780631e6efb3b146100ed57806325ec77d71461012a575b600080fd5b34801561008c57600080fd5b506100a760048036038101906100a291906117b5565b610231565b6040516100bb9897969594939291906118be565b60405180910390f35b3480156100d057600080fd5b506100eb60048036038101906100e69190611aab565b610621565b005b3480156100f957600080fd5b50610114600480360381019061010f9190611b4a565b61091a565b6040516101219190611b77565b60405180910390f35b34801561013657600080fd5b50610151600480360381019061014c91906117b5565b610959565b60405161015f929190611bb3565b60405180910390f35b610182600480360381019061017d9190611bdc565b61099d565b005b34801561019057600080fd5b506101ab60048036038101906101a691906117b5565b610e4f565b6040516101b89190611c1c565b60405180910390f35b3480156101cd57600080fd5b506101d6610e70565b6040516101e39190611f5d565b60405180910390f35b3480156101f857600080fd5b50610213600480360381019061020e91906117b5565b611279565b60405161022899989796959493929190611f7f565b60405180910390f35b6000606080600080600080600061025289600161142490919063ffffffff16565b610291576040517f08c379a000000000000000000000000000000000000000000000000000000000815260040161028890612066565b60405180910390fd5b600360008a73ffffffffffffffffffffffffffffffffffffffff1673ffffffffffffffffffffffffffffffffffffffff168152602001908152602001600020600001549750600360008a73ffffffffffffffffffffffffffffffffffffffff1673ffffffffffffffffffffffffffffffffffffffff1681526020019081526020016000206001018054610323906120b5565b80601f016020809104026020016040519081016040528092919081815260200182805461034f906120b5565b801561039c5780601f106103715761010080835404028352916020019161039c565b820191906000526020600020905b81548152906001019060200180831161037f57829003601f168201915b50505050509650600360008a73ffffffffffffffffffffffffffffffffffffffff1673ffffffffffffffffffffffffffffffffffffffff16815260200190815260200160002060020180546103f0906120b5565b80601f016020809104026020016040519081016040528092919081815260200182805461041c906120b5565b80156104695780601f1061043e57610100808354040283529160200191610469565b820191906000526020600020905b81548152906001019060200180831161044c57829003601f168201915b50505050509550600360008a73ffffffffffffffffffffffffffffffffffffffff1673ffffffffffffffffffffffffffffffffffffffff168152602001908152602001600020600501549450600360008a73ffffffffffffffffffffffffffffffffffffffff1673ffffffffffffffffffffffffffffffffffffffff168152602001908152602001600020600301549350600360008a73ffffffffffffffffffffffffffffffffffffffff1673ffffffffffffffffffffffffffffffffffffffff16815260200190815260200160002060070160009054906101000a900473ffffffffffffffffffffffffffffffffffffffff169250600360008a73ffffffffffffffffffffffffffffffffffffffff1673ffffffffffffffffffffffffffffffffffffffff16815260200190815260200160002060060160009054906101000a900473ffffffffffffffffffffffffffffffffffffffff169150600360008a73ffffffffffffffffffffffffffffffffffffffff1673ffffffffffffffffffffffffffffffffffffffff16815260200190815260200160002060070160149054906101000a900460ff169050919395975091939597565b610629611562565b6000600260003373ffffffffffffffffffffffffffffffffffffffff1673ffffffffffffffffffffffffffffffffffffffff168152602001908152602001600020905085826020018190525084826040018190525083826060018181525050828260a0018181525050600182610100019015159081151581525050338260c0019073ffffffffffffffffffffffffffffffffffffffff16908173ffffffffffffffffffffffffffffffffffffffff16815250508060010160008154809291906106f190612116565b91905055826000018181525050806002018290806001815401808255809150506001900390600052602060002090600802016000909190919091506000820151816000015560208201518160010190805190602001906107529291906115dc565b50604082015181600201908051906020019061076f9291906115dc565b50606082015181600301556080820151816004015560a0820151816005015560c08201518160060160006101000a81548173ffffffffffffffffffffffffffffffffffffffff021916908373ffffffffffffffffffffffffffffffffffffffff16021790555060e08201518160070160006101000a81548173ffffffffffffffffffffffffffffffffffffffff021916908373ffffffffffffffffffffffffffffffffffffffff1602179055506101008201518160070160146101000a81548160ff021916908315150217905550505061085333600061142490919063ffffffff16565b61091257338160000160006101000a81548173ffffffffffffffffffffffffffffffffffffffff021916908373ffffffffffffffffffffffffffffffffffffffff1602179055506004339080600181540180825580915050600190039060005260206000200160009091909190916101000a81548173ffffffffffffffffffffffffffffffffffffffff021916908373ffffffffffffffffffffffffffffffffffffffff1602179055506109113360006114b690919063ffffffff16565b5b505050505050565b6004818154811061092a57600080fd5b906000526020600020016000915054906101000a900473ffffffffffffffffffffffffffffffffffffffff1681565b60026020528060005260406000206000915090508060000160009054906101000a900473ffffffffffffffffffffffffffffffffffffffff16908060010154905082565b6000600260008473ffffffffffffffffffffffffffffffffffffffff1673ffffffffffffffffffffffffffffffffffffffff168152602001908152602001600020905060008160020183815481106109f8576109f761215f565b5b90600052602060002090600802016003015490506000826002018481548110610a2457610a2361215f565b5b9060005260206000209060080201600501549050600034905060008382610a4b919061218e565b905060008183610a5b919061218e565b905060008486610a6b91906121c2565b9050348114610aaf576040517f08c379a0000000000000000000000000000000000000000000000000000000008152600401610aa690612264565b60405180910390fd5b60011515876002018981548110610ac957610ac861215f565b5b906000526020600020906008020160070160149054906101000a900460ff16151514610b2a576040517f08c379a0000000000000000000000000000000000000000000000000000000008152600401610b21906122f6565b60405180910390fd5b33876002018981548110610b4157610b4061215f565b5b906000526020600020906008020160070160006101000a81548173ffffffffffffffffffffffffffffffffffffffff021916908373ffffffffffffffffffffffffffffffffffffffff1602179055506000876002018981548110610ba857610ba761215f565b5b906000526020600020906008020160070160146101000a81548160ff02191690831515021790555082876002018981548110610be757610be661215f565b5b906000526020600020906008020160040181905550866002018881548110610c1257610c1161215f565b5b9060005260206000209060080201600360003373ffffffffffffffffffffffffffffffffffffffff1673ffffffffffffffffffffffffffffffffffffffff168152602001908152602001600020600082015481600001556001820181600101908054610c7d906120b5565b610c88929190611662565b506002820181600201908054610c9d906120b5565b610ca8929190611662565b506003820154816003015560048201548160040155600582015481600501556006820160009054906101000a900473ffffffffffffffffffffffffffffffffffffffff168160060160006101000a81548173ffffffffffffffffffffffffffffffffffffffff021916908373ffffffffffffffffffffffffffffffffffffffff1602179055506007820160009054906101000a900473ffffffffffffffffffffffffffffffffffffffff168160070160006101000a81548173ffffffffffffffffffffffffffffffffffffffff021916908373ffffffffffffffffffffffffffffffffffffffff1602179055506007820160149054906101000a900460ff168160070160146101000a81548160ff0219169083151502179055509050508660000160009054906101000a900473ffffffffffffffffffffffffffffffffffffffff1673ffffffffffffffffffffffffffffffffffffffff166108fc839081150290604051600060405180830381858888f19350505050158015610e2f573d6000803e3d6000fd5b50610e443360016114b690919063ffffffff16565b505050505050505050565b60008173ffffffffffffffffffffffffffffffffffffffff16319050919050565b606060006004805490509050600060048054905067ffffffffffffffff811115610e9d57610e9c611954565b5b604051908082528060200260200182016040528015610ed657816020015b610ec36116ef565b815260200190600190039081610ebb5790505b50905060005b82811015611270576002600060048381548110610efc57610efb61215f565b5b9060005260206000200160009054906101000a900473ffffffffffffffffffffffffffffffffffffffff1673ffffffffffffffffffffffffffffffffffffffff1673ffffffffffffffffffffffffffffffffffffffff1681526020019081526020016000206040518060600160405290816000820160009054906101000a900473ffffffffffffffffffffffffffffffffffffffff1673ffffffffffffffffffffffffffffffffffffffff1673ffffffffffffffffffffffffffffffffffffffff1681526020016001820154815260200160028201805480602002602001604051908101604052809291908181526020016000905b828210156112375783829060005260206000209060080201604051806101200160405290816000820154815260200160018201805461102f906120b5565b80601f016020809104026020016040519081016040528092919081815260200182805461105b906120b5565b80156110a85780601f1061107d576101008083540402835291602001916110a8565b820191906000526020600020905b81548152906001019060200180831161108b57829003601f168201915b505050505081526020016002820180546110c1906120b5565b80601f01602080910402602001604051908101604052809291908181526020018280546110ed906120b5565b801561113a5780601f1061110f5761010080835404028352916020019161113a565b820191906000526020600020905b81548152906001019060200180831161111d57829003601f168201915b505050505081526020016003820154815260200160048201548152602001600582015481526020016006820160009054906101000a900473ffffffffffffffffffffffffffffffffffffffff1673ffffffffffffffffffffffffffffffffffffffff1673ffffffffffffffffffffffffffffffffffffffff1681526020016007820160009054906101000a900473ffffffffffffffffffffffffffffffffffffffff1673ffffffffffffffffffffffffffffffffffffffff1673ffffffffffffffffffffffffffffffffffffffff1681526020016007820160149054906101000a900460ff16151515158152505081526020019060010190610ff1565b50505050815250508282815181106112525761125161215f565b5b6020026020010181905250808061126890612116565b915050610edc565b50809250505090565b60036020528060005260406000206000915090508060000154908060010180546112a2906120b5565b80601f01602080910402602001604051908101604052809291908181526020018280546112ce906120b5565b801561131b5780601f106112f05761010080835404028352916020019161131b565b820191906000526020600020905b8154815290600101906020018083116112fe57829003601f168201915b505050505090806002018054611330906120b5565b80601f016020809104026020016040519081016040528092919081815260200182805461135c906120b5565b80156113a95780601f1061137e576101008083540402835291602001916113a9565b820191906000526020600020905b81548152906001019060200180831161138c57829003601f168201915b5050505050908060030154908060040154908060050154908060060160009054906101000a900473ffffffffffffffffffffffffffffffffffffffff16908060070160009054906101000a900473ffffffffffffffffffffffffffffffffffffffff16908060070160149054906101000a900460ff16905089565b60008073ffffffffffffffffffffffffffffffffffffffff168273ffffffffffffffffffffffffffffffffffffffff16141561145f57600080fd5b8260000160008373ffffffffffffffffffffffffffffffffffffffff1673ffffffffffffffffffffffffffffffffffffffff16815260200190815260200160002060009054906101000a900460ff16905092915050565b600073ffffffffffffffffffffffffffffffffffffffff168173ffffffffffffffffffffffffffffffffffffffff1614156114f057600080fd5b6114fa8282611424565b1561150457600080fd5b60018260000160008373ffffffffffffffffffffffffffffffffffffffff1673ffffffffffffffffffffffffffffffffffffffff16815260200190815260200160002060006101000a81548160ff0219169083151502179055505050565b604051806101200160405280600081526020016060815260200160608152602001600081526020016000815260200160008152602001600073ffffffffffffffffffffffffffffffffffffffff168152602001600073ffffffffffffffffffffffffffffffffffffffff1681526020016000151581525090565b8280546115e8906120b5565b90600052602060002090601f01602090048101928261160a5760008555611651565b82601f1061162357805160ff1916838001178555611651565b82800160010185558215611651579182015b82811115611650578251825591602001919060010190611635565b5b50905061165e9190611726565b5090565b82805461166e906120b5565b90600052602060002090601f01602090048101928261169057600085556116de565b82601f106116a157805485556116de565b828001600101855582156116de57600052602060002091601f016020900482015b828111156116dd5782548255916001019190600101906116c2565b5b5090506116eb9190611726565b5090565b6040518060600160405280600073ffffffffffffffffffffffffffffffffffffffff16815260200160008152602001606081525090565b5b8082111561173f576000816000905550600101611727565b5090565b6000604051905090565b600080fd5b600080fd5b600073ffffffffffffffffffffffffffffffffffffffff82169050919050565b600061178282611757565b9050919050565b61179281611777565b811461179d57600080fd5b50565b6000813590506117af81611789565b92915050565b6000602082840312156117cb576117ca61174d565b5b60006117d9848285016117a0565b91505092915050565b6000819050919050565b6117f5816117e2565b82525050565b600081519050919050565b600082825260208201905092915050565b60005b8381101561183557808201518184015260208101905061181a565b83811115611844576000848401525b50505050565b6000601f19601f8301169050919050565b6000611866826117fb565b6118708185611806565b9350611880818560208601611817565b6118898161184a565b840191505092915050565b61189d81611777565b82525050565b60008115159050919050565b6118b8816118a3565b82525050565b6000610100820190506118d4600083018b6117ec565b81810360208301526118e6818a61185b565b905081810360408301526118fa818961185b565b905061190960608301886117ec565b61191660808301876117ec565b61192360a0830186611894565b61193060c0830185611894565b61193d60e08301846118af565b9998505050505050505050565b600080fd5b600080fd5b7f4e487b7100000000000000000000000000000000000000000000000000000000600052604160045260246000fd5b61198c8261184a565b810181811067ffffffffffffffff821117156119ab576119aa611954565b5b80604052505050565b60006119be611743565b90506119ca8282611983565b919050565b600067ffffffffffffffff8211156119ea576119e9611954565b5b6119f38261184a565b9050602081019050919050565b82818337600083830152505050565b6000611a22611a1d846119cf565b6119b4565b905082815260208101848484011115611a3e57611a3d61194f565b5b611a49848285611a00565b509392505050565b600082601f830112611a6657611a6561194a565b5b8135611a76848260208601611a0f565b91505092915050565b611a88816117e2565b8114611a9357600080fd5b50565b600081359050611aa581611a7f565b92915050565b60008060008060808587031215611ac557611ac461174d565b5b600085013567ffffffffffffffff811115611ae357611ae2611752565b5b611aef87828801611a51565b945050602085013567ffffffffffffffff811115611b1057611b0f611752565b5b611b1c87828801611a51565b9350506040611b2d87828801611a96565b9250506060611b3e87828801611a96565b91505092959194509250565b600060208284031215611b6057611b5f61174d565b5b6000611b6e84828501611a96565b91505092915050565b6000602082019050611b8c6000830184611894565b92915050565b6000611b9d82611757565b9050919050565b611bad81611b92565b82525050565b6000604082019050611bc86000830185611ba4565b611bd560208301846117ec565b9392505050565b60008060408385031215611bf357611bf261174d565b5b6000611c01858286016117a0565b9250506020611c1285828601611a96565b9150509250929050565b6000602082019050611c3160008301846117ec565b92915050565b600081519050919050565b600082825260208201905092915050565b6000819050602082019050919050565b611c6c81611b92565b82525050565b611c7b816117e2565b82525050565b600081519050919050565b600082825260208201905092915050565b6000819050602082019050919050565b600082825260208201905092915050565b6000611cc9826117fb565b611cd38185611cad565b9350611ce3818560208601611817565b611cec8161184a565b840191505092915050565b611d0081611777565b82525050565b611d0f816118a3565b82525050565b600061012083016000830151611d2e6000860182611c72565b5060208301518482036020860152611d468282611cbe565b91505060408301518482036040860152611d608282611cbe565b9150506060830151611d756060860182611c72565b506080830151611d886080860182611c72565b5060a0830151611d9b60a0860182611c72565b5060c0830151611dae60c0860182611cf7565b5060e0830151611dc160e0860182611c63565b50610100830151611dd6610100860182611d06565b508091505092915050565b6000611ded8383611d15565b905092915050565b6000602082019050919050565b6000611e0d82611c81565b611e178185611c8c565b935083602082028501611e2985611c9d565b8060005b85811015611e655784840389528151611e468582611de1565b9450611e5183611df5565b925060208a01995050600181019050611e2d565b50829750879550505050505092915050565b6000606083016000830151611e8f6000860182611c63565b506020830151611ea26020860182611c72565b5060408301518482036040860152611eba8282611e02565b9150508091505092915050565b6000611ed38383611e77565b905092915050565b6000602082019050919050565b6000611ef382611c37565b611efd8185611c42565b935083602082028501611f0f85611c53565b8060005b85811015611f4b5784840389528151611f2c8582611ec7565b9450611f3783611edb565b925060208a01995050600181019050611f13565b50829750879550505050505092915050565b60006020820190508181036000830152611f778184611ee8565b905092915050565b600061012082019050611f95600083018c6117ec565b8181036020830152611fa7818b61185b565b90508181036040830152611fbb818a61185b565b9050611fca60608301896117ec565b611fd760808301886117ec565b611fe460a08301876117ec565b611ff160c0830186611894565b611ffe60e0830185611ba4565b61200c6101008301846118af565b9a9950505050505050505050565b7f4e6f74206861732070726f70657274792072656e746564000000000000000000600082015250565b6000612050601783611806565b915061205b8261201a565b602082019050919050565b6000602082019050818103600083015261207f81612043565b9050919050565b7f4e487b7100000000000000000000000000000000000000000000000000000000600052602260045260246000fd5b600060028204905060018216806120cd57607f821691505b602082108114156120e1576120e0612086565b5b50919050565b7f4e487b7100000000000000000000000000000000000000000000000000000000600052601160045260246000fd5b6000612121826117e2565b91507fffffffffffffffffffffffffffffffffffffffffffffffffffffffffffffffff821415612154576121536120e7565b5b600182019050919050565b7f4e487b7100000000000000000000000000000000000000000000000000000000600052603260045260246000fd5b6000612199826117e2565b91506121a4836117e2565b9250828210156121b7576121b66120e7565b5b828203905092915050565b60006121cd826117e2565b91506121d8836117e2565b9250827fffffffffffffffffffffffffffffffffffffffffffffffffffffffffffffffff0382111561220d5761220c6120e7565b5b828201905092915050565b7f596f7520646f6e2774206861766520656e6f7567682065746865720000000000600082015250565b600061224e601b83611806565b915061225982612218565b602082019050919050565b6000602082019050818103600083015261227d81612241565b9050919050565b7f546869732070726f7065727479206973206e6f7420617661696c61626c65206660008201527f6f722072656e7400000000000000000000000000000000000000000000000000602082015250565b60006122e0602783611806565b91506122eb82612284565b604082019050919050565b6000602082019050818103600083015261230f816122d3565b905091905056fea26469706673582212209f375a2633ff945e5503a6b6cb0a7bc92273f8b617dfd98ba3a61498aa43ff0464736f6c63430008090033",
  "immutableReferences": {},
  "source": "// SPDX-License-Identifier: MIT\npragma solidity >=0.4.22 <0.9.0;\n\nlibrary Roles {\n  struct Role {\n    mapping (address => bool) bearer;\n  }\n\n  /**\n   * @dev give an account access to this role\n   */\n  function add(Role storage role, address account) internal {\n    require(account != address(0));\n    require(!has(role, account));\n    role.bearer[account] = true;\n  }\n\n  /**\n   * @dev remove an account's access to this role\n   */\n  function remove(Role storage role, address account) internal {\n    require(account != address(0));\n    require(has(role, account));\n\n    role.bearer[account] = false;\n  }\n\n  /**\n   * @dev check if an account has this role\n   * @return bool\n   */\n  function has(Role storage role, address account)\n    internal\n    view\n    returns (bool)\n  {\n    require(account != address(0));\n    return role.bearer[account];\n  }\n}\n\ncontract RealEstatePropertyFactory {\n    using Roles for Roles.Role;\n\n    // state variables\n    Roles.Role private _propertyOwners;\n    Roles.Role private _tenant;\n    \n    modifier isPropertyOwner() {\n        require(_propertyOwners.has(msg.sender), \"Not propertyowner\");\n        _;\n    }\n    \n    modifier hasProperty() {\n        require(!_propertyOwners.has(msg.sender), \"has property\");\n        _;\n    }\n    \n    modifier onlyTenant() {\n        require(_tenant.has(msg.sender), \"Not owner\");\n        _;\n    }\n    \n    modifier isTenant() {\n        require(_tenant.has(msg.sender) == false, \"Already has a Property\");\n        _;\n    }\n    \n    mapping(address => RealEstateProperty) public properties;\n    mapping(address => Property) public tenant;\n    address[] public numOfAddress;\n\n    struct RealEstateProperty {\n        address payable owner;\n        uint256 numOfProperties;\n        Property[] properties;\n    }\n\n    struct Property {\n        uint id;\n        string title;\n        string description;\n        uint256 montlyPrice;\n        uint256 depositAmount;\n        uint256 depositPrice;\n        address owner;\n        address payable tenant;\n        bool available;\n    }\n    \n     /**\n     * @dev get all properties for rental\n    */\n    function getProperties() public view returns (RealEstateProperty[] memory) {\n        uint256 numLength = numOfAddress.length;\n        RealEstateProperty[] memory memoryArray = new RealEstateProperty[](\n            numOfAddress.length\n        );\n        for (uint256 i = 0; i < numLength; i++) {\n            memoryArray[i] = properties[numOfAddress[i]];\n        }\n        return memoryArray;\n    }\n\n     /**\n     * @dev rental a property\n    */\n    function rentProperty(address propertyOwner, uint propertyId) public payable  {\n        RealEstateProperty storage property = properties[propertyOwner];\n        uint montlyPrice = property.properties[propertyId].montlyPrice;\n        uint depositPrice = property.properties[propertyId].depositPrice;\n        uint sum = msg.value;\n        uint deposit = sum - montlyPrice;\n        uint toPay = sum - deposit;\n        uint toCheck = montlyPrice + depositPrice;\n        require(toCheck == msg.value, \"You don't have enough ether\");\n        require(property.properties[propertyId].available == true, \"This property is not available for rent\");\n        property.properties[propertyId].tenant = payable(msg.sender); \n        property.properties[propertyId].available = false;\n        property.properties[propertyId].depositAmount = deposit;\n        tenant[msg.sender] = property.properties[propertyId];\n        property.owner.transfer(toPay);\n        _tenant.add(msg.sender);\n    }\n    \n    /**\n     * @dev get single property by address\n    */\n      function getPropertyByTenant(address _address)\n        public\n        view\n        returns (\n            uint256 id,\n            string memory title,\n            string memory description,\n            uint256 depositPrice,\n            uint256 montlyPrice,\n            address currentTenant,\n            address owner,\n            bool available\n            \n        )\n    {\n            require(_tenant.has(_address), \"Not has property rented\");\n            id = tenant[_address].id;\n            title = tenant[_address].title;\n            description = tenant[_address].description;\n            depositPrice = tenant[_address].depositPrice;\n            montlyPrice = tenant[_address].montlyPrice;\n            currentTenant = tenant[_address].tenant;\n            owner = tenant[_address].owner;\n            available = tenant[_address].available;\n            \n    }\n    \n    function getBalanceOf(address _address) public view returns(uint)  {\n      return _address.balance;        \n    }\n\n    function createProperty(\n        string memory _title,\n        string memory _description,\n        uint256 _amount,\n        uint256 _deposit\n    ) public {\n        Property memory property;\n        RealEstateProperty storage p = properties[msg.sender];\n        property.title = _title;\n        property.description = _description;\n        property.montlyPrice = _amount;\n        property.depositPrice = _deposit;\n        property.available = true;\n        property.owner = msg.sender;\n        property.id = p.numOfProperties++;\n        p.properties.push(property);\n       \n       if(!_propertyOwners.has(msg.sender)) {\n          p.owner = payable(msg.sender);\n          numOfAddress.push(msg.sender);\n         _propertyOwners.add(msg.sender);\n       }\n    }\n}\n",
  "sourcePath": "/Users/vicklercharles/Desktop/smart-contracts/blockchain-developer-bootcamp-final-project/contracts/RealEstatePropertyFactory.sol",
  "compiler": {
    "name": "solc",
    "version": "0.8.9+commit.e5eed63a.Emscripten.clang"
  },
  "schemaVersion": "3.4.3",
  "updatedAt": "2021-11-18T20:42:04.468Z",
  "networkType": "ethereum",
  "devdoc": {
    "kind": "dev",
    "methods": {
      "getProperties()": {
        "details": "get all properties for rental"
      },
      "getPropertyByTenant(address)": {
        "details": "get single property by address"
      },
      "rentProperty(address,uint256)": {
        "details": "rental a property"
      }
    },
    "version": 1
  },
  "userdoc": {
    "kind": "user",
    "methods": {},
    "version": 1
  }
}