{
  "contractName": "RealEstateProperty",
  "abi": [
    {
      "inputs": [
        {
          "internalType": "address",
          "name": "_owner",
          "type": "address"
        }
      ],
      "payable": false,
      "stateMutability": "nonpayable",
      "type": "constructor"
    },
    {
      "constant": true,
      "inputs": [],
      "name": "owner",
      "outputs": [
        {
          "internalType": "address",
          "name": "",
          "type": "address"
        }
      ],
      "payable": false,
      "stateMutability": "view",
      "type": "function"
    },
    {
      "constant": true,
      "inputs": [],
      "name": "getProperties",
      "outputs": [
        {
          "components": [
            {
              "internalType": "string",
              "name": "title",
              "type": "string"
            },
            {
              "internalType": "string",
              "name": "description",
              "type": "string"
            },
            {
              "internalType": "uint256",
              "name": "montlyPrice",
              "type": "uint256"
            },
            {
              "internalType": "uint256",
              "name": "deposit",
              "type": "uint256"
            },
            {
              "internalType": "address payable",
              "name": "currentTenant",
              "type": "address"
            }
          ],
          "internalType": "struct SharedStructs.Property[]",
          "name": "",
          "type": "tuple[]"
        }
      ],
      "payable": false,
      "stateMutability": "view",
      "type": "function"
    },
    {
      "constant": false,
      "inputs": [
        {
          "internalType": "address",
          "name": "_propertyOwner",
          "type": "address"
        },
        {
          "internalType": "string",
          "name": "_title",
          "type": "string"
        },
        {
          "internalType": "string",
          "name": "_description",
          "type": "string"
        },
        {
          "internalType": "uint256",
          "name": "_montlyPrice",
          "type": "uint256"
        },
        {
          "internalType": "uint256",
          "name": "_deposit",
          "type": "uint256"
        }
      ],
      "name": "createProperty",
      "outputs": [],
      "payable": false,
      "stateMutability": "nonpayable",
      "type": "function"
    }
  ],
  "bytecode": "0x608060405234801561001057600080fd5b50604051610a0c380380610a0c8339818101604052610032919081019061008d565b806000806101000a81548173ffffffffffffffffffffffffffffffffffffffff021916908373ffffffffffffffffffffffffffffffffffffffff160217905550506100ff565b600081519050610087816100e8565b92915050565b60006020828403121561009f57600080fd5b60006100ad84828501610078565b91505092915050565b60006100c1826100c8565b9050919050565b600073ffffffffffffffffffffffffffffffffffffffff82169050919050565b6100f1816100b6565b81146100fc57600080fd5b50565b6108fe8061010e6000396000f3fe608060405234801561001057600080fd5b50600436106100415760003560e01c806323dd40da146100465780638da5cb5b14610062578063ec0cfd0b14610080575b600080fd5b610060600480360361005b91908101906104ee565b61009e565b005b61006a610117565b6040516100779190610701565b60405180910390f35b61008861013c565b604051610095919061071c565b60405180910390f35b6000600160008154809291906001019190505590506000600260008381526020019081526020016000209050858160000190805190602001906100e2929190610386565b50848160010190805190602001906100fb929190610386565b5083816002018190555082816003018190555050505050505050565b6000809054906101000a900473ffffffffffffffffffffffffffffffffffffffff1681565b60608060015460405190808252806020026020018201604052801561017b57816020015b610168610406565b8152602001906001900390816101605790505b50905060008090505b60015481101561037e57600260008281526020019081526020016000206040518060a0016040529081600082018054600181600116156101000203166002900480601f0160208091040260200160405190810160405280929190818152602001828054600181600116156101000203166002900480156102455780601f1061021a57610100808354040283529160200191610245565b820191906000526020600020905b81548152906001019060200180831161022857829003601f168201915b50505050508152602001600182018054600181600116156101000203166002900480601f0160208091040260200160405190810160405280929190818152602001828054600181600116156101000203166002900480156102e75780601f106102bc576101008083540402835291602001916102e7565b820191906000526020600020905b8154815290600101906020018083116102ca57829003601f168201915b5050505050815260200160028201548152602001600382015481526020016004820160009054906101000a900473ffffffffffffffffffffffffffffffffffffffff1673ffffffffffffffffffffffffffffffffffffffff1673ffffffffffffffffffffffffffffffffffffffff168152505082828151811061036657fe5b60200260200101819052508080600101915050610184565b508091505090565b828054600181600116156101000203166002900490600052602060002090601f016020900481019282601f106103c757805160ff19168380011785556103f5565b828001600101855582156103f5579182015b828111156103f45782518255916020019190600101906103d9565b5b509050610402919061044b565b5090565b6040518060a0016040528060608152602001606081526020016000815260200160008152602001600073ffffffffffffffffffffffffffffffffffffffff1681525090565b61046d91905b80821115610469576000816000905550600101610451565b5090565b90565b60008135905061047f8161088d565b92915050565b600082601f83011261049657600080fd5b81356104a96104a48261076b565b61073e565b915080825260208301602083018583830111156104c557600080fd5b6104d083828461083a565b50505092915050565b6000813590506104e8816108a4565b92915050565b600080600080600060a0868803121561050657600080fd5b600061051488828901610470565b955050602086013567ffffffffffffffff81111561053157600080fd5b61053d88828901610485565b945050604086013567ffffffffffffffff81111561055a57600080fd5b61056688828901610485565b9350506060610577888289016104d9565b9250506080610588888289016104d9565b9150509295509295909350565b60006105a18383610675565b905092915050565b6105b2816107fe565b82525050565b6105c1816107ec565b82525050565b60006105d2826107a7565b6105dc81856107ca565b9350836020820285016105ee85610797565b8060005b8581101561062a578484038952815161060b8582610595565b9450610616836107bd565b925060208a019950506001810190506105f2565b50829750879550505050505092915050565b6000610647826107b2565b61065181856107db565b9350610661818560208601610849565b61066a8161087c565b840191505092915050565b600060a0830160008301518482036000860152610692828261063c565b915050602083015184820360208601526106ac828261063c565b91505060408301516106c160408601826106f2565b5060608301516106d460608601826106f2565b5060808301516106e760808601826105a9565b508091505092915050565b6106fb81610830565b82525050565b600060208201905061071660008301846105b8565b92915050565b6000602082019050818103600083015261073681846105c7565b905092915050565b6000604051905081810181811067ffffffffffffffff8211171561076157600080fd5b8060405250919050565b600067ffffffffffffffff82111561078257600080fd5b601f19601f8301169050602081019050919050565b6000819050602082019050919050565b600081519050919050565b600081519050919050565b6000602082019050919050565b600082825260208201905092915050565b600082825260208201905092915050565b60006107f782610810565b9050919050565b600061080982610810565b9050919050565b600073ffffffffffffffffffffffffffffffffffffffff82169050919050565b6000819050919050565b82818337600083830152505050565b60005b8381101561086757808201518184015260208101905061084c565b83811115610876576000848401525b50505050565b6000601f19601f8301169050919050565b610896816107ec565b81146108a157600080fd5b50565b6108ad81610830565b81146108b857600080fd5b5056fea365627a7a723158204aedd7197c7588d7150b76177e3fe800df1b20e26c81f1c61db21e1da308e33d6c6578706572696d656e74616cf564736f6c63430005100040",
  "source": "// SPDX-License-Identifier: MIT\npragma experimental ABIEncoderV2;\npragma solidity >=0.4.22 <0.9.0;\n\nlibrary SharedStructs {\n    struct Property {\n        string title;\n        string description;\n        uint256 montlyPrice;\n        uint256 deposit;\n        address payable currentTenant;\n    }\n}\n\ncontract RealEstateProperty {\n    address public owner;\n\n    uint256 numProperties;\n    mapping(uint256 => SharedStructs.Property) properties;\n\n    constructor(address _owner) public {\n        owner = _owner;\n    }\n\n    modifier onlyOwner(address _owner) {\n        require(owner == _owner, \"Not authorized.\");\n        _;\n    }\n\n    function getProperties()\n        public\n        view\n        returns (SharedStructs.Property[] memory)\n    {\n        SharedStructs.Property[]\n            memory memoryArray = new SharedStructs.Property[](numProperties);\n        for (uint256 i = 0; i < numProperties; i++) {\n            memoryArray[i] = properties[i];\n        }\n        return memoryArray;\n    }\n\n    function createProperty(\n        address _propertyOwner,\n        string memory _title,\n        string memory _description,\n        uint256 _montlyPrice,\n        uint256 _deposit\n    ) public {\n        uint256 propertyID = numProperties++;\n        SharedStructs.Property storage p = properties[propertyID];\n        p.title = _title;\n        p.description = _description;\n        p.montlyPrice = _montlyPrice;\n        p.deposit = _deposit;\n    }\n}\n\ncontract RealEstatePropertyFactory {\n    mapping(address => RealEstateProperty) public properties;\n    uint256 private numProperties;\n    struct Property {\n        string title;\n        string description;\n        uint256 montlyPrice;\n        uint256 deposit;\n        address payable currentTenant;\n    }\n\n    function getRealEstateProperty(address _propertyOwner)\n        public\n        view\n        returns (SharedStructs.Property[] memory)\n    {\n        return properties[_propertyOwner].getProperties();\n    }\n\n    // Owners create a real state property\n    function createRealEstateProperty(\n        string memory _title,\n        string memory _description,\n        uint256 _amount,\n        uint256 _deposit\n    ) public {\n        RealEstateProperty property = new RealEstateProperty(msg.sender);\n        properties[msg.sender] = property;\n        numProperties++;\n        property.createProperty(\n            msg.sender,\n            _title,\n            _description,\n            _amount,\n            _deposit\n        );\n    }\n}\n",
  "sourcePath": "/Users/vicklercharles/Desktop/smart-contracts/blockchain-developer-bootcamp-final-project/contracts/RealEstatePropertyFactory.sol",
  "compiler": {
    "name": "solc",
    "version": "0.5.16+commit.9c3226ce.Emscripten.clang"
  },
  "schemaVersion": "3.4.3",
  "updatedAt": "2021-11-07T19:32:00.693Z",
  "devdoc": {
    "methods": {}
  },
  "userdoc": {
    "methods": {}
  }
}