{
  "contractName": "RealEstatePropertyFactory",
  "abi": [
    {
      "inputs": [
        {
          "internalType": "uint256",
          "name": "",
          "type": "uint256"
        }
      ],
      "name": "numOfAddress",
      "outputs": [
        {
          "internalType": "address",
          "name": "",
          "type": "address"
        }
      ],
      "stateMutability": "view",
      "type": "function",
      "constant": true
    },
    {
      "inputs": [
        {
          "internalType": "address",
          "name": "",
          "type": "address"
        }
      ],
      "name": "properties",
      "outputs": [
        {
          "internalType": "address payable",
          "name": "owner",
          "type": "address"
        },
        {
          "internalType": "uint256",
          "name": "numOfProperties",
          "type": "uint256"
        }
      ],
      "stateMutability": "view",
      "type": "function",
      "constant": true
    },
    {
      "inputs": [
        {
          "internalType": "address",
          "name": "",
          "type": "address"
        }
      ],
      "name": "tenant",
      "outputs": [
        {
          "internalType": "uint256",
          "name": "id",
          "type": "uint256"
        },
        {
          "internalType": "string",
          "name": "title",
          "type": "string"
        },
        {
          "internalType": "string",
          "name": "description",
          "type": "string"
        },
        {
          "internalType": "uint256",
          "name": "montlyPrice",
          "type": "uint256"
        },
        {
          "internalType": "uint256",
          "name": "depositAmount",
          "type": "uint256"
        },
        {
          "internalType": "uint256",
          "name": "depositPrice",
          "type": "uint256"
        },
        {
          "internalType": "address",
          "name": "owner",
          "type": "address"
        },
        {
          "internalType": "address payable",
          "name": "tenant",
          "type": "address"
        },
        {
          "internalType": "bool",
          "name": "available",
          "type": "bool"
        }
      ],
      "stateMutability": "view",
      "type": "function",
      "constant": true
    },
    {
      "inputs": [],
      "name": "getProperties",
      "outputs": [
        {
          "components": [
            {
              "internalType": "address payable",
              "name": "owner",
              "type": "address"
            },
            {
              "internalType": "uint256",
              "name": "numOfProperties",
              "type": "uint256"
            },
            {
              "components": [
                {
                  "internalType": "uint256",
                  "name": "id",
                  "type": "uint256"
                },
                {
                  "internalType": "string",
                  "name": "title",
                  "type": "string"
                },
                {
                  "internalType": "string",
                  "name": "description",
                  "type": "string"
                },
                {
                  "internalType": "uint256",
                  "name": "montlyPrice",
                  "type": "uint256"
                },
                {
                  "internalType": "uint256",
                  "name": "depositAmount",
                  "type": "uint256"
                },
                {
                  "internalType": "uint256",
                  "name": "depositPrice",
                  "type": "uint256"
                },
                {
                  "internalType": "address",
                  "name": "owner",
                  "type": "address"
                },
                {
                  "internalType": "address payable",
                  "name": "tenant",
                  "type": "address"
                },
                {
                  "internalType": "bool",
                  "name": "available",
                  "type": "bool"
                }
              ],
              "internalType": "struct RealEstatePropertyFactory.Property[]",
              "name": "properties",
              "type": "tuple[]"
            }
          ],
          "internalType": "struct RealEstatePropertyFactory.RealEstateProperty[]",
          "name": "",
          "type": "tuple[]"
        }
      ],
      "stateMutability": "view",
      "type": "function",
      "constant": true
    },
    {
      "inputs": [
        {
          "internalType": "address",
          "name": "propertyOwner",
          "type": "address"
        },
        {
          "internalType": "uint256",
          "name": "propertyId",
          "type": "uint256"
        }
      ],
      "name": "rentProperty",
      "outputs": [],
      "stateMutability": "payable",
      "type": "function",
      "payable": true
    },
    {
      "inputs": [
        {
          "internalType": "address",
          "name": "_address",
          "type": "address"
        }
      ],
      "name": "getPropertyByTenant",
      "outputs": [
        {
          "internalType": "string",
          "name": "",
          "type": "string"
        },
        {
          "internalType": "string",
          "name": "",
          "type": "string"
        },
        {
          "internalType": "uint256",
          "name": "",
          "type": "uint256"
        },
        {
          "internalType": "address",
          "name": "",
          "type": "address"
        },
        {
          "internalType": "address",
          "name": "",
          "type": "address"
        },
        {
          "internalType": "bool",
          "name": "",
          "type": "bool"
        }
      ],
      "stateMutability": "view",
      "type": "function",
      "constant": true
    },
    {
      "inputs": [
        {
          "internalType": "address",
          "name": "_address",
          "type": "address"
        }
      ],
      "name": "getBalanceOf",
      "outputs": [
        {
          "internalType": "uint256",
          "name": "",
          "type": "uint256"
        }
      ],
      "stateMutability": "view",
      "type": "function",
      "constant": true
    },
    {
      "inputs": [
        {
          "internalType": "string",
          "name": "_title",
          "type": "string"
        },
        {
          "internalType": "string",
          "name": "_description",
          "type": "string"
        },
        {
          "internalType": "uint256",
          "name": "_amount",
          "type": "uint256"
        },
        {
          "internalType": "uint256",
          "name": "_deposit",
          "type": "uint256"
        }
      ],
      "name": "createProperty",
      "outputs": [],
      "stateMutability": "nonpayable",
      "type": "function"
    }
  ],
  "bytecode": "0x608060405234801561001057600080fd5b506122a3806100206000396000f3fe60806040526004361061007b5760003560e01c8063751eaa0a1161004e578063751eaa0a146101665780639b96eece14610182578063ec0cfd0b146101bf578063f9015a7d146101ea5761007b565b80631a974aa9146100805780631d26538f146100c25780631e6efb3b146100eb57806325ec77d714610128575b600080fd5b34801561008c57600080fd5b506100a760048036038101906100a29190611729565b61022f565b6040516100b996959493929190611832565b60405180910390f35b3480156100ce57600080fd5b506100e960048036038101906100e49190611a02565b610595565b005b3480156100f757600080fd5b50610112600480360381019061010d9190611aa1565b61088e565b60405161011f9190611ace565b60405180910390f35b34801561013457600080fd5b5061014f600480360381019061014a9190611729565b6108cd565b60405161015d929190611b0a565b60405180910390f35b610180600480360381019061017b9190611b33565b610911565b005b34801561018e57600080fd5b506101a960048036038101906101a49190611729565b610dc3565b6040516101b69190611b73565b60405180910390f35b3480156101cb57600080fd5b506101d4610de4565b6040516101e19190611eb4565b60405180910390f35b3480156101f657600080fd5b50610211600480360381019061020c9190611729565b6111ed565b60405161022699989796959493929190611ed6565b60405180910390f35b60608060008060008061024c87600161139890919063ffffffff16565b61028b576040517f08c379a000000000000000000000000000000000000000000000000000000000815260040161028290611fbd565b60405180910390fd5b600360008873ffffffffffffffffffffffffffffffffffffffff1673ffffffffffffffffffffffffffffffffffffffff168152602001908152602001600020600101600360008973ffffffffffffffffffffffffffffffffffffffff1673ffffffffffffffffffffffffffffffffffffffff168152602001908152602001600020600201600360008a73ffffffffffffffffffffffffffffffffffffffff1673ffffffffffffffffffffffffffffffffffffffff16815260200190815260200160002060050154600360008b73ffffffffffffffffffffffffffffffffffffffff1673ffffffffffffffffffffffffffffffffffffffff16815260200190815260200160002060070160009054906101000a900473ffffffffffffffffffffffffffffffffffffffff16600360008c73ffffffffffffffffffffffffffffffffffffffff1673ffffffffffffffffffffffffffffffffffffffff16815260200190815260200160002060060160009054906101000a900473ffffffffffffffffffffffffffffffffffffffff16600360008d73ffffffffffffffffffffffffffffffffffffffff1673ffffffffffffffffffffffffffffffffffffffff16815260200190815260200160002060070160149054906101000a900460ff168580546104749061200c565b80601f01602080910402602001604051908101604052809291908181526020018280546104a09061200c565b80156104ed5780601f106104c2576101008083540402835291602001916104ed565b820191906000526020600020905b8154815290600101906020018083116104d057829003601f168201915b505050505095508480546105009061200c565b80601f016020809104026020016040519081016040528092919081815260200182805461052c9061200c565b80156105795780601f1061054e57610100808354040283529160200191610579565b820191906000526020600020905b81548152906001019060200180831161055c57829003601f168201915b5050505050945095509550955095509550955091939550919395565b61059d6114d6565b6000600260003373ffffffffffffffffffffffffffffffffffffffff1673ffffffffffffffffffffffffffffffffffffffff168152602001908152602001600020905085826020018190525084826040018190525083826060018181525050828260a0018181525050600182610100019015159081151581525050338260c0019073ffffffffffffffffffffffffffffffffffffffff16908173ffffffffffffffffffffffffffffffffffffffff16815250508060010160008154809291906106659061206d565b91905055826000018181525050806002018290806001815401808255809150506001900390600052602060002090600802016000909190919091506000820151816000015560208201518160010190805190602001906106c6929190611550565b5060408201518160020190805190602001906106e3929190611550565b50606082015181600301556080820151816004015560a0820151816005015560c08201518160060160006101000a81548173ffffffffffffffffffffffffffffffffffffffff021916908373ffffffffffffffffffffffffffffffffffffffff16021790555060e08201518160070160006101000a81548173ffffffffffffffffffffffffffffffffffffffff021916908373ffffffffffffffffffffffffffffffffffffffff1602179055506101008201518160070160146101000a81548160ff02191690831515021790555050506107c733600061139890919063ffffffff16565b61088657338160000160006101000a81548173ffffffffffffffffffffffffffffffffffffffff021916908373ffffffffffffffffffffffffffffffffffffffff1602179055506004339080600181540180825580915050600190039060005260206000200160009091909190916101000a81548173ffffffffffffffffffffffffffffffffffffffff021916908373ffffffffffffffffffffffffffffffffffffffff16021790555061088533600061142a90919063ffffffff16565b5b505050505050565b6004818154811061089e57600080fd5b906000526020600020016000915054906101000a900473ffffffffffffffffffffffffffffffffffffffff1681565b60026020528060005260406000206000915090508060000160009054906101000a900473ffffffffffffffffffffffffffffffffffffffff16908060010154905082565b6000600260008473ffffffffffffffffffffffffffffffffffffffff1673ffffffffffffffffffffffffffffffffffffffff1681526020019081526020016000209050600081600201838154811061096c5761096b6120b6565b5b90600052602060002090600802016003015490506000826002018481548110610998576109976120b6565b5b90600052602060002090600802016005015490506000349050600083826109bf91906120e5565b9050600081836109cf91906120e5565b9050600084866109df9190612119565b9050348114610a23576040517f08c379a0000000000000000000000000000000000000000000000000000000008152600401610a1a906121bb565b60405180910390fd5b60011515876002018981548110610a3d57610a3c6120b6565b5b906000526020600020906008020160070160149054906101000a900460ff16151514610a9e576040517f08c379a0000000000000000000000000000000000000000000000000000000008152600401610a959061224d565b60405180910390fd5b33876002018981548110610ab557610ab46120b6565b5b906000526020600020906008020160070160006101000a81548173ffffffffffffffffffffffffffffffffffffffff021916908373ffffffffffffffffffffffffffffffffffffffff1602179055506000876002018981548110610b1c57610b1b6120b6565b5b906000526020600020906008020160070160146101000a81548160ff02191690831515021790555082876002018981548110610b5b57610b5a6120b6565b5b906000526020600020906008020160040181905550866002018881548110610b8657610b856120b6565b5b9060005260206000209060080201600360003373ffffffffffffffffffffffffffffffffffffffff1673ffffffffffffffffffffffffffffffffffffffff168152602001908152602001600020600082015481600001556001820181600101908054610bf19061200c565b610bfc9291906115d6565b506002820181600201908054610c119061200c565b610c1c9291906115d6565b506003820154816003015560048201548160040155600582015481600501556006820160009054906101000a900473ffffffffffffffffffffffffffffffffffffffff168160060160006101000a81548173ffffffffffffffffffffffffffffffffffffffff021916908373ffffffffffffffffffffffffffffffffffffffff1602179055506007820160009054906101000a900473ffffffffffffffffffffffffffffffffffffffff168160070160006101000a81548173ffffffffffffffffffffffffffffffffffffffff021916908373ffffffffffffffffffffffffffffffffffffffff1602179055506007820160149054906101000a900460ff168160070160146101000a81548160ff0219169083151502179055509050508660000160009054906101000a900473ffffffffffffffffffffffffffffffffffffffff1673ffffffffffffffffffffffffffffffffffffffff166108fc839081150290604051600060405180830381858888f19350505050158015610da3573d6000803e3d6000fd5b50610db833600161142a90919063ffffffff16565b505050505050505050565b60008173ffffffffffffffffffffffffffffffffffffffff16319050919050565b606060006004805490509050600060048054905067ffffffffffffffff811115610e1157610e106118ab565b5b604051908082528060200260200182016040528015610e4a57816020015b610e37611663565b815260200190600190039081610e2f5790505b50905060005b828110156111e4576002600060048381548110610e7057610e6f6120b6565b5b9060005260206000200160009054906101000a900473ffffffffffffffffffffffffffffffffffffffff1673ffffffffffffffffffffffffffffffffffffffff1673ffffffffffffffffffffffffffffffffffffffff1681526020019081526020016000206040518060600160405290816000820160009054906101000a900473ffffffffffffffffffffffffffffffffffffffff1673ffffffffffffffffffffffffffffffffffffffff1673ffffffffffffffffffffffffffffffffffffffff1681526020016001820154815260200160028201805480602002602001604051908101604052809291908181526020016000905b828210156111ab57838290600052602060002090600802016040518061012001604052908160008201548152602001600182018054610fa39061200c565b80601f0160208091040260200160405190810160405280929190818152602001828054610fcf9061200c565b801561101c5780601f10610ff15761010080835404028352916020019161101c565b820191906000526020600020905b815481529060010190602001808311610fff57829003601f168201915b505050505081526020016002820180546110359061200c565b80601f01602080910402602001604051908101604052809291908181526020018280546110619061200c565b80156110ae5780601f10611083576101008083540402835291602001916110ae565b820191906000526020600020905b81548152906001019060200180831161109157829003601f168201915b505050505081526020016003820154815260200160048201548152602001600582015481526020016006820160009054906101000a900473ffffffffffffffffffffffffffffffffffffffff1673ffffffffffffffffffffffffffffffffffffffff1673ffffffffffffffffffffffffffffffffffffffff1681526020016007820160009054906101000a900473ffffffffffffffffffffffffffffffffffffffff1673ffffffffffffffffffffffffffffffffffffffff1673ffffffffffffffffffffffffffffffffffffffff1681526020016007820160149054906101000a900460ff16151515158152505081526020019060010190610f65565b50505050815250508282815181106111c6576111c56120b6565b5b602002602001018190525080806111dc9061206d565b915050610e50565b50809250505090565b60036020528060005260406000206000915090508060000154908060010180546112169061200c565b80601f01602080910402602001604051908101604052809291908181526020018280546112429061200c565b801561128f5780601f106112645761010080835404028352916020019161128f565b820191906000526020600020905b81548152906001019060200180831161127257829003601f168201915b5050505050908060020180546112a49061200c565b80601f01602080910402602001604051908101604052809291908181526020018280546112d09061200c565b801561131d5780601f106112f25761010080835404028352916020019161131d565b820191906000526020600020905b81548152906001019060200180831161130057829003601f168201915b5050505050908060030154908060040154908060050154908060060160009054906101000a900473ffffffffffffffffffffffffffffffffffffffff16908060070160009054906101000a900473ffffffffffffffffffffffffffffffffffffffff16908060070160149054906101000a900460ff16905089565b60008073ffffffffffffffffffffffffffffffffffffffff168273ffffffffffffffffffffffffffffffffffffffff1614156113d357600080fd5b8260000160008373ffffffffffffffffffffffffffffffffffffffff1673ffffffffffffffffffffffffffffffffffffffff16815260200190815260200160002060009054906101000a900460ff16905092915050565b600073ffffffffffffffffffffffffffffffffffffffff168173ffffffffffffffffffffffffffffffffffffffff16141561146457600080fd5b61146e8282611398565b1561147857600080fd5b60018260000160008373ffffffffffffffffffffffffffffffffffffffff1673ffffffffffffffffffffffffffffffffffffffff16815260200190815260200160002060006101000a81548160ff0219169083151502179055505050565b604051806101200160405280600081526020016060815260200160608152602001600081526020016000815260200160008152602001600073ffffffffffffffffffffffffffffffffffffffff168152602001600073ffffffffffffffffffffffffffffffffffffffff1681526020016000151581525090565b82805461155c9061200c565b90600052602060002090601f01602090048101928261157e57600085556115c5565b82601f1061159757805160ff19168380011785556115c5565b828001600101855582156115c5579182015b828111156115c45782518255916020019190600101906115a9565b5b5090506115d2919061169a565b5090565b8280546115e29061200c565b90600052602060002090601f0160209004810192826116045760008555611652565b82601f106116155780548555611652565b8280016001018555821561165257600052602060002091601f016020900482015b82811115611651578254825591600101919060010190611636565b5b50905061165f919061169a565b5090565b6040518060600160405280600073ffffffffffffffffffffffffffffffffffffffff16815260200160008152602001606081525090565b5b808211156116b357600081600090555060010161169b565b5090565b6000604051905090565b600080fd5b600080fd5b600073ffffffffffffffffffffffffffffffffffffffff82169050919050565b60006116f6826116cb565b9050919050565b611706816116eb565b811461171157600080fd5b50565b600081359050611723816116fd565b92915050565b60006020828403121561173f5761173e6116c1565b5b600061174d84828501611714565b91505092915050565b600081519050919050565b600082825260208201905092915050565b60005b83811015611790578082015181840152602081019050611775565b8381111561179f576000848401525b50505050565b6000601f19601f8301169050919050565b60006117c182611756565b6117cb8185611761565b93506117db818560208601611772565b6117e4816117a5565b840191505092915050565b6000819050919050565b611802816117ef565b82525050565b611811816116eb565b82525050565b60008115159050919050565b61182c81611817565b82525050565b600060c082019050818103600083015261184c81896117b6565b9050818103602083015261186081886117b6565b905061186f60408301876117f9565b61187c6060830186611808565b6118896080830185611808565b61189660a0830184611823565b979650505050505050565b600080fd5b600080fd5b7f4e487b7100000000000000000000000000000000000000000000000000000000600052604160045260246000fd5b6118e3826117a5565b810181811067ffffffffffffffff82111715611902576119016118ab565b5b80604052505050565b60006119156116b7565b905061192182826118da565b919050565b600067ffffffffffffffff821115611941576119406118ab565b5b61194a826117a5565b9050602081019050919050565b82818337600083830152505050565b600061197961197484611926565b61190b565b905082815260208101848484011115611995576119946118a6565b5b6119a0848285611957565b509392505050565b600082601f8301126119bd576119bc6118a1565b5b81356119cd848260208601611966565b91505092915050565b6119df816117ef565b81146119ea57600080fd5b50565b6000813590506119fc816119d6565b92915050565b60008060008060808587031215611a1c57611a1b6116c1565b5b600085013567ffffffffffffffff811115611a3a57611a396116c6565b5b611a46878288016119a8565b945050602085013567ffffffffffffffff811115611a6757611a666116c6565b5b611a73878288016119a8565b9350506040611a84878288016119ed565b9250506060611a95878288016119ed565b91505092959194509250565b600060208284031215611ab757611ab66116c1565b5b6000611ac5848285016119ed565b91505092915050565b6000602082019050611ae36000830184611808565b92915050565b6000611af4826116cb565b9050919050565b611b0481611ae9565b82525050565b6000604082019050611b1f6000830185611afb565b611b2c60208301846117f9565b9392505050565b60008060408385031215611b4a57611b496116c1565b5b6000611b5885828601611714565b9250506020611b69858286016119ed565b9150509250929050565b6000602082019050611b8860008301846117f9565b92915050565b600081519050919050565b600082825260208201905092915050565b6000819050602082019050919050565b611bc381611ae9565b82525050565b611bd2816117ef565b82525050565b600081519050919050565b600082825260208201905092915050565b6000819050602082019050919050565b600082825260208201905092915050565b6000611c2082611756565b611c2a8185611c04565b9350611c3a818560208601611772565b611c43816117a5565b840191505092915050565b611c57816116eb565b82525050565b611c6681611817565b82525050565b600061012083016000830151611c856000860182611bc9565b5060208301518482036020860152611c9d8282611c15565b91505060408301518482036040860152611cb78282611c15565b9150506060830151611ccc6060860182611bc9565b506080830151611cdf6080860182611bc9565b5060a0830151611cf260a0860182611bc9565b5060c0830151611d0560c0860182611c4e565b5060e0830151611d1860e0860182611bba565b50610100830151611d2d610100860182611c5d565b508091505092915050565b6000611d448383611c6c565b905092915050565b6000602082019050919050565b6000611d6482611bd8565b611d6e8185611be3565b935083602082028501611d8085611bf4565b8060005b85811015611dbc5784840389528151611d9d8582611d38565b9450611da883611d4c565b925060208a01995050600181019050611d84565b50829750879550505050505092915050565b6000606083016000830151611de66000860182611bba565b506020830151611df96020860182611bc9565b5060408301518482036040860152611e118282611d59565b9150508091505092915050565b6000611e2a8383611dce565b905092915050565b6000602082019050919050565b6000611e4a82611b8e565b611e548185611b99565b935083602082028501611e6685611baa565b8060005b85811015611ea25784840389528151611e838582611e1e565b9450611e8e83611e32565b925060208a01995050600181019050611e6a565b50829750879550505050505092915050565b60006020820190508181036000830152611ece8184611e3f565b905092915050565b600061012082019050611eec600083018c6117f9565b8181036020830152611efe818b6117b6565b90508181036040830152611f12818a6117b6565b9050611f2160608301896117f9565b611f2e60808301886117f9565b611f3b60a08301876117f9565b611f4860c0830186611808565b611f5560e0830185611afb565b611f63610100830184611823565b9a9950505050505050505050565b7f4e6f74206861732070726f70657274792072656e746564000000000000000000600082015250565b6000611fa7601783611761565b9150611fb282611f71565b602082019050919050565b60006020820190508181036000830152611fd681611f9a565b9050919050565b7f4e487b7100000000000000000000000000000000000000000000000000000000600052602260045260246000fd5b6000600282049050600182168061202457607f821691505b6020821081141561203857612037611fdd565b5b50919050565b7f4e487b7100000000000000000000000000000000000000000000000000000000600052601160045260246000fd5b6000612078826117ef565b91507fffffffffffffffffffffffffffffffffffffffffffffffffffffffffffffffff8214156120ab576120aa61203e565b5b600182019050919050565b7f4e487b7100000000000000000000000000000000000000000000000000000000600052603260045260246000fd5b60006120f0826117ef565b91506120fb836117ef565b92508282101561210e5761210d61203e565b5b828203905092915050565b6000612124826117ef565b915061212f836117ef565b9250827fffffffffffffffffffffffffffffffffffffffffffffffffffffffffffffffff038211156121645761216361203e565b5b828201905092915050565b7f596f7520646f6e2774206861766520656e6f7567682065746865720000000000600082015250565b60006121a5601b83611761565b91506121b08261216f565b602082019050919050565b600060208201905081810360008301526121d481612198565b9050919050565b7f546869732070726f7065727479206973206e6f7420617661696c61626c65206660008201527f6f722072656e7400000000000000000000000000000000000000000000000000602082015250565b6000612237602783611761565b9150612242826121db565b604082019050919050565b600060208201905081810360008301526122668161222a565b905091905056fea2646970667358221220a77881712aab339b9fd91a61923bffbe93114c2e382bff65c8f0b0caed1cde7f64736f6c63430008090033",
  "immutableReferences": {},
  "source": "// SPDX-License-Identifier: MIT\npragma solidity >=0.4.22 <0.9.0;\n\nlibrary Roles {\n  struct Role {\n    mapping (address => bool) bearer;\n  }\n\n  /**\n   * @dev give an account access to this role\n   */\n  function add(Role storage role, address account) internal {\n    require(account != address(0));\n    require(!has(role, account));\n    role.bearer[account] = true;\n  }\n\n  /**\n   * @dev remove an account's access to this role\n   */\n  function remove(Role storage role, address account) internal {\n    require(account != address(0));\n    require(has(role, account));\n\n    role.bearer[account] = false;\n  }\n\n  /**\n   * @dev check if an account has this role\n   * @return bool\n   */\n  function has(Role storage role, address account)\n    internal\n    view\n    returns (bool)\n  {\n    require(account != address(0));\n    return role.bearer[account];\n  }\n}\n\ncontract RealEstatePropertyFactory {\n    using Roles for Roles.Role;\n\n    // state variables\n    Roles.Role private _propertyOwners;\n    Roles.Role private _tenant;\n    \n    modifier isPropertyOwner() {\n        require(_propertyOwners.has(msg.sender), \"Not propertyowner\");\n        _;\n    }\n    \n    modifier hasProperty() {\n        require(!_propertyOwners.has(msg.sender), \"has property\");\n        _;\n    }\n    \n    modifier onlyTenant() {\n        require(_tenant.has(msg.sender), \"Not owner\");\n        _;\n    }\n    \n    modifier isTenant() {\n        require(_tenant.has(msg.sender) == false, \"Already has a Property\");\n        _;\n    }\n    \n    mapping(address => RealEstateProperty) public properties;\n    mapping(address => Property) public tenant;\n    address[] public numOfAddress;\n\n    struct RealEstateProperty {\n        address payable owner;\n        uint256 numOfProperties;\n        Property[] properties;\n    }\n\n    struct Property {\n        uint id;\n        string title;\n        string description;\n        uint256 montlyPrice;\n        uint256 depositAmount;\n        uint256 depositPrice;\n        address owner;\n        address payable tenant;\n        bool available;\n    }\n    \n     /**\n     * @dev get all properties for rental\n    */\n    function getProperties() public view returns (RealEstateProperty[] memory) {\n        uint256 numLength = numOfAddress.length;\n        RealEstateProperty[] memory memoryArray = new RealEstateProperty[](\n            numOfAddress.length\n        );\n        for (uint256 i = 0; i < numLength; i++) {\n            memoryArray[i] = properties[numOfAddress[i]];\n        }\n        return memoryArray;\n    }\n\n     /**\n     * @dev rental a property\n    */\n    function rentProperty(address propertyOwner, uint propertyId) public payable  {\n        RealEstateProperty storage property = properties[propertyOwner];\n        uint montlyPrice = property.properties[propertyId].montlyPrice;\n        uint depositPrice = property.properties[propertyId].depositPrice;\n        uint sum = msg.value;\n        uint deposit = sum - montlyPrice;\n        uint toPay = sum - deposit;\n        uint toCheck = montlyPrice + depositPrice;\n        require(toCheck == msg.value, \"You don't have enough ether\");\n        require(property.properties[propertyId].available == true, \"This property is not available for rent\");\n        property.properties[propertyId].tenant = payable(msg.sender); \n        property.properties[propertyId].available = false;\n        property.properties[propertyId].depositAmount = deposit;\n        tenant[msg.sender] = property.properties[propertyId];\n        property.owner.transfer(toPay);\n        _tenant.add(msg.sender);\n    }\n    \n    /**\n     * @dev get single property by address\n    */\n    function getPropertyByTenant(address _address)\n        public\n        view\n        returns (\n            string memory,\n            string memory,\n            uint256,\n            address,\n            address,\n            bool\n            \n        )\n    {\n        require(_tenant.has(_address), \"Not has property rented\");\n        return (\n            tenant[_address].title,\n            tenant[_address].description,\n            tenant[_address].depositPrice,\n            tenant[_address].tenant,\n            tenant[_address].owner,\n            tenant[_address].available\n            \n        );\n    }\n    \n    function getBalanceOf(address _address) public view returns(uint)  {\n      return _address.balance;        \n    }\n\n    function createProperty(\n        string memory _title,\n        string memory _description,\n        uint256 _amount,\n        uint256 _deposit\n    ) public {\n        Property memory property;\n        RealEstateProperty storage p = properties[msg.sender];\n        property.title = _title;\n        property.description = _description;\n        property.montlyPrice = _amount;\n        property.depositPrice = _deposit;\n        property.available = true;\n        property.owner = msg.sender;\n        property.id = p.numOfProperties++;\n        p.properties.push(property);\n       \n       if(!_propertyOwners.has(msg.sender)) {\n          p.owner = payable(msg.sender);\n          numOfAddress.push(msg.sender);\n         _propertyOwners.add(msg.sender);\n       }\n    }\n}\n",
  "sourcePath": "/Users/vicklercharles/Desktop/smart-contracts/blockchain-developer-bootcamp-final-project/contracts/RealEstatePropertyFactory.sol",
  "compiler": {
    "name": "solc",
    "version": "0.8.9+commit.e5eed63a.Emscripten.clang"
  },
  "schemaVersion": "3.4.3",
  "updatedAt": "2021-11-17T13:38:55.142Z",
  "networkType": "ethereum",
  "devdoc": {
    "kind": "dev",
    "methods": {
      "getProperties()": {
        "details": "get all properties for rental"
      },
      "getPropertyByTenant(address)": {
        "details": "get single property by address"
      },
      "rentProperty(address,uint256)": {
        "details": "rental a property"
      }
    },
    "version": 1
  },
  "userdoc": {
    "kind": "user",
    "methods": {},
    "version": 1
  }
}