{
  "contractName": "RentProperty",
  "abi": [
    {
      "anonymous": false,
      "inputs": [
        {
          "indexed": true,
          "internalType": "address",
          "name": "lessor",
          "type": "address"
        },
        {
          "indexed": false,
          "internalType": "uint256",
          "name": "propertyId",
          "type": "uint256"
        }
      ],
      "name": "PropertyCreated",
      "type": "event"
    },
    {
      "anonymous": false,
      "inputs": [
        {
          "indexed": true,
          "internalType": "address",
          "name": "lessor",
          "type": "address"
        },
        {
          "indexed": true,
          "internalType": "address",
          "name": "tenant",
          "type": "address"
        },
        {
          "indexed": false,
          "internalType": "uint256",
          "name": "propertyId",
          "type": "uint256"
        }
      ],
      "name": "PropertyRented",
      "type": "event"
    },
    {
      "inputs": [
        {
          "internalType": "uint256",
          "name": "",
          "type": "uint256"
        }
      ],
      "name": "numOfLessors",
      "outputs": [
        {
          "internalType": "address",
          "name": "",
          "type": "address"
        }
      ],
      "stateMutability": "view",
      "type": "function"
    },
    {
      "inputs": [
        {
          "internalType": "address",
          "name": "",
          "type": "address"
        }
      ],
      "name": "tenant",
      "outputs": [
        {
          "internalType": "uint256",
          "name": "id",
          "type": "uint256"
        },
        {
          "internalType": "string",
          "name": "title",
          "type": "string"
        },
        {
          "internalType": "string",
          "name": "description",
          "type": "string"
        },
        {
          "internalType": "uint256",
          "name": "montlyPrice",
          "type": "uint256"
        },
        {
          "internalType": "uint256",
          "name": "depositAmount",
          "type": "uint256"
        },
        {
          "internalType": "uint256",
          "name": "depositPrice",
          "type": "uint256"
        },
        {
          "internalType": "address",
          "name": "lessor",
          "type": "address"
        },
        {
          "internalType": "address payable",
          "name": "tenant",
          "type": "address"
        },
        {
          "internalType": "bool",
          "name": "available",
          "type": "bool"
        }
      ],
      "stateMutability": "view",
      "type": "function"
    },
    {
      "inputs": [],
      "name": "getLessors",
      "outputs": [
        {
          "components": [
            {
              "internalType": "address payable",
              "name": "owner",
              "type": "address"
            },
            {
              "internalType": "uint256",
              "name": "numOfProperties",
              "type": "uint256"
            },
            {
              "components": [
                {
                  "internalType": "uint256",
                  "name": "id",
                  "type": "uint256"
                },
                {
                  "internalType": "string",
                  "name": "title",
                  "type": "string"
                },
                {
                  "internalType": "string",
                  "name": "description",
                  "type": "string"
                },
                {
                  "internalType": "uint256",
                  "name": "montlyPrice",
                  "type": "uint256"
                },
                {
                  "internalType": "uint256",
                  "name": "depositAmount",
                  "type": "uint256"
                },
                {
                  "internalType": "uint256",
                  "name": "depositPrice",
                  "type": "uint256"
                },
                {
                  "internalType": "address",
                  "name": "lessor",
                  "type": "address"
                },
                {
                  "internalType": "address payable",
                  "name": "tenant",
                  "type": "address"
                },
                {
                  "internalType": "bool",
                  "name": "available",
                  "type": "bool"
                }
              ],
              "internalType": "struct LessorsLib.Property[]",
              "name": "properties",
              "type": "tuple[]"
            }
          ],
          "internalType": "struct LessorsLib.Lessor[]",
          "name": "",
          "type": "tuple[]"
        }
      ],
      "stateMutability": "view",
      "type": "function"
    },
    {
      "inputs": [
        {
          "internalType": "address",
          "name": "lessorAddress",
          "type": "address"
        },
        {
          "internalType": "uint256",
          "name": "propertyId",
          "type": "uint256"
        }
      ],
      "name": "rentProperty",
      "outputs": [],
      "stateMutability": "payable",
      "type": "function"
    },
    {
      "inputs": [
        {
          "internalType": "address",
          "name": "_address",
          "type": "address"
        }
      ],
      "name": "getPropertyByTenant",
      "outputs": [
        {
          "internalType": "uint256",
          "name": "id",
          "type": "uint256"
        },
        {
          "internalType": "string",
          "name": "title",
          "type": "string"
        },
        {
          "internalType": "string",
          "name": "description",
          "type": "string"
        },
        {
          "internalType": "uint256",
          "name": "depositPrice",
          "type": "uint256"
        },
        {
          "internalType": "uint256",
          "name": "montlyPrice",
          "type": "uint256"
        },
        {
          "internalType": "address",
          "name": "currentTenant",
          "type": "address"
        },
        {
          "internalType": "address",
          "name": "owner",
          "type": "address"
        },
        {
          "internalType": "bool",
          "name": "available",
          "type": "bool"
        }
      ],
      "stateMutability": "view",
      "type": "function"
    },
    {
      "inputs": [
        {
          "internalType": "string",
          "name": "_title",
          "type": "string"
        },
        {
          "internalType": "string",
          "name": "_description",
          "type": "string"
        },
        {
          "internalType": "uint256",
          "name": "_amount",
          "type": "uint256"
        },
        {
          "internalType": "uint256",
          "name": "_deposit",
          "type": "uint256"
        }
      ],
      "name": "createProperty",
      "outputs": [],
      "stateMutability": "nonpayable",
      "type": "function"
    }
  ],
  "bytecode": "0x608060405234801561001057600080fd5b5061221d806100206000396000f3fe6080604052600436106100555760003560e01c80631a974aa91461005a5780631d26538f1461009e57806326e55796146100c7578063751eaa0a146100f25780638aa6716f1461010e578063f9015a7d1461014b575b600080fd5b34801561006657600080fd5b50610081600480360381019061007c919061171b565b610190565b604051610095989796959493929190611824565b60405180910390f35b3480156100aa57600080fd5b506100c560048036038101906100c09190611a11565b61052d565b005b3480156100d357600080fd5b506100dc610666565b6040516100e99190611de8565b60405180910390f35b61010c60048036038101906101079190611e0a565b610707565b005b34801561011a57600080fd5b5061013560048036038101906101309190611e4a565b610b49565b6040516101429190611e77565b60405180910390f35b34801561015757600080fd5b50610172600480360381019061016d919061171b565b610b88565b60405161018799989796959493929190611ea1565b60405180910390f35b60006060806000806000806000600360008a73ffffffffffffffffffffffffffffffffffffffff1673ffffffffffffffffffffffffffffffffffffffff168152602001908152602001600020600001549750600360008a73ffffffffffffffffffffffffffffffffffffffff1673ffffffffffffffffffffffffffffffffffffffff168152602001908152602001600020600101805461022f90611f6b565b80601f016020809104026020016040519081016040528092919081815260200182805461025b90611f6b565b80156102a85780601f1061027d576101008083540402835291602001916102a8565b820191906000526020600020905b81548152906001019060200180831161028b57829003601f168201915b50505050509650600360008a73ffffffffffffffffffffffffffffffffffffffff1673ffffffffffffffffffffffffffffffffffffffff16815260200190815260200160002060020180546102fc90611f6b565b80601f016020809104026020016040519081016040528092919081815260200182805461032890611f6b565b80156103755780601f1061034a57610100808354040283529160200191610375565b820191906000526020600020905b81548152906001019060200180831161035857829003601f168201915b50505050509550600360008a73ffffffffffffffffffffffffffffffffffffffff1673ffffffffffffffffffffffffffffffffffffffff168152602001908152602001600020600501549450600360008a73ffffffffffffffffffffffffffffffffffffffff1673ffffffffffffffffffffffffffffffffffffffff168152602001908152602001600020600301549350600360008a73ffffffffffffffffffffffffffffffffffffffff1673ffffffffffffffffffffffffffffffffffffffff16815260200190815260200160002060070160009054906101000a900473ffffffffffffffffffffffffffffffffffffffff169250600360008a73ffffffffffffffffffffffffffffffffffffffff1673ffffffffffffffffffffffffffffffffffffffff16815260200190815260200160002060060160009054906101000a900473ffffffffffffffffffffffffffffffffffffffff169150600360008a73ffffffffffffffffffffffffffffffffffffffff1673ffffffffffffffffffffffffffffffffffffffff16815260200190815260200160002060070160149054906101000a900460ff169050919395975091939597565b6000610549858585856000610d3390949392919063ffffffff16565b9050600073ffffffffffffffffffffffffffffffffffffffff168160000160009054906101000a900473ffffffffffffffffffffffffffffffffffffffff1673ffffffffffffffffffffffffffffffffffffffff16141561065f57338160000160006101000a81548173ffffffffffffffffffffffffffffffffffffffff021916908373ffffffffffffffffffffffffffffffffffffffff1602179055506004339080600181540180825580915050600190039060005260206000200160009091909190916101000a81548173ffffffffffffffffffffffffffffffffffffffff021916908373ffffffffffffffffffffffffffffffffffffffff16021790555061065e336001610f5d90919063ffffffff16565b5b5050505050565b606061070260048054806020026020016040519081016040528092919081815260200182805480156106ed57602002820191906000526020600020905b8160009054906101000a900473ffffffffffffffffffffffffffffffffffffffff1673ffffffffffffffffffffffffffffffffffffffff16815260200190600101908083116106a3575b5050505050600061100990919063ffffffff16565b905090565b600061071d8360006113eb90919063ffffffff16565b9050600081600201838154811061073757610736611f9d565b5b9060005260206000209060080201905060008160030154905060008260050154905060003490506000838261076c9190611ffb565b90506000818361077c9190611ffb565b905082848661078b919061202f565b146107cb576040517f08c379a00000000000000000000000000000000000000000000000000000000081526004016107c2906120d1565b60405180910390fd5b600115158660070160149054906101000a900460ff16151514610823576040517f08c379a000000000000000000000000000000000000000000000000000000000815260040161081a90612163565b60405180910390fd5b338660070160006101000a81548173ffffffffffffffffffffffffffffffffffffffff021916908373ffffffffffffffffffffffffffffffffffffffff16021790555060008660070160146101000a81548160ff0219169083151502179055508186600401819055508660000160009054906101000a900473ffffffffffffffffffffffffffffffffffffffff1673ffffffffffffffffffffffffffffffffffffffff166108fc829081150290604051600060405180830381858888f193505050501580156108f6573d6000803e3d6000fd5b5085600360003373ffffffffffffffffffffffffffffffffffffffff1673ffffffffffffffffffffffffffffffffffffffff16815260200190815260200160002060008201548160000155600182018160010190805461095590611f6b565b6109609291906114c8565b50600282018160020190805461097590611f6b565b6109809291906114c8565b506003820154816003015560048201548160040155600582015481600501556006820160009054906101000a900473ffffffffffffffffffffffffffffffffffffffff168160060160006101000a81548173ffffffffffffffffffffffffffffffffffffffff021916908373ffffffffffffffffffffffffffffffffffffffff1602179055506007820160009054906101000a900473ffffffffffffffffffffffffffffffffffffffff168160070160006101000a81548173ffffffffffffffffffffffffffffffffffffffff021916908373ffffffffffffffffffffffffffffffffffffffff1602179055506007820160149054906101000a900460ff168160070160146101000a81548160ff021916908315150217905550905050610ab1336002610f5d90919063ffffffff16565b3373ffffffffffffffffffffffffffffffffffffffff168660070160009054906101000a900473ffffffffffffffffffffffffffffffffffffffff1673ffffffffffffffffffffffffffffffffffffffff167f4fc3a676fdeef8973dc185dc49c43ba446e6c7e00c459a429b5dee5d6b92907f8860000154604051610b369190612183565b60405180910390a3505050505050505050565b60048181548110610b5957600080fd5b906000526020600020016000915054906101000a900473ffffffffffffffffffffffffffffffffffffffff1681565b6003602052806000526040600020600091509050806000015490806001018054610bb190611f6b565b80601f0160208091040260200160405190810160405280929190818152602001828054610bdd90611f6b565b8015610c2a5780601f10610bff57610100808354040283529160200191610c2a565b820191906000526020600020905b815481529060010190602001808311610c0d57829003601f168201915b505050505090806002018054610c3f90611f6b565b80601f0160208091040260200160405190810160405280929190818152602001828054610c6b90611f6b565b8015610cb85780601f10610c8d57610100808354040283529160200191610cb8565b820191906000526020600020905b815481529060010190602001808311610c9b57829003601f168201915b5050505050908060030154908060040154908060050154908060060160009054906101000a900473ffffffffffffffffffffffffffffffffffffffff16908060070160009054906101000a900473ffffffffffffffffffffffffffffffffffffffff16908060070160149054906101000a900460ff16905089565b6000610d3d611555565b8660000160003373ffffffffffffffffffffffffffffffffffffffff1673ffffffffffffffffffffffffffffffffffffffff168152602001908152602001600020915085816020018190525084816040018190525083816060018181525050828160a0018181525050600181610100019015159081151581525050338160c0019073ffffffffffffffffffffffffffffffffffffffff16908173ffffffffffffffffffffffffffffffffffffffff1681525050816001016000815480929190610e059061219e565b9190505581600001818152505081600201819080600181540180825580915050600190039060005260206000209060080201600090919091909150600082015181600001556020820151816001019080519060200190610e669291906115cf565b506040820151816002019080519060200190610e839291906115cf565b50606082015181600301556080820151816004015560a0820151816005015560c08201518160060160006101000a81548173ffffffffffffffffffffffffffffffffffffffff021916908373ffffffffffffffffffffffffffffffffffffffff16021790555060e08201518160070160006101000a81548173ffffffffffffffffffffffffffffffffffffffff021916908373ffffffffffffffffffffffffffffffffffffffff1602179055506101008201518160070160146101000a81548160ff02191690831515021790555050505095945050505050565b600073ffffffffffffffffffffffffffffffffffffffff168173ffffffffffffffffffffffffffffffffffffffff161415610f9757600080fd5b610fa18282611436565b15610fab57600080fd5b60018260000160008373ffffffffffffffffffffffffffffffffffffffff1673ffffffffffffffffffffffffffffffffffffffff16815260200190815260200160002060006101000a81548160ff0219169083151502179055505050565b60606000825190506000835167ffffffffffffffff81111561102e5761102d6118ba565b5b60405190808252806020026020018201604052801561106757816020015b611054611655565b81526020019060019003908161104c5790505b50905060005b828110156113df5785600001600086838151811061108e5761108d611f9d565b5b602002602001015173ffffffffffffffffffffffffffffffffffffffff1673ffffffffffffffffffffffffffffffffffffffff1681526020019081526020016000206040518060600160405290816000820160009054906101000a900473ffffffffffffffffffffffffffffffffffffffff1673ffffffffffffffffffffffffffffffffffffffff1673ffffffffffffffffffffffffffffffffffffffff1681526020016001820154815260200160028201805480602002602001604051908101604052809291908181526020016000905b828210156113a65783829060005260206000209060080201604051806101200160405290816000820154815260200160018201805461119e90611f6b565b80601f01602080910402602001604051908101604052809291908181526020018280546111ca90611f6b565b80156112175780601f106111ec57610100808354040283529160200191611217565b820191906000526020600020905b8154815290600101906020018083116111fa57829003601f168201915b5050505050815260200160028201805461123090611f6b565b80601f016020809104026020016040519081016040528092919081815260200182805461125c90611f6b565b80156112a95780601f1061127e576101008083540402835291602001916112a9565b820191906000526020600020905b81548152906001019060200180831161128c57829003601f168201915b505050505081526020016003820154815260200160048201548152602001600582015481526020016006820160009054906101000a900473ffffffffffffffffffffffffffffffffffffffff1673ffffffffffffffffffffffffffffffffffffffff1673ffffffffffffffffffffffffffffffffffffffff1681526020016007820160009054906101000a900473ffffffffffffffffffffffffffffffffffffffff1673ffffffffffffffffffffffffffffffffffffffff1673ffffffffffffffffffffffffffffffffffffffff1681526020016007820160149054906101000a900460ff16151515158152505081526020019060010190611160565b50505050815250508282815181106113c1576113c0611f9d565b5b602002602001018190525080806113d79061219e565b91505061106d565b50809250505092915050565b60008260000160008373ffffffffffffffffffffffffffffffffffffffff1673ffffffffffffffffffffffffffffffffffffffff168152602001908152602001600020905092915050565b60008073ffffffffffffffffffffffffffffffffffffffff168273ffffffffffffffffffffffffffffffffffffffff16141561147157600080fd5b8260000160008373ffffffffffffffffffffffffffffffffffffffff1673ffffffffffffffffffffffffffffffffffffffff16815260200190815260200160002060009054906101000a900460ff16905092915050565b8280546114d490611f6b565b90600052602060002090601f0160209004810192826114f65760008555611544565b82601f106115075780548555611544565b8280016001018555821561154457600052602060002091601f016020900482015b82811115611543578254825591600101919060010190611528565b5b509050611551919061168c565b5090565b604051806101200160405280600081526020016060815260200160608152602001600081526020016000815260200160008152602001600073ffffffffffffffffffffffffffffffffffffffff168152602001600073ffffffffffffffffffffffffffffffffffffffff1681526020016000151581525090565b8280546115db90611f6b565b90600052602060002090601f0160209004810192826115fd5760008555611644565b82601f1061161657805160ff1916838001178555611644565b82800160010185558215611644579182015b82811115611643578251825591602001919060010190611628565b5b509050611651919061168c565b5090565b6040518060600160405280600073ffffffffffffffffffffffffffffffffffffffff16815260200160008152602001606081525090565b5b808211156116a557600081600090555060010161168d565b5090565b6000604051905090565b600080fd5b600080fd5b600073ffffffffffffffffffffffffffffffffffffffff82169050919050565b60006116e8826116bd565b9050919050565b6116f8816116dd565b811461170357600080fd5b50565b600081359050611715816116ef565b92915050565b600060208284031215611731576117306116b3565b5b600061173f84828501611706565b91505092915050565b6000819050919050565b61175b81611748565b82525050565b600081519050919050565b600082825260208201905092915050565b60005b8381101561179b578082015181840152602081019050611780565b838111156117aa576000848401525b50505050565b6000601f19601f8301169050919050565b60006117cc82611761565b6117d6818561176c565b93506117e681856020860161177d565b6117ef816117b0565b840191505092915050565b611803816116dd565b82525050565b60008115159050919050565b61181e81611809565b82525050565b60006101008201905061183a600083018b611752565b818103602083015261184c818a6117c1565b9050818103604083015261186081896117c1565b905061186f6060830188611752565b61187c6080830187611752565b61188960a08301866117fa565b61189660c08301856117fa565b6118a360e0830184611815565b9998505050505050505050565b600080fd5b600080fd5b7f4e487b7100000000000000000000000000000000000000000000000000000000600052604160045260246000fd5b6118f2826117b0565b810181811067ffffffffffffffff82111715611911576119106118ba565b5b80604052505050565b60006119246116a9565b905061193082826118e9565b919050565b600067ffffffffffffffff8211156119505761194f6118ba565b5b611959826117b0565b9050602081019050919050565b82818337600083830152505050565b600061198861198384611935565b61191a565b9050828152602081018484840111156119a4576119a36118b5565b5b6119af848285611966565b509392505050565b600082601f8301126119cc576119cb6118b0565b5b81356119dc848260208601611975565b91505092915050565b6119ee81611748565b81146119f957600080fd5b50565b600081359050611a0b816119e5565b92915050565b60008060008060808587031215611a2b57611a2a6116b3565b5b600085013567ffffffffffffffff811115611a4957611a486116b8565b5b611a55878288016119b7565b945050602085013567ffffffffffffffff811115611a7657611a756116b8565b5b611a82878288016119b7565b9350506040611a93878288016119fc565b9250506060611aa4878288016119fc565b91505092959194509250565b600081519050919050565b600082825260208201905092915050565b6000819050602082019050919050565b6000611ae7826116bd565b9050919050565b611af781611adc565b82525050565b611b0681611748565b82525050565b600081519050919050565b600082825260208201905092915050565b6000819050602082019050919050565b600082825260208201905092915050565b6000611b5482611761565b611b5e8185611b38565b9350611b6e81856020860161177d565b611b77816117b0565b840191505092915050565b611b8b816116dd565b82525050565b611b9a81611809565b82525050565b600061012083016000830151611bb96000860182611afd565b5060208301518482036020860152611bd18282611b49565b91505060408301518482036040860152611beb8282611b49565b9150506060830151611c006060860182611afd565b506080830151611c136080860182611afd565b5060a0830151611c2660a0860182611afd565b5060c0830151611c3960c0860182611b82565b5060e0830151611c4c60e0860182611aee565b50610100830151611c61610100860182611b91565b508091505092915050565b6000611c788383611ba0565b905092915050565b6000602082019050919050565b6000611c9882611b0c565b611ca28185611b17565b935083602082028501611cb485611b28565b8060005b85811015611cf05784840389528151611cd18582611c6c565b9450611cdc83611c80565b925060208a01995050600181019050611cb8565b50829750879550505050505092915050565b6000606083016000830151611d1a6000860182611aee565b506020830151611d2d6020860182611afd565b5060408301518482036040860152611d458282611c8d565b9150508091505092915050565b6000611d5e8383611d02565b905092915050565b6000602082019050919050565b6000611d7e82611ab0565b611d888185611abb565b935083602082028501611d9a85611acc565b8060005b85811015611dd65784840389528151611db78582611d52565b9450611dc283611d66565b925060208a01995050600181019050611d9e565b50829750879550505050505092915050565b60006020820190508181036000830152611e028184611d73565b905092915050565b60008060408385031215611e2157611e206116b3565b5b6000611e2f85828601611706565b9250506020611e40858286016119fc565b9150509250929050565b600060208284031215611e6057611e5f6116b3565b5b6000611e6e848285016119fc565b91505092915050565b6000602082019050611e8c60008301846117fa565b92915050565b611e9b81611adc565b82525050565b600061012082019050611eb7600083018c611752565b8181036020830152611ec9818b6117c1565b90508181036040830152611edd818a6117c1565b9050611eec6060830189611752565b611ef96080830188611752565b611f0660a0830187611752565b611f1360c08301866117fa565b611f2060e0830185611e92565b611f2e610100830184611815565b9a9950505050505050505050565b7f4e487b7100000000000000000000000000000000000000000000000000000000600052602260045260246000fd5b60006002820490506001821680611f8357607f821691505b60208210811415611f9757611f96611f3c565b5b50919050565b7f4e487b7100000000000000000000000000000000000000000000000000000000600052603260045260246000fd5b7f4e487b7100000000000000000000000000000000000000000000000000000000600052601160045260246000fd5b600061200682611748565b915061201183611748565b92508282101561202457612023611fcc565b5b828203905092915050565b600061203a82611748565b915061204583611748565b9250827fffffffffffffffffffffffffffffffffffffffffffffffffffffffffffffffff0382111561207a57612079611fcc565b5b828201905092915050565b7f596f7520646f6e2774206861766520656e6f7567682065746865720000000000600082015250565b60006120bb601b8361176c565b91506120c682612085565b602082019050919050565b600060208201905081810360008301526120ea816120ae565b9050919050565b7f546869732070726f7065727479206973206e6f7420617661696c61626c65206660008201527f6f722072656e7400000000000000000000000000000000000000000000000000602082015250565b600061214d60278361176c565b9150612158826120f1565b604082019050919050565b6000602082019050818103600083015261217c81612140565b9050919050565b60006020820190506121986000830184611752565b92915050565b60006121a982611748565b91507fffffffffffffffffffffffffffffffffffffffffffffffffffffffffffffffff8214156121dc576121db611fcc565b5b60018201905091905056fea2646970667358221220c0e1fc61a8b0b344f9f2c98e7090c11050943c5411c7b1a0e4c070653458561164736f6c63430008090033",
  "immutableReferences": {},
  "source": "// SPDX-License-Identifier: MIT\n\npragma solidity >=0.4.22 <0.9.0;\n\nimport \"../libraries/Roles.sol\";\nimport \"../libraries/Lessors.sol\";\n\n\ncontract RentProperty {\n    \n    /*\n      --- Libraries\n    */\n    \n    using Roles for Roles.Role;\n    using LessorsLib for LessorsLib.Lessors;\n\n    /*\n      --- State variables\n    */\n    \n    LessorsLib.Lessors private _lessors;\n    Roles.Role private _lessorRoles;\n    Roles.Role private _tenant;\n\n    \n    mapping(address => LessorsLib.Property) public tenant;\n    address[] public numOfLessors;\n    \n    \n     /*\n      --- Events\n    */\n    \n    event PropertyRented(address indexed lessor, address indexed tenant, uint propertyId);\n    event PropertyCreated(address indexed lessor, uint propertyId);\n    \n    \n    /*\n      --- Funtions modifiers\n    */\n    \n    modifier isPropertyOwner() {\n        require(_lessorRoles.has(msg.sender), \"Not property owner\");\n        _;\n    }\n    \n    modifier hasProperty() {\n        require(!_lessorRoles.has(msg.sender), \"has property\");\n        _;\n    }\n    \n    modifier onlyTenant() {\n        require(_tenant.has(msg.sender), \"Not owner\");\n        _;\n    }\n    \n    modifier isTenant() {\n        require(_tenant.has(msg.sender) == false, \"Already has a Property\");\n        _;\n    }\n\n    \n     /**\n     * @dev get all properties for rental\n    */\n    function getLessors() public view returns (LessorsLib.Lessor[] memory) {\n        return _lessors.getLessors(numOfLessors);\n    }\n\n     /**\n     * @dev rent a property\n    */\n    function rentProperty(address lessorAddress, uint propertyId) public payable  {\n        LessorsLib.Lessor storage lessor = _lessors.getLessor(lessorAddress);\n        LessorsLib.Property storage property = lessor.properties[propertyId];\n        uint montlyPrice = property.montlyPrice;\n        uint depositPrice = property.depositPrice;\n        \n        uint value = msg.value;\n        uint deposit = value - montlyPrice;\n        uint amountToTransfer = value - deposit;\n        \n        require(montlyPrice + depositPrice == value, \"You don't have enough ether\");\n        require(property.available == true, \"This property is not available for rent\");\n        \n        // update lessor property \n        property.tenant = payable(msg.sender); \n        property.available = false;\n        property.depositAmount = deposit;\n\n        // transfer token to lessor \n        lessor.owner.transfer(amountToTransfer);\n        \n        // set rented poperty to tenant\n        tenant[msg.sender] = property;\n        _tenant.add(msg.sender);\n        \n        emit PropertyRented(property.tenant, msg.sender,  property.id);\n    }\n    \n    /**\n     * @dev get single property by address\n    */\n    function getPropertyByTenant(address _address)\n        public\n        view\n        returns (\n            uint256 id,\n            string memory title,\n            string memory description,\n            uint256 depositPrice,\n            uint256 montlyPrice,\n            address currentTenant,\n            address owner,\n            bool available\n            \n        )\n    {\n            id = tenant[_address].id;\n            title = tenant[_address].title;\n            description = tenant[_address].description;\n            depositPrice = tenant[_address].depositPrice;\n            montlyPrice = tenant[_address].montlyPrice;\n            currentTenant = tenant[_address].tenant;\n            owner = tenant[_address].lessor;\n            available = tenant[_address].available;\n            \n    }\n    \n    /**\n     * @dev create new porpery ang get lessor role\n    */\n    function createProperty(\n        string memory _title,\n        string memory _description,\n        uint256 _amount,\n        uint256 _deposit\n    ) public {\n        LessorsLib.Lessor storage lessor = _lessors.createProperty(_title, _description, _amount, _deposit);\n     \n       // check if created lessor already exits\n       if(lessor.owner == address(0)) {\n          lessor.owner = payable(msg.sender);\n          numOfLessors.push(msg.sender);\n         _lessorRoles.add(msg.sender);\n       }\n    }\n}\n",
  "sourcePath": "/Users/vicklercharles/Desktop/smart-contracts/blockchain-developer-bootcamp-final-project/contracts/RealEstatePropertyFactory.sol",
  "compiler": {
    "name": "solc",
    "version": "0.8.9+commit.e5eed63a.Emscripten.clang"
  },
  "schemaVersion": "3.4.3",
  "updatedAt": "2021-11-18T20:40:16.948Z",
  "devdoc": {
    "kind": "dev",
    "methods": {
      "createProperty(string,string,uint256,uint256)": {
        "details": "create new porpery ang get lessor role"
      },
      "getLessors()": {
        "details": "get all properties for rental"
      },
      "getPropertyByTenant(address)": {
        "details": "get single property by address"
      },
      "rentProperty(address,uint256)": {
        "details": "rent a property"
      }
    },
    "version": 1
  },
  "userdoc": {
    "kind": "user",
    "methods": {},
    "version": 1
  }
}