{
  "contractName": "RentProperty",
  "abi": [
    {
      "anonymous": false,
      "inputs": [],
      "name": "PropertyCreated",
      "type": "event"
    },
    {
      "anonymous": false,
      "inputs": [
        {
          "indexed": true,
          "internalType": "address",
          "name": "lessor",
          "type": "address"
        },
        {
          "indexed": true,
          "internalType": "address",
          "name": "tenant",
          "type": "address"
        },
        {
          "indexed": false,
          "internalType": "uint256",
          "name": "propertyId",
          "type": "uint256"
        }
      ],
      "name": "PropertyRented",
      "type": "event"
    },
    {
      "inputs": [],
      "name": "MONTH",
      "outputs": [
        {
          "internalType": "uint256",
          "name": "",
          "type": "uint256"
        }
      ],
      "stateMutability": "view",
      "type": "function"
    },
    {
      "inputs": [
        {
          "internalType": "address",
          "name": "",
          "type": "address"
        }
      ],
      "name": "_tenant",
      "outputs": [
        {
          "internalType": "uint256",
          "name": "id",
          "type": "uint256"
        },
        {
          "internalType": "string",
          "name": "title",
          "type": "string"
        },
        {
          "internalType": "string",
          "name": "description",
          "type": "string"
        },
        {
          "internalType": "string",
          "name": "imgUrl",
          "type": "string"
        },
        {
          "internalType": "uint256",
          "name": "montlyPrice",
          "type": "uint256"
        },
        {
          "internalType": "uint256",
          "name": "depositAmount",
          "type": "uint256"
        },
        {
          "internalType": "uint256",
          "name": "depositPrice",
          "type": "uint256"
        },
        {
          "internalType": "address",
          "name": "lessor",
          "type": "address"
        },
        {
          "internalType": "address payable",
          "name": "tenant",
          "type": "address"
        },
        {
          "components": [
            {
              "internalType": "uint256",
              "name": "amount",
              "type": "uint256"
            },
            {
              "internalType": "address",
              "name": "from",
              "type": "address"
            },
            {
              "internalType": "address",
              "name": "to",
              "type": "address"
            },
            {
              "internalType": "uint256",
              "name": "date",
              "type": "uint256"
            }
          ],
          "internalType": "struct Payment",
          "name": "lastPayment",
          "type": "tuple"
        },
        {
          "internalType": "uint256",
          "name": "nextPayment",
          "type": "uint256"
        },
        {
          "internalType": "bool",
          "name": "available",
          "type": "bool"
        }
      ],
      "stateMutability": "view",
      "type": "function"
    },
    {
      "inputs": [
        {
          "internalType": "uint256",
          "name": "",
          "type": "uint256"
        }
      ],
      "name": "numOfLessors",
      "outputs": [
        {
          "internalType": "address",
          "name": "",
          "type": "address"
        }
      ],
      "stateMutability": "view",
      "type": "function"
    },
    {
      "inputs": [
        {
          "internalType": "uint256",
          "name": "",
          "type": "uint256"
        }
      ],
      "name": "payments",
      "outputs": [
        {
          "internalType": "uint256",
          "name": "amount",
          "type": "uint256"
        },
        {
          "internalType": "address",
          "name": "from",
          "type": "address"
        },
        {
          "internalType": "address",
          "name": "to",
          "type": "address"
        },
        {
          "internalType": "uint256",
          "name": "date",
          "type": "uint256"
        }
      ],
      "stateMutability": "view",
      "type": "function"
    },
    {
      "inputs": [],
      "name": "getLessors",
      "outputs": [
        {
          "components": [
            {
              "internalType": "address payable",
              "name": "owner",
              "type": "address"
            },
            {
              "internalType": "uint256",
              "name": "numOfProperties",
              "type": "uint256"
            },
            {
              "components": [
                {
                  "internalType": "uint256",
                  "name": "id",
                  "type": "uint256"
                },
                {
                  "internalType": "string",
                  "name": "title",
                  "type": "string"
                },
                {
                  "internalType": "string",
                  "name": "description",
                  "type": "string"
                },
                {
                  "internalType": "string",
                  "name": "imgUrl",
                  "type": "string"
                },
                {
                  "internalType": "uint256",
                  "name": "montlyPrice",
                  "type": "uint256"
                },
                {
                  "internalType": "uint256",
                  "name": "depositAmount",
                  "type": "uint256"
                },
                {
                  "internalType": "uint256",
                  "name": "depositPrice",
                  "type": "uint256"
                },
                {
                  "internalType": "address",
                  "name": "lessor",
                  "type": "address"
                },
                {
                  "internalType": "address payable",
                  "name": "tenant",
                  "type": "address"
                },
                {
                  "components": [
                    {
                      "internalType": "uint256",
                      "name": "amount",
                      "type": "uint256"
                    },
                    {
                      "internalType": "address",
                      "name": "from",
                      "type": "address"
                    },
                    {
                      "internalType": "address",
                      "name": "to",
                      "type": "address"
                    },
                    {
                      "internalType": "uint256",
                      "name": "date",
                      "type": "uint256"
                    }
                  ],
                  "internalType": "struct Payment",
                  "name": "lastPayment",
                  "type": "tuple"
                },
                {
                  "internalType": "uint256",
                  "name": "nextPayment",
                  "type": "uint256"
                },
                {
                  "internalType": "bool",
                  "name": "available",
                  "type": "bool"
                }
              ],
              "internalType": "struct LessorsLib.Property[]",
              "name": "properties",
              "type": "tuple[]"
            }
          ],
          "internalType": "struct LessorsLib.Lessor[]",
          "name": "",
          "type": "tuple[]"
        }
      ],
      "stateMutability": "view",
      "type": "function"
    },
    {
      "inputs": [
        {
          "internalType": "address",
          "name": "lessorAddress",
          "type": "address"
        },
        {
          "internalType": "uint256",
          "name": "propertyId",
          "type": "uint256"
        }
      ],
      "name": "rentProperty",
      "outputs": [],
      "stateMutability": "payable",
      "type": "function"
    },
    {
      "inputs": [
        {
          "internalType": "address",
          "name": "_address",
          "type": "address"
        }
      ],
      "name": "getPropertyByTenant",
      "outputs": [
        {
          "internalType": "uint256",
          "name": "id",
          "type": "uint256"
        },
        {
          "internalType": "string",
          "name": "title",
          "type": "string"
        },
        {
          "internalType": "string",
          "name": "description",
          "type": "string"
        },
        {
          "internalType": "string",
          "name": "imgUrl",
          "type": "string"
        },
        {
          "internalType": "uint256",
          "name": "depositPrice",
          "type": "uint256"
        },
        {
          "internalType": "uint256",
          "name": "montlyPrice",
          "type": "uint256"
        },
        {
          "internalType": "address",
          "name": "tenant",
          "type": "address"
        },
        {
          "internalType": "address",
          "name": "owner",
          "type": "address"
        },
        {
          "internalType": "bool",
          "name": "available",
          "type": "bool"
        },
        {
          "components": [
            {
              "internalType": "uint256",
              "name": "amount",
              "type": "uint256"
            },
            {
              "internalType": "address",
              "name": "from",
              "type": "address"
            },
            {
              "internalType": "address",
              "name": "to",
              "type": "address"
            },
            {
              "internalType": "uint256",
              "name": "date",
              "type": "uint256"
            }
          ],
          "internalType": "struct Payment",
          "name": "lastPayment",
          "type": "tuple"
        },
        {
          "internalType": "uint256",
          "name": "nextPayment",
          "type": "uint256"
        }
      ],
      "stateMutability": "view",
      "type": "function"
    },
    {
      "inputs": [
        {
          "internalType": "string",
          "name": "_title",
          "type": "string"
        },
        {
          "internalType": "string",
          "name": "_description",
          "type": "string"
        },
        {
          "internalType": "string",
          "name": "_imgUrl",
          "type": "string"
        },
        {
          "internalType": "uint256",
          "name": "_amount",
          "type": "uint256"
        },
        {
          "internalType": "uint256",
          "name": "_deposit",
          "type": "uint256"
        }
      ],
      "name": "createProperty",
      "outputs": [],
      "stateMutability": "nonpayable",
      "type": "function"
    }
  ],
  "bytecode": "0x608060405234801561001057600080fd5b50613242806100206000396000f3fe60806040526004361061007b5760003560e01c8063751eaa0a1161004e578063751eaa0a1461016357806387d817891461017f5780638aa6716f146101bf578063d5999a5c146101fc5761007b565b80631a974aa91461008057806326e55796146100c757806364816004146100f25780637472bc381461013a575b600080fd5b34801561008c57600080fd5b506100a760048036038101906100a291906123c3565b610227565b6040516100be9b9a9998979695949392919061253f565b60405180910390f35b3480156100d357600080fd5b506100dc610848565b6040516100e991906129b4565b60405180910390f35b3480156100fe57600080fd5b50610119600480360381019061011491906123c3565b6108e9565b6040516101319c9b9a999897969594939291906129e5565b60405180910390f35b34801561014657600080fd5b50610161600480360381019061015c9190612c15565b610bf8565b005b61017d60048036038101906101789190612ce4565b610d60565b005b34801561018b57600080fd5b506101a660048036038101906101a19190612d24565b6114f4565b6040516101b69493929190612d51565b60405180910390f35b3480156101cb57600080fd5b506101e660048036038101906101e19190612d24565b611574565b6040516101f39190612d96565b60405180910390f35b34801561020857600080fd5b506102116115b3565b60405161021e9190612db1565b60405180910390f35b60006060806060600080600080600061023e612101565b60006102548c60026115ba90919063ffffffff16565b610293576040517f08c379a000000000000000000000000000000000000000000000000000000000815260040161028a90612e18565b60405180910390fd5b600360008d73ffffffffffffffffffffffffffffffffffffffff1673ffffffffffffffffffffffffffffffffffffffff168152602001908152602001600020600001549a50600360008d73ffffffffffffffffffffffffffffffffffffffff1673ffffffffffffffffffffffffffffffffffffffff168152602001908152602001600020600101805461032590612e67565b80601f016020809104026020016040519081016040528092919081815260200182805461035190612e67565b801561039e5780601f106103735761010080835404028352916020019161039e565b820191906000526020600020905b81548152906001019060200180831161038157829003601f168201915b50505050509950600360008d73ffffffffffffffffffffffffffffffffffffffff1673ffffffffffffffffffffffffffffffffffffffff16815260200190815260200160002060020180546103f290612e67565b80601f016020809104026020016040519081016040528092919081815260200182805461041e90612e67565b801561046b5780601f106104405761010080835404028352916020019161046b565b820191906000526020600020905b81548152906001019060200180831161044e57829003601f168201915b50505050509850600360008d73ffffffffffffffffffffffffffffffffffffffff1673ffffffffffffffffffffffffffffffffffffffff16815260200190815260200160002060030180546104bf90612e67565b80601f01602080910402602001604051908101604052809291908181526020018280546104eb90612e67565b80156105385780601f1061050d57610100808354040283529160200191610538565b820191906000526020600020905b81548152906001019060200180831161051b57829003601f168201915b50505050509750600360008d73ffffffffffffffffffffffffffffffffffffffff1673ffffffffffffffffffffffffffffffffffffffff168152602001908152602001600020600601549650600360008d73ffffffffffffffffffffffffffffffffffffffff1673ffffffffffffffffffffffffffffffffffffffff168152602001908152602001600020600401549550600360008d73ffffffffffffffffffffffffffffffffffffffff1673ffffffffffffffffffffffffffffffffffffffff16815260200190815260200160002060080160009054906101000a900473ffffffffffffffffffffffffffffffffffffffff169450600360008d73ffffffffffffffffffffffffffffffffffffffff1673ffffffffffffffffffffffffffffffffffffffff16815260200190815260200160002060070160009054906101000a900473ffffffffffffffffffffffffffffffffffffffff169350600360008d73ffffffffffffffffffffffffffffffffffffffff1673ffffffffffffffffffffffffffffffffffffffff168152602001908152602001600020600e0160009054906101000a900460ff169250600360008d73ffffffffffffffffffffffffffffffffffffffff1673ffffffffffffffffffffffffffffffffffffffff168152602001908152602001600020600901604051806080016040529081600082015481526020016001820160009054906101000a900473ffffffffffffffffffffffffffffffffffffffff1673ffffffffffffffffffffffffffffffffffffffff1673ffffffffffffffffffffffffffffffffffffffff1681526020016002820160009054906101000a900473ffffffffffffffffffffffffffffffffffffffff1673ffffffffffffffffffffffffffffffffffffffff1673ffffffffffffffffffffffffffffffffffffffff1681526020016003820154815250509150600360008d73ffffffffffffffffffffffffffffffffffffffff1673ffffffffffffffffffffffffffffffffffffffff168152602001908152602001600020600d0154905091939597999b90929496989a50565b60606108e460058054806020026020016040519081016040528092919081815260200182805480156108cf57602002820191906000526020600020905b8160009054906101000a900473ffffffffffffffffffffffffffffffffffffffff1673ffffffffffffffffffffffffffffffffffffffff1681526020019060010190808311610885575b5050505050600061164c90919063ffffffff16565b905090565b600360205280600052604060002060009150905080600001549080600101805461091290612e67565b80601f016020809104026020016040519081016040528092919081815260200182805461093e90612e67565b801561098b5780601f106109605761010080835404028352916020019161098b565b820191906000526020600020905b81548152906001019060200180831161096e57829003601f168201915b5050505050908060020180546109a090612e67565b80601f01602080910402602001604051908101604052809291908181526020018280546109cc90612e67565b8015610a195780601f106109ee57610100808354040283529160200191610a19565b820191906000526020600020905b8154815290600101906020018083116109fc57829003601f168201915b505050505090806003018054610a2e90612e67565b80601f0160208091040260200160405190810160405280929190818152602001828054610a5a90612e67565b8015610aa75780601f10610a7c57610100808354040283529160200191610aa7565b820191906000526020600020905b815481529060010190602001808311610a8a57829003601f168201915b5050505050908060040154908060050154908060060154908060070160009054906101000a900473ffffffffffffffffffffffffffffffffffffffff16908060080160009054906101000a900473ffffffffffffffffffffffffffffffffffffffff169080600901604051806080016040529081600082015481526020016001820160009054906101000a900473ffffffffffffffffffffffffffffffffffffffff1673ffffffffffffffffffffffffffffffffffffffff1673ffffffffffffffffffffffffffffffffffffffff1681526020016002820160009054906101000a900473ffffffffffffffffffffffffffffffffffffffff1673ffffffffffffffffffffffffffffffffffffffff1673ffffffffffffffffffffffffffffffffffffffff1681526020016003820154815250509080600d01549080600e0160009054906101000a900460ff1690508c565b6000610c1686868686866000611b9e9095949392919063ffffffff16565b9050600073ffffffffffffffffffffffffffffffffffffffff168160000160009054906101000a900473ffffffffffffffffffffffffffffffffffffffff1673ffffffffffffffffffffffffffffffffffffffff161415610d2c57338160000160006101000a81548173ffffffffffffffffffffffffffffffffffffffff021916908373ffffffffffffffffffffffffffffffffffffffff1602179055506005339080600181540180825580915050600190039060005260206000200160009091909190916101000a81548173ffffffffffffffffffffffffffffffffffffffff021916908373ffffffffffffffffffffffffffffffffffffffff160217905550610d2b336001611ea990919063ffffffff16565b5b7fcacfd486a28a41cf538c0f2926b5e686fdc9508e9ccd6a548447d40f31fe540060405160405180910390a1505050505050565b600073ffffffffffffffffffffffffffffffffffffffff16600360003373ffffffffffffffffffffffffffffffffffffffff1673ffffffffffffffffffffffffffffffffffffffff16815260200190815260200160002060080160009054906101000a900473ffffffffffffffffffffffffffffffffffffffff1673ffffffffffffffffffffffffffffffffffffffff1614610e31576040517f08c379a0000000000000000000000000000000000000000000000000000000008152600401610e2890612ee5565b60405180910390fd5b6000610e47836000611f5590919063ffffffff16565b90506000816002018381548110610e6157610e60612f05565b5b90600052602060002090600f0201905060008160040154905060008260060154905060003490506000610e9d8483611fa090919063ffffffff16565b90506000610eb48284611fa090919063ffffffff16565b905082610eca8587611fb690919063ffffffff16565b14610f0a576040517f08c379a0000000000000000000000000000000000000000000000000000000008152600401610f0190612f80565b60405180910390fd5b6001151586600e0160009054906101000a900460ff16151514610f62576040517f08c379a0000000000000000000000000000000000000000000000000000000008152600401610f5990613012565b60405180910390fd5b338660080160006101000a81548173ffffffffffffffffffffffffffffffffffffffff021916908373ffffffffffffffffffffffffffffffffffffffff160217905550600086600e0160006101000a81548160ff021916908315150217905550818660050181905550610ffb81338960000160009054906101000a900473ffffffffffffffffffffffffffffffffffffffff1642611fcc565b866009016000820151816000015560208201518160010160006101000a81548173ffffffffffffffffffffffffffffffffffffffff021916908373ffffffffffffffffffffffffffffffffffffffff16021790555060408201518160020160006101000a81548173ffffffffffffffffffffffffffffffffffffffff021916908373ffffffffffffffffffffffffffffffffffffffff16021790555060608201518160030155905050622819a0426110b39190613061565b86600d018190555085600360003373ffffffffffffffffffffffffffffffffffffffff1673ffffffffffffffffffffffffffffffffffffffff16815260200190815260200160002060008201548160000155600182018160010190805461111990612e67565b611124929190612155565b50600282018160020190805461113990612e67565b611144929190612155565b50600382018160030190805461115990612e67565b611164929190612155565b506004820154816004015560058201548160050155600682015481600601556007820160009054906101000a900473ffffffffffffffffffffffffffffffffffffffff168160070160006101000a81548173ffffffffffffffffffffffffffffffffffffffff021916908373ffffffffffffffffffffffffffffffffffffffff1602179055506008820160009054906101000a900473ffffffffffffffffffffffffffffffffffffffff168160080160006101000a81548173ffffffffffffffffffffffffffffffffffffffff021916908373ffffffffffffffffffffffffffffffffffffffff1602179055506009820181600901600082015481600001556001820160009054906101000a900473ffffffffffffffffffffffffffffffffffffffff168160010160006101000a81548173ffffffffffffffffffffffffffffffffffffffff021916908373ffffffffffffffffffffffffffffffffffffffff1602179055506002820160009054906101000a900473ffffffffffffffffffffffffffffffffffffffff168160020160006101000a81548173ffffffffffffffffffffffffffffffffffffffff021916908373ffffffffffffffffffffffffffffffffffffffff160217905550600382015481600301555050600d82015481600d0155600e820160009054906101000a900460ff1681600e0160006101000a81548160ff02191690831515021790555090505061138b336002611ea990919063ffffffff16565b60008760000160009054906101000a900473ffffffffffffffffffffffffffffffffffffffff1673ffffffffffffffffffffffffffffffffffffffff16826040516113d5906130e8565b60006040518083038185875af1925050503d8060008114611412576040519150601f19603f3d011682016040523d82523d6000602084013e611417565b606091505b505090508061145b576040517f08c379a00000000000000000000000000000000000000000000000000000000081526004016114529061316f565b60405180910390fd5b3373ffffffffffffffffffffffffffffffffffffffff168760080160009054906101000a900473ffffffffffffffffffffffffffffffffffffffff1673ffffffffffffffffffffffffffffffffffffffff167f4fc3a676fdeef8973dc185dc49c43ba446e6c7e00c459a429b5dee5d6b92907f89600001546040516114e09190612db1565b60405180910390a350505050505050505050565b6004818154811061150457600080fd5b90600052602060002090600402016000915090508060000154908060010160009054906101000a900473ffffffffffffffffffffffffffffffffffffffff16908060020160009054906101000a900473ffffffffffffffffffffffffffffffffffffffff16908060030154905084565b6005818154811061158457600080fd5b906000526020600020016000915054906101000a900473ffffffffffffffffffffffffffffffffffffffff1681565b622819a081565b60008073ffffffffffffffffffffffffffffffffffffffff168273ffffffffffffffffffffffffffffffffffffffff1614156115f557600080fd5b8260000160008373ffffffffffffffffffffffffffffffffffffffff1673ffffffffffffffffffffffffffffffffffffffff16815260200190815260200160002060009054906101000a900460ff16905092915050565b60606000825190506000835167ffffffffffffffff81111561167157611670612abe565b5b6040519080825280602002602001820160405280156116aa57816020015b6116976121e2565b81526020019060019003908161168f5790505b50905060005b82811015611b92578560000160008683815181106116d1576116d0612f05565b5b602002602001015173ffffffffffffffffffffffffffffffffffffffff1673ffffffffffffffffffffffffffffffffffffffff1681526020019081526020016000206040518060600160405290816000820160009054906101000a900473ffffffffffffffffffffffffffffffffffffffff1673ffffffffffffffffffffffffffffffffffffffff1673ffffffffffffffffffffffffffffffffffffffff1681526020016001820154815260200160028201805480602002602001604051908101604052809291908181526020016000905b82821015611b5957838290600052602060002090600f020160405180610180016040529081600082015481526020016001820180546117e190612e67565b80601f016020809104026020016040519081016040528092919081815260200182805461180d90612e67565b801561185a5780601f1061182f5761010080835404028352916020019161185a565b820191906000526020600020905b81548152906001019060200180831161183d57829003601f168201915b5050505050815260200160028201805461187390612e67565b80601f016020809104026020016040519081016040528092919081815260200182805461189f90612e67565b80156118ec5780601f106118c1576101008083540402835291602001916118ec565b820191906000526020600020905b8154815290600101906020018083116118cf57829003601f168201915b5050505050815260200160038201805461190590612e67565b80601f016020809104026020016040519081016040528092919081815260200182805461193190612e67565b801561197e5780601f106119535761010080835404028352916020019161197e565b820191906000526020600020905b81548152906001019060200180831161196157829003601f168201915b505050505081526020016004820154815260200160058201548152602001600682015481526020016007820160009054906101000a900473ffffffffffffffffffffffffffffffffffffffff1673ffffffffffffffffffffffffffffffffffffffff1673ffffffffffffffffffffffffffffffffffffffff1681526020016008820160009054906101000a900473ffffffffffffffffffffffffffffffffffffffff1673ffffffffffffffffffffffffffffffffffffffff1673ffffffffffffffffffffffffffffffffffffffff16815260200160098201604051806080016040529081600082015481526020016001820160009054906101000a900473ffffffffffffffffffffffffffffffffffffffff1673ffffffffffffffffffffffffffffffffffffffff1673ffffffffffffffffffffffffffffffffffffffff1681526020016002820160009054906101000a900473ffffffffffffffffffffffffffffffffffffffff1673ffffffffffffffffffffffffffffffffffffffff1673ffffffffffffffffffffffffffffffffffffffff1681526020016003820154815250508152602001600d8201548152602001600e820160009054906101000a900460ff161515151581525050815260200190600101906117a3565b5050505081525050828281518110611b7457611b73612f05565b5b60200260200101819052508080611b8a9061318f565b9150506116b0565b50809250505092915050565b6000611ba8612219565b8760000160003373ffffffffffffffffffffffffffffffffffffffff1673ffffffffffffffffffffffffffffffffffffffff168152602001908152602001600020915086816020018190525085816040018190525084816060018190525083816080018181525050828160c0018181525050600181610160019015159081151581525050338160e0019073ffffffffffffffffffffffffffffffffffffffff16908173ffffffffffffffffffffffffffffffffffffffff1681525050816001016000815480929190611c799061318f565b91905055816000018181525050816002018190806001815401808255809150506001900390600052602060002090600f0201600090919091909150600082015181600001556020820151816001019080519060200190611cda9291906122ae565b506040820151816002019080519060200190611cf79291906122ae565b506060820151816003019080519060200190611d149291906122ae565b506080820151816004015560a0820151816005015560c0820151816006015560e08201518160070160006101000a81548173ffffffffffffffffffffffffffffffffffffffff021916908373ffffffffffffffffffffffffffffffffffffffff1602179055506101008201518160080160006101000a81548173ffffffffffffffffffffffffffffffffffffffff021916908373ffffffffffffffffffffffffffffffffffffffff160217905550610120820151816009016000820151816000015560208201518160010160006101000a81548173ffffffffffffffffffffffffffffffffffffffff021916908373ffffffffffffffffffffffffffffffffffffffff16021790555060408201518160020160006101000a81548173ffffffffffffffffffffffffffffffffffffffff021916908373ffffffffffffffffffffffffffffffffffffffff16021790555060608201518160030155505061014082015181600d015561016082015181600e0160006101000a81548160ff0219169083151502179055505050509695505050505050565b600073ffffffffffffffffffffffffffffffffffffffff168173ffffffffffffffffffffffffffffffffffffffff161415611ee357600080fd5b611eed82826115ba565b15611ef757600080fd5b60018260000160008373ffffffffffffffffffffffffffffffffffffffff1673ffffffffffffffffffffffffffffffffffffffff16815260200190815260200160002060006101000a81548160ff0219169083151502179055505050565b60008260000160008373ffffffffffffffffffffffffffffffffffffffff1673ffffffffffffffffffffffffffffffffffffffff168152602001908152602001600020905092915050565b60008183611fae91906131d8565b905092915050565b60008183611fc49190613061565b905092915050565b611fd4612101565b600060405180608001604052808781526020018573ffffffffffffffffffffffffffffffffffffffff1681526020018673ffffffffffffffffffffffffffffffffffffffff16815260200184815250905060048190806001815401808255809150506001900390600052602060002090600402016000909190919091506000820151816000015560208201518160010160006101000a81548173ffffffffffffffffffffffffffffffffffffffff021916908373ffffffffffffffffffffffffffffffffffffffff16021790555060408201518160020160006101000a81548173ffffffffffffffffffffffffffffffffffffffff021916908373ffffffffffffffffffffffffffffffffffffffff16021790555060608201518160030155505080915050949350505050565b604051806080016040528060008152602001600073ffffffffffffffffffffffffffffffffffffffff168152602001600073ffffffffffffffffffffffffffffffffffffffff168152602001600081525090565b82805461216190612e67565b90600052602060002090601f01602090048101928261218357600085556121d1565b82601f1061219457805485556121d1565b828001600101855582156121d157600052602060002091601f016020900482015b828111156121d05782548255916001019190600101906121b5565b5b5090506121de9190612334565b5090565b6040518060600160405280600073ffffffffffffffffffffffffffffffffffffffff16815260200160008152602001606081525090565b60405180610180016040528060008152602001606081526020016060815260200160608152602001600081526020016000815260200160008152602001600073ffffffffffffffffffffffffffffffffffffffff168152602001600073ffffffffffffffffffffffffffffffffffffffff168152602001612298612101565b8152602001600081526020016000151581525090565b8280546122ba90612e67565b90600052602060002090601f0160209004810192826122dc5760008555612323565b82601f106122f557805160ff1916838001178555612323565b82800160010185558215612323579182015b82811115612322578251825591602001919060010190612307565b5b5090506123309190612334565b5090565b5b8082111561234d576000816000905550600101612335565b5090565b6000604051905090565b600080fd5b600080fd5b600073ffffffffffffffffffffffffffffffffffffffff82169050919050565b600061239082612365565b9050919050565b6123a081612385565b81146123ab57600080fd5b50565b6000813590506123bd81612397565b92915050565b6000602082840312156123d9576123d861235b565b5b60006123e7848285016123ae565b91505092915050565b6000819050919050565b612403816123f0565b82525050565b600081519050919050565b600082825260208201905092915050565b60005b83811015612443578082015181840152602081019050612428565b83811115612452576000848401525b50505050565b6000601f19601f8301169050919050565b600061247482612409565b61247e8185612414565b935061248e818560208601612425565b61249781612458565b840191505092915050565b6124ab81612385565b82525050565b60008115159050919050565b6124c6816124b1565b82525050565b6124d5816123f0565b82525050565b6124e481612385565b82525050565b60808201600082015161250060008501826124cc565b50602082015161251360208501826124db565b50604082015161252660408501826124db565b50606082015161253960608501826124cc565b50505050565b60006101c082019050612555600083018e6123fa565b8181036020830152612567818d612469565b9050818103604083015261257b818c612469565b9050818103606083015261258f818b612469565b905061259e608083018a6123fa565b6125ab60a08301896123fa565b6125b860c08301886124a2565b6125c560e08301876124a2565b6125d36101008301866124bd565b6125e16101208301856124ea565b6125ef6101a08301846123fa565b9c9b505050505050505050505050565b600081519050919050565b600082825260208201905092915050565b6000819050602082019050919050565b600061263682612365565b9050919050565b6126468161262b565b82525050565b600081519050919050565b600082825260208201905092915050565b6000819050602082019050919050565b600082825260208201905092915050565b600061269482612409565b61269e8185612678565b93506126ae818560208601612425565b6126b781612458565b840191505092915050565b6080820160008201516126d860008501826124cc565b5060208201516126eb60208501826124db565b5060408201516126fe60408501826124db565b50606082015161271160608501826124cc565b50505050565b612720816124b1565b82525050565b60006101e08301600083015161273f60008601826124cc565b50602083015184820360208601526127578282612689565b915050604083015184820360408601526127718282612689565b9150506060830151848203606086015261278b8282612689565b91505060808301516127a060808601826124cc565b5060a08301516127b360a08601826124cc565b5060c08301516127c660c08601826124cc565b5060e08301516127d960e08601826124db565b506101008301516127ee61010086018261263d565b506101208301516128036101208601826126c2565b506101408301516128186101a08601826124cc565b5061016083015161282d6101c0860182612717565b508091505092915050565b60006128448383612726565b905092915050565b6000602082019050919050565b60006128648261264c565b61286e8185612657565b93508360208202850161288085612668565b8060005b858110156128bc578484038952815161289d8582612838565b94506128a88361284c565b925060208a01995050600181019050612884565b50829750879550505050505092915050565b60006060830160008301516128e6600086018261263d565b5060208301516128f960208601826124cc565b50604083015184820360408601526129118282612859565b9150508091505092915050565b600061292a83836128ce565b905092915050565b6000602082019050919050565b600061294a826125ff565b612954818561260a565b9350836020820285016129668561261b565b8060005b858110156129a25784840389528151612983858261291e565b945061298e83612932565b925060208a0199505060018101905061296a565b50829750879550505050505092915050565b600060208201905081810360008301526129ce818461293f565b905092915050565b6129df8161262b565b82525050565b60006101e0820190506129fb600083018f6123fa565b8181036020830152612a0d818e612469565b90508181036040830152612a21818d612469565b90508181036060830152612a35818c612469565b9050612a44608083018b6123fa565b612a5160a083018a6123fa565b612a5e60c08301896123fa565b612a6b60e08301886124a2565b612a796101008301876129d6565b612a876101208301866124ea565b612a956101a08301856123fa565b612aa36101c08301846124bd565b9d9c50505050505050505050505050565b600080fd5b600080fd5b7f4e487b7100000000000000000000000000000000000000000000000000000000600052604160045260246000fd5b612af682612458565b810181811067ffffffffffffffff82111715612b1557612b14612abe565b5b80604052505050565b6000612b28612351565b9050612b348282612aed565b919050565b600067ffffffffffffffff821115612b5457612b53612abe565b5b612b5d82612458565b9050602081019050919050565b82818337600083830152505050565b6000612b8c612b8784612b39565b612b1e565b905082815260208101848484011115612ba857612ba7612ab9565b5b612bb3848285612b6a565b509392505050565b600082601f830112612bd057612bcf612ab4565b5b8135612be0848260208601612b79565b91505092915050565b612bf2816123f0565b8114612bfd57600080fd5b50565b600081359050612c0f81612be9565b92915050565b600080600080600060a08688031215612c3157612c3061235b565b5b600086013567ffffffffffffffff811115612c4f57612c4e612360565b5b612c5b88828901612bbb565b955050602086013567ffffffffffffffff811115612c7c57612c7b612360565b5b612c8888828901612bbb565b945050604086013567ffffffffffffffff811115612ca957612ca8612360565b5b612cb588828901612bbb565b9350506060612cc688828901612c00565b9250506080612cd788828901612c00565b9150509295509295909350565b60008060408385031215612cfb57612cfa61235b565b5b6000612d09858286016123ae565b9250506020612d1a85828601612c00565b9150509250929050565b600060208284031215612d3a57612d3961235b565b5b6000612d4884828501612c00565b91505092915050565b6000608082019050612d6660008301876123fa565b612d7360208301866124a2565b612d8060408301856124a2565b612d8d60608301846123fa565b95945050505050565b6000602082019050612dab60008301846124a2565b92915050565b6000602082019050612dc660008301846123fa565b92915050565b7f646f6e2774206861766520612070726f70657274790000000000000000000000600082015250565b6000612e02601583612414565b9150612e0d82612dcc565b602082019050919050565b60006020820190508181036000830152612e3181612df5565b9050919050565b7f4e487b7100000000000000000000000000000000000000000000000000000000600052602260045260246000fd5b60006002820490506001821680612e7f57607f821691505b60208210811415612e9357612e92612e38565b5b50919050565b7f616c72656164792070726f70657274792072656e746564000000000000000000600082015250565b6000612ecf601783612414565b9150612eda82612e99565b602082019050919050565b60006020820190508181036000830152612efe81612ec2565b9050919050565b7f4e487b7100000000000000000000000000000000000000000000000000000000600052603260045260246000fd5b7f77726f6e6720616d6f756e740000000000000000000000000000000000000000600082015250565b6000612f6a600c83612414565b9150612f7582612f34565b602082019050919050565b60006020820190508181036000830152612f9981612f5d565b9050919050565b7f546869732070726f7065727479206973206e6f7420617661696c61626c65206660008201527f6f722072656e7400000000000000000000000000000000000000000000000000602082015250565b6000612ffc602783612414565b915061300782612fa0565b604082019050919050565b6000602082019050818103600083015261302b81612fef565b9050919050565b7f4e487b7100000000000000000000000000000000000000000000000000000000600052601160045260246000fd5b600061306c826123f0565b9150613077836123f0565b9250827fffffffffffffffffffffffffffffffffffffffffffffffffffffffffffffffff038211156130ac576130ab613032565b5b828201905092915050565b600081905092915050565b50565b60006130d26000836130b7565b91506130dd826130c2565b600082019050919050565b60006130f3826130c5565b9150819050919050565b7f4661696c656420746f207472616e66657220746f6b656e20746f2074656e616e60008201527f7400000000000000000000000000000000000000000000000000000000000000602082015250565b6000613159602183612414565b9150613164826130fd565b604082019050919050565b600060208201905081810360008301526131888161314c565b9050919050565b600061319a826123f0565b91507fffffffffffffffffffffffffffffffffffffffffffffffffffffffffffffffff8214156131cd576131cc613032565b5b600182019050919050565b60006131e3826123f0565b91506131ee836123f0565b92508282101561320157613200613032565b5b82820390509291505056fea26469706673582212201ed35d2d7df7bc9e4df7a4b8e9af59eef86e4b8492f9a13813756819e1e63b4064736f6c63430008090033",
  "immutableReferences": {},
  "source": "// SPDX-License-Identifier: MIT\n\npragma solidity 0.8.9;\n\nimport \"../libraries/Roles.sol\";\nimport \"../libraries/Lessors.sol\";\nimport \"./IRentProperty.sol\";\nimport \"../structs/Payment.sol\";\n\nimport \"@openzeppelin/contracts/utils/math/SafeMath.sol\";\nimport \"@openzeppelin/contracts/access/Ownable.sol\";\n\n/** \n * @title Rent Property contract\n * @author Vickler Charles\n */\ncontract RentProperty is IRentProperty {\n    \n    /*\n      --- Libraries\n    */\n\n    using Roles for Roles.Role;\n    using SafeMath for uint256;\n    using LessorsLib for LessorsLib.Lessors;\n    \n    /*\n      --- Constants\n    */\n    \n    uint public constant MONTH = 2628000;\n\n    /*\n      --- State variables\n    */\n    \n    LessorsLib.Lessors private _lessors;\n    Roles.Role private _lessorRoles;\n    Roles.Role private _tenantRoles;\n\n    \n    mapping(address => LessorsLib.Property) public _tenant;\n    Payment[] public payments;\n    address[] public numOfLessors;\n    \n    \n    /*\n      --- Events\n    */\n\n    \n    /**\n     * @notice Emitted when a tenant rent a property\n     * @param lessor address\n     * @param tenant address\n     * @param propertyId rented property id\n    */\n    event PropertyRented(address indexed lessor, address indexed tenant, uint propertyId);\n\n\n    /**\n     * @notice Emitted when a property is created\n    */\n    event PropertyCreated();\n    \n    \n    /*\n      --- Funtions modifiers\n    */\n    \n    modifier onlyTenantsWithoutRentedProperties() {\n        require(_tenant[msg.sender].tenant == address(0), \"already property rented\");\n        _;\n    }\n    \n\n    /// @return lessors list\n    function getLessors() public view override returns (LessorsLib.Lessor[] memory) {\n        return _lessors.getLessors(numOfLessors);\n    }\n    \n    \n     /**\n     * @notice create a new payment\n     * @param amount the payment amount\n     * @param to who sends the payment\n     * @param from who receive the payment\n     * @param date payment date in seconds\n    */\n    function createPayment(uint amount, address to, address from, uint date) private returns(Payment memory) {\n        Payment memory payment = Payment(amount, from, to, date);\n        payments.push(payment);\n        return payment;\n    }\n\n     /**\n     * @notice rent property\n     * @param lessorAddress property lessor address\n     * @param propertyId property id to rent\n    */\n    function rentProperty(address lessorAddress, uint propertyId) public override payable onlyTenantsWithoutRentedProperties {\n        LessorsLib.Lessor storage lessor = _lessors.getLessor(lessorAddress);\n        LessorsLib.Property storage property = lessor.properties[propertyId];\n        uint256 montlyPrice = property.montlyPrice;\n        uint256 depositPrice = property.depositPrice;\n        \n        uint256 value = msg.value;\n        uint256 deposit = value.sub(montlyPrice);\n        uint256 amountToTransfer = value.sub(deposit);\n        \n        require(montlyPrice.add(depositPrice) == value, \"wrong amount\");\n        require(property.available == true, \"This property is not available for rent\");\n        \n        // Update lessor property \n        property.tenant = payable(msg.sender); \n        property.available = false;\n        property.depositAmount = deposit;\n        property.lastPayment = createPayment(amountToTransfer, msg.sender, lessor.owner, block.timestamp);\n        property.nextPayment = block.timestamp + MONTH;\n        \n        // Set rented poperty to tenant\n        _tenant[msg.sender] = property;\n        _tenantRoles.add(msg.sender);\n\n        // Transfer tokens to property owner\n        (bool sent, ) = lessor.owner.call{value: amountToTransfer}(\"\");\n        require(sent, \"Failed to tranfer token to tenant\");\n        \n        emit PropertyRented(property.tenant, msg.sender,  property.id);\n    }\n    \n    /// @notice Returns propery by tenant address.\n    function getPropertyByTenant(address _address)\n        public\n        view\n        override\n        returns (\n            uint256 id,\n            string memory title,\n            string memory description,\n            string memory imgUrl,\n            uint256 depositPrice,\n            uint256 montlyPrice,\n            address tenant,\n            address owner,\n            bool available,\n            Payment memory lastPayment,\n            uint256 nextPayment\n            \n        )\n    {\n            require(_tenantRoles.has(_address), \"don't have a property\");\n            id = _tenant[_address].id;\n            title = _tenant[_address].title;\n            description = _tenant[_address].description;\n            imgUrl = _tenant[_address].imgUrl;\n            depositPrice = _tenant[_address].depositPrice;\n            montlyPrice = _tenant[_address].montlyPrice;\n            tenant = _tenant[_address].tenant;\n            owner = _tenant[_address].lessor;\n            available = _tenant[_address].available;\n            lastPayment = _tenant[_address].lastPayment;\n            nextPayment = _tenant[_address].nextPayment;\n            \n    }\n    \n    /**\n     * @dev create new property\n     * @param _title the property title\n     * @param _description the property description\n     * @param _imgUrl the property image url\n     * @param _amount the property amount\n     * @param _deposit the property deposit\n    */\n    function createProperty(\n        string memory _title,\n        string memory _description,\n        string memory _imgUrl,\n        uint256 _amount,\n        uint256 _deposit\n    ) public override {\n        LessorsLib.Lessor storage lessor = _lessors.createProperty(_title, _description, _imgUrl, _amount, _deposit);\n     \n       if(lessor.owner == address(0)) {\n          lessor.owner = payable(msg.sender);\n          numOfLessors.push(msg.sender);\n         _lessorRoles.add(msg.sender);\n       }\n\n        emit PropertyCreated();\n    }\n}\n",
  "sourcePath": "/Users/vicklercharles/Desktop/smart-contracts/blockchain-developer-bootcamp-final-project/contracts/RentProperty.sol",
  "compiler": {
    "name": "solc",
    "version": "0.8.9+commit.e5eed63a.Emscripten.clang"
  },
  "schemaVersion": "3.4.3",
  "updatedAt": "2021-11-30T22:56:42.306Z",
  "devdoc": {
    "author": "Vickler Charles",
    "events": {
      "PropertyRented(address,address,uint256)": {
        "params": {
          "lessor": "address",
          "propertyId": "rented property id",
          "tenant": "address"
        }
      }
    },
    "kind": "dev",
    "methods": {
      "createProperty(string,string,string,uint256,uint256)": {
        "details": "create new property",
        "params": {
          "_amount": "the property amount",
          "_deposit": "the property deposit",
          "_description": "the property description",
          "_imgUrl": "the property image url",
          "_title": "the property title"
        }
      },
      "getLessors()": {
        "returns": {
          "_0": "lessors list"
        }
      },
      "rentProperty(address,uint256)": {
        "params": {
          "lessorAddress": "property lessor address",
          "propertyId": "property id to rent"
        }
      }
    },
    "title": "Rent Property contract",
    "version": 1
  },
  "userdoc": {
    "events": {
      "PropertyCreated()": {
        "notice": "Emitted when a property is created"
      },
      "PropertyRented(address,address,uint256)": {
        "notice": "Emitted when a tenant rent a property"
      }
    },
    "kind": "user",
    "methods": {
      "getPropertyByTenant(address)": {
        "notice": "Returns propery by tenant address."
      },
      "rentProperty(address,uint256)": {
        "notice": "rent property"
      }
    },
    "version": 1
  }
}