{
  "contractName": "RentProperty",
  "abi": [
    {
      "anonymous": false,
      "inputs": [
        {
          "indexed": true,
          "internalType": "address",
          "name": "lessor",
          "type": "address"
        },
        {
          "indexed": false,
          "internalType": "uint256",
          "name": "propertyId",
          "type": "uint256"
        }
      ],
      "name": "PropertyCreated",
      "type": "event"
    },
    {
      "anonymous": false,
      "inputs": [
        {
          "indexed": true,
          "internalType": "address",
          "name": "lessor",
          "type": "address"
        },
        {
          "indexed": true,
          "internalType": "address",
          "name": "tenant",
          "type": "address"
        },
        {
          "indexed": false,
          "internalType": "uint256",
          "name": "propertyId",
          "type": "uint256"
        }
      ],
      "name": "PropertyRented",
      "type": "event"
    },
    {
      "inputs": [
        {
          "internalType": "uint256",
          "name": "",
          "type": "uint256"
        }
      ],
      "name": "numOfLessors",
      "outputs": [
        {
          "internalType": "address",
          "name": "",
          "type": "address"
        }
      ],
      "stateMutability": "view",
      "type": "function"
    },
    {
      "inputs": [
        {
          "internalType": "address",
          "name": "",
          "type": "address"
        }
      ],
      "name": "tenant",
      "outputs": [
        {
          "internalType": "uint256",
          "name": "id",
          "type": "uint256"
        },
        {
          "internalType": "string",
          "name": "title",
          "type": "string"
        },
        {
          "internalType": "string",
          "name": "description",
          "type": "string"
        },
        {
          "internalType": "uint256",
          "name": "montlyPrice",
          "type": "uint256"
        },
        {
          "internalType": "uint256",
          "name": "depositAmount",
          "type": "uint256"
        },
        {
          "internalType": "uint256",
          "name": "depositPrice",
          "type": "uint256"
        },
        {
          "internalType": "address",
          "name": "lessor",
          "type": "address"
        },
        {
          "internalType": "address payable",
          "name": "tenant",
          "type": "address"
        },
        {
          "internalType": "bool",
          "name": "available",
          "type": "bool"
        }
      ],
      "stateMutability": "view",
      "type": "function"
    },
    {
      "inputs": [],
      "name": "getLessors",
      "outputs": [
        {
          "components": [
            {
              "internalType": "address payable",
              "name": "owner",
              "type": "address"
            },
            {
              "internalType": "uint256",
              "name": "numOfProperties",
              "type": "uint256"
            },
            {
              "components": [
                {
                  "internalType": "uint256",
                  "name": "id",
                  "type": "uint256"
                },
                {
                  "internalType": "string",
                  "name": "title",
                  "type": "string"
                },
                {
                  "internalType": "string",
                  "name": "description",
                  "type": "string"
                },
                {
                  "internalType": "uint256",
                  "name": "montlyPrice",
                  "type": "uint256"
                },
                {
                  "internalType": "uint256",
                  "name": "depositAmount",
                  "type": "uint256"
                },
                {
                  "internalType": "uint256",
                  "name": "depositPrice",
                  "type": "uint256"
                },
                {
                  "internalType": "address",
                  "name": "lessor",
                  "type": "address"
                },
                {
                  "internalType": "address payable",
                  "name": "tenant",
                  "type": "address"
                },
                {
                  "internalType": "bool",
                  "name": "available",
                  "type": "bool"
                }
              ],
              "internalType": "struct LessorsLib.Property[]",
              "name": "properties",
              "type": "tuple[]"
            }
          ],
          "internalType": "struct LessorsLib.Lessor[]",
          "name": "",
          "type": "tuple[]"
        }
      ],
      "stateMutability": "view",
      "type": "function"
    },
    {
      "inputs": [],
      "name": "getNumOfLessors",
      "outputs": [
        {
          "internalType": "uint256",
          "name": "",
          "type": "uint256"
        }
      ],
      "stateMutability": "view",
      "type": "function"
    },
    {
      "inputs": [
        {
          "internalType": "address",
          "name": "lessorAddress",
          "type": "address"
        },
        {
          "internalType": "uint256",
          "name": "propertyId",
          "type": "uint256"
        }
      ],
      "name": "rentProperty",
      "outputs": [],
      "stateMutability": "payable",
      "type": "function"
    },
    {
      "inputs": [
        {
          "internalType": "address",
          "name": "_address",
          "type": "address"
        }
      ],
      "name": "getPropertyByTenant",
      "outputs": [
        {
          "internalType": "uint256",
          "name": "id",
          "type": "uint256"
        },
        {
          "internalType": "string",
          "name": "title",
          "type": "string"
        },
        {
          "internalType": "string",
          "name": "description",
          "type": "string"
        },
        {
          "internalType": "uint256",
          "name": "depositPrice",
          "type": "uint256"
        },
        {
          "internalType": "uint256",
          "name": "montlyPrice",
          "type": "uint256"
        },
        {
          "internalType": "address",
          "name": "currentTenant",
          "type": "address"
        },
        {
          "internalType": "address",
          "name": "owner",
          "type": "address"
        },
        {
          "internalType": "bool",
          "name": "available",
          "type": "bool"
        }
      ],
      "stateMutability": "view",
      "type": "function"
    },
    {
      "inputs": [
        {
          "internalType": "string",
          "name": "_title",
          "type": "string"
        },
        {
          "internalType": "string",
          "name": "_description",
          "type": "string"
        },
        {
          "internalType": "uint256",
          "name": "_amount",
          "type": "uint256"
        },
        {
          "internalType": "uint256",
          "name": "_deposit",
          "type": "uint256"
        }
      ],
      "name": "createProperty",
      "outputs": [],
      "stateMutability": "nonpayable",
      "type": "function"
    }
  ],
  "bytecode": "0x608060405234801561001057600080fd5b50612270806100206000396000f3fe6080604052600436106100705760003560e01c8063751eaa0a1161004e578063751eaa0a1461010d5780638aa6716f14610129578063eb91674014610166578063f9015a7d1461019157610070565b80631a974aa9146100755780631d26538f146100b957806326e55796146100e2575b600080fd5b34801561008157600080fd5b5061009c6004803603810190610097919061176e565b6101d6565b6040516100b0989796959493929190611877565b60405180910390f35b3480156100c557600080fd5b506100e060048036038101906100db9190611a64565b610573565b005b3480156100ee57600080fd5b506100f76106ac565b6040516101049190611e3b565b60405180910390f35b61012760048036038101906101229190611e5d565b61074d565b005b34801561013557600080fd5b50610150600480360381019061014b9190611e9d565b610b8f565b60405161015d9190611eca565b60405180910390f35b34801561017257600080fd5b5061017b610bce565b6040516101889190611ee5565b60405180910390f35b34801561019d57600080fd5b506101b860048036038101906101b3919061176e565b610bdb565b6040516101cd99989796959493929190611f0f565b60405180910390f35b60006060806000806000806000600360008a73ffffffffffffffffffffffffffffffffffffffff1673ffffffffffffffffffffffffffffffffffffffff168152602001908152602001600020600001549750600360008a73ffffffffffffffffffffffffffffffffffffffff1673ffffffffffffffffffffffffffffffffffffffff168152602001908152602001600020600101805461027590611fd9565b80601f01602080910402602001604051908101604052809291908181526020018280546102a190611fd9565b80156102ee5780601f106102c3576101008083540402835291602001916102ee565b820191906000526020600020905b8154815290600101906020018083116102d157829003601f168201915b50505050509650600360008a73ffffffffffffffffffffffffffffffffffffffff1673ffffffffffffffffffffffffffffffffffffffff168152602001908152602001600020600201805461034290611fd9565b80601f016020809104026020016040519081016040528092919081815260200182805461036e90611fd9565b80156103bb5780601f10610390576101008083540402835291602001916103bb565b820191906000526020600020905b81548152906001019060200180831161039e57829003601f168201915b50505050509550600360008a73ffffffffffffffffffffffffffffffffffffffff1673ffffffffffffffffffffffffffffffffffffffff168152602001908152602001600020600501549450600360008a73ffffffffffffffffffffffffffffffffffffffff1673ffffffffffffffffffffffffffffffffffffffff168152602001908152602001600020600301549350600360008a73ffffffffffffffffffffffffffffffffffffffff1673ffffffffffffffffffffffffffffffffffffffff16815260200190815260200160002060070160009054906101000a900473ffffffffffffffffffffffffffffffffffffffff169250600360008a73ffffffffffffffffffffffffffffffffffffffff1673ffffffffffffffffffffffffffffffffffffffff16815260200190815260200160002060060160009054906101000a900473ffffffffffffffffffffffffffffffffffffffff169150600360008a73ffffffffffffffffffffffffffffffffffffffff1673ffffffffffffffffffffffffffffffffffffffff16815260200190815260200160002060070160149054906101000a900460ff169050919395975091939597565b600061058f858585856000610d8690949392919063ffffffff16565b9050600073ffffffffffffffffffffffffffffffffffffffff168160000160009054906101000a900473ffffffffffffffffffffffffffffffffffffffff1673ffffffffffffffffffffffffffffffffffffffff1614156106a557338160000160006101000a81548173ffffffffffffffffffffffffffffffffffffffff021916908373ffffffffffffffffffffffffffffffffffffffff1602179055506004339080600181540180825580915050600190039060005260206000200160009091909190916101000a81548173ffffffffffffffffffffffffffffffffffffffff021916908373ffffffffffffffffffffffffffffffffffffffff1602179055506106a4336001610fb090919063ffffffff16565b5b5050505050565b6060610748600480548060200260200160405190810160405280929190818152602001828054801561073357602002820191906000526020600020905b8160009054906101000a900473ffffffffffffffffffffffffffffffffffffffff1673ffffffffffffffffffffffffffffffffffffffff16815260200190600101908083116106e9575b5050505050600061105c90919063ffffffff16565b905090565b600061076383600061143e90919063ffffffff16565b9050600081600201838154811061077d5761077c61200b565b5b906000526020600020906008020190506000816003015490506000826005015490506000349050600083826107b29190612069565b9050600081836107c29190612069565b90508284866107d1919061209d565b14610811576040517f08c379a00000000000000000000000000000000000000000000000000000000081526004016108089061213f565b60405180910390fd5b600115158660070160149054906101000a900460ff16151514610869576040517f08c379a0000000000000000000000000000000000000000000000000000000008152600401610860906121d1565b60405180910390fd5b338660070160006101000a81548173ffffffffffffffffffffffffffffffffffffffff021916908373ffffffffffffffffffffffffffffffffffffffff16021790555060008660070160146101000a81548160ff0219169083151502179055508186600401819055508660000160009054906101000a900473ffffffffffffffffffffffffffffffffffffffff1673ffffffffffffffffffffffffffffffffffffffff166108fc829081150290604051600060405180830381858888f1935050505015801561093c573d6000803e3d6000fd5b5085600360003373ffffffffffffffffffffffffffffffffffffffff1673ffffffffffffffffffffffffffffffffffffffff16815260200190815260200160002060008201548160000155600182018160010190805461099b90611fd9565b6109a692919061151b565b5060028201816002019080546109bb90611fd9565b6109c692919061151b565b506003820154816003015560048201548160040155600582015481600501556006820160009054906101000a900473ffffffffffffffffffffffffffffffffffffffff168160060160006101000a81548173ffffffffffffffffffffffffffffffffffffffff021916908373ffffffffffffffffffffffffffffffffffffffff1602179055506007820160009054906101000a900473ffffffffffffffffffffffffffffffffffffffff168160070160006101000a81548173ffffffffffffffffffffffffffffffffffffffff021916908373ffffffffffffffffffffffffffffffffffffffff1602179055506007820160149054906101000a900460ff168160070160146101000a81548160ff021916908315150217905550905050610af7336002610fb090919063ffffffff16565b3373ffffffffffffffffffffffffffffffffffffffff168660070160009054906101000a900473ffffffffffffffffffffffffffffffffffffffff1673ffffffffffffffffffffffffffffffffffffffff167f4fc3a676fdeef8973dc185dc49c43ba446e6c7e00c459a429b5dee5d6b92907f8860000154604051610b7c9190611ee5565b60405180910390a3505050505050505050565b60048181548110610b9f57600080fd5b906000526020600020016000915054906101000a900473ffffffffffffffffffffffffffffffffffffffff1681565b6000600480549050905090565b6003602052806000526040600020600091509050806000015490806001018054610c0490611fd9565b80601f0160208091040260200160405190810160405280929190818152602001828054610c3090611fd9565b8015610c7d5780601f10610c5257610100808354040283529160200191610c7d565b820191906000526020600020905b815481529060010190602001808311610c6057829003601f168201915b505050505090806002018054610c9290611fd9565b80601f0160208091040260200160405190810160405280929190818152602001828054610cbe90611fd9565b8015610d0b5780601f10610ce057610100808354040283529160200191610d0b565b820191906000526020600020905b815481529060010190602001808311610cee57829003601f168201915b5050505050908060030154908060040154908060050154908060060160009054906101000a900473ffffffffffffffffffffffffffffffffffffffff16908060070160009054906101000a900473ffffffffffffffffffffffffffffffffffffffff16908060070160149054906101000a900460ff16905089565b6000610d906115a8565b8660000160003373ffffffffffffffffffffffffffffffffffffffff1673ffffffffffffffffffffffffffffffffffffffff168152602001908152602001600020915085816020018190525084816040018190525083816060018181525050828160a0018181525050600181610100019015159081151581525050338160c0019073ffffffffffffffffffffffffffffffffffffffff16908173ffffffffffffffffffffffffffffffffffffffff1681525050816001016000815480929190610e58906121f1565b9190505581600001818152505081600201819080600181540180825580915050600190039060005260206000209060080201600090919091909150600082015181600001556020820151816001019080519060200190610eb9929190611622565b506040820151816002019080519060200190610ed6929190611622565b50606082015181600301556080820151816004015560a0820151816005015560c08201518160060160006101000a81548173ffffffffffffffffffffffffffffffffffffffff021916908373ffffffffffffffffffffffffffffffffffffffff16021790555060e08201518160070160006101000a81548173ffffffffffffffffffffffffffffffffffffffff021916908373ffffffffffffffffffffffffffffffffffffffff1602179055506101008201518160070160146101000a81548160ff02191690831515021790555050505095945050505050565b600073ffffffffffffffffffffffffffffffffffffffff168173ffffffffffffffffffffffffffffffffffffffff161415610fea57600080fd5b610ff48282611489565b15610ffe57600080fd5b60018260000160008373ffffffffffffffffffffffffffffffffffffffff1673ffffffffffffffffffffffffffffffffffffffff16815260200190815260200160002060006101000a81548160ff0219169083151502179055505050565b60606000825190506000835167ffffffffffffffff8111156110815761108061190d565b5b6040519080825280602002602001820160405280156110ba57816020015b6110a76116a8565b81526020019060019003908161109f5790505b50905060005b82811015611432578560000160008683815181106110e1576110e061200b565b5b602002602001015173ffffffffffffffffffffffffffffffffffffffff1673ffffffffffffffffffffffffffffffffffffffff1681526020019081526020016000206040518060600160405290816000820160009054906101000a900473ffffffffffffffffffffffffffffffffffffffff1673ffffffffffffffffffffffffffffffffffffffff1673ffffffffffffffffffffffffffffffffffffffff1681526020016001820154815260200160028201805480602002602001604051908101604052809291908181526020016000905b828210156113f9578382906000526020600020906008020160405180610120016040529081600082015481526020016001820180546111f190611fd9565b80601f016020809104026020016040519081016040528092919081815260200182805461121d90611fd9565b801561126a5780601f1061123f5761010080835404028352916020019161126a565b820191906000526020600020905b81548152906001019060200180831161124d57829003601f168201915b5050505050815260200160028201805461128390611fd9565b80601f01602080910402602001604051908101604052809291908181526020018280546112af90611fd9565b80156112fc5780601f106112d1576101008083540402835291602001916112fc565b820191906000526020600020905b8154815290600101906020018083116112df57829003601f168201915b505050505081526020016003820154815260200160048201548152602001600582015481526020016006820160009054906101000a900473ffffffffffffffffffffffffffffffffffffffff1673ffffffffffffffffffffffffffffffffffffffff1673ffffffffffffffffffffffffffffffffffffffff1681526020016007820160009054906101000a900473ffffffffffffffffffffffffffffffffffffffff1673ffffffffffffffffffffffffffffffffffffffff1673ffffffffffffffffffffffffffffffffffffffff1681526020016007820160149054906101000a900460ff161515151581525050815260200190600101906111b3565b50505050815250508282815181106114145761141361200b565b5b6020026020010181905250808061142a906121f1565b9150506110c0565b50809250505092915050565b60008260000160008373ffffffffffffffffffffffffffffffffffffffff1673ffffffffffffffffffffffffffffffffffffffff168152602001908152602001600020905092915050565b60008073ffffffffffffffffffffffffffffffffffffffff168273ffffffffffffffffffffffffffffffffffffffff1614156114c457600080fd5b8260000160008373ffffffffffffffffffffffffffffffffffffffff1673ffffffffffffffffffffffffffffffffffffffff16815260200190815260200160002060009054906101000a900460ff16905092915050565b82805461152790611fd9565b90600052602060002090601f0160209004810192826115495760008555611597565b82601f1061155a5780548555611597565b8280016001018555821561159757600052602060002091601f016020900482015b8281111561159657825482559160010191906001019061157b565b5b5090506115a491906116df565b5090565b604051806101200160405280600081526020016060815260200160608152602001600081526020016000815260200160008152602001600073ffffffffffffffffffffffffffffffffffffffff168152602001600073ffffffffffffffffffffffffffffffffffffffff1681526020016000151581525090565b82805461162e90611fd9565b90600052602060002090601f0160209004810192826116505760008555611697565b82601f1061166957805160ff1916838001178555611697565b82800160010185558215611697579182015b8281111561169657825182559160200191906001019061167b565b5b5090506116a491906116df565b5090565b6040518060600160405280600073ffffffffffffffffffffffffffffffffffffffff16815260200160008152602001606081525090565b5b808211156116f85760008160009055506001016116e0565b5090565b6000604051905090565b600080fd5b600080fd5b600073ffffffffffffffffffffffffffffffffffffffff82169050919050565b600061173b82611710565b9050919050565b61174b81611730565b811461175657600080fd5b50565b60008135905061176881611742565b92915050565b60006020828403121561178457611783611706565b5b600061179284828501611759565b91505092915050565b6000819050919050565b6117ae8161179b565b82525050565b600081519050919050565b600082825260208201905092915050565b60005b838110156117ee5780820151818401526020810190506117d3565b838111156117fd576000848401525b50505050565b6000601f19601f8301169050919050565b600061181f826117b4565b61182981856117bf565b93506118398185602086016117d0565b61184281611803565b840191505092915050565b61185681611730565b82525050565b60008115159050919050565b6118718161185c565b82525050565b60006101008201905061188d600083018b6117a5565b818103602083015261189f818a611814565b905081810360408301526118b38189611814565b90506118c260608301886117a5565b6118cf60808301876117a5565b6118dc60a083018661184d565b6118e960c083018561184d565b6118f660e0830184611868565b9998505050505050505050565b600080fd5b600080fd5b7f4e487b7100000000000000000000000000000000000000000000000000000000600052604160045260246000fd5b61194582611803565b810181811067ffffffffffffffff821117156119645761196361190d565b5b80604052505050565b60006119776116fc565b9050611983828261193c565b919050565b600067ffffffffffffffff8211156119a3576119a261190d565b5b6119ac82611803565b9050602081019050919050565b82818337600083830152505050565b60006119db6119d684611988565b61196d565b9050828152602081018484840111156119f7576119f6611908565b5b611a028482856119b9565b509392505050565b600082601f830112611a1f57611a1e611903565b5b8135611a2f8482602086016119c8565b91505092915050565b611a418161179b565b8114611a4c57600080fd5b50565b600081359050611a5e81611a38565b92915050565b60008060008060808587031215611a7e57611a7d611706565b5b600085013567ffffffffffffffff811115611a9c57611a9b61170b565b5b611aa887828801611a0a565b945050602085013567ffffffffffffffff811115611ac957611ac861170b565b5b611ad587828801611a0a565b9350506040611ae687828801611a4f565b9250506060611af787828801611a4f565b91505092959194509250565b600081519050919050565b600082825260208201905092915050565b6000819050602082019050919050565b6000611b3a82611710565b9050919050565b611b4a81611b2f565b82525050565b611b598161179b565b82525050565b600081519050919050565b600082825260208201905092915050565b6000819050602082019050919050565b600082825260208201905092915050565b6000611ba7826117b4565b611bb18185611b8b565b9350611bc18185602086016117d0565b611bca81611803565b840191505092915050565b611bde81611730565b82525050565b611bed8161185c565b82525050565b600061012083016000830151611c0c6000860182611b50565b5060208301518482036020860152611c248282611b9c565b91505060408301518482036040860152611c3e8282611b9c565b9150506060830151611c536060860182611b50565b506080830151611c666080860182611b50565b5060a0830151611c7960a0860182611b50565b5060c0830151611c8c60c0860182611bd5565b5060e0830151611c9f60e0860182611b41565b50610100830151611cb4610100860182611be4565b508091505092915050565b6000611ccb8383611bf3565b905092915050565b6000602082019050919050565b6000611ceb82611b5f565b611cf58185611b6a565b935083602082028501611d0785611b7b565b8060005b85811015611d435784840389528151611d248582611cbf565b9450611d2f83611cd3565b925060208a01995050600181019050611d0b565b50829750879550505050505092915050565b6000606083016000830151611d6d6000860182611b41565b506020830151611d806020860182611b50565b5060408301518482036040860152611d988282611ce0565b9150508091505092915050565b6000611db18383611d55565b905092915050565b6000602082019050919050565b6000611dd182611b03565b611ddb8185611b0e565b935083602082028501611ded85611b1f565b8060005b85811015611e295784840389528151611e0a8582611da5565b9450611e1583611db9565b925060208a01995050600181019050611df1565b50829750879550505050505092915050565b60006020820190508181036000830152611e558184611dc6565b905092915050565b60008060408385031215611e7457611e73611706565b5b6000611e8285828601611759565b9250506020611e9385828601611a4f565b9150509250929050565b600060208284031215611eb357611eb2611706565b5b6000611ec184828501611a4f565b91505092915050565b6000602082019050611edf600083018461184d565b92915050565b6000602082019050611efa60008301846117a5565b92915050565b611f0981611b2f565b82525050565b600061012082019050611f25600083018c6117a5565b8181036020830152611f37818b611814565b90508181036040830152611f4b818a611814565b9050611f5a60608301896117a5565b611f6760808301886117a5565b611f7460a08301876117a5565b611f8160c083018661184d565b611f8e60e0830185611f00565b611f9c610100830184611868565b9a9950505050505050505050565b7f4e487b7100000000000000000000000000000000000000000000000000000000600052602260045260246000fd5b60006002820490506001821680611ff157607f821691505b6020821081141561200557612004611faa565b5b50919050565b7f4e487b7100000000000000000000000000000000000000000000000000000000600052603260045260246000fd5b7f4e487b7100000000000000000000000000000000000000000000000000000000600052601160045260246000fd5b60006120748261179b565b915061207f8361179b565b9250828210156120925761209161203a565b5b828203905092915050565b60006120a88261179b565b91506120b38361179b565b9250827fffffffffffffffffffffffffffffffffffffffffffffffffffffffffffffffff038211156120e8576120e761203a565b5b828201905092915050565b7f596f7520646f6e2774206861766520656e6f7567682065746865720000000000600082015250565b6000612129601b836117bf565b9150612134826120f3565b602082019050919050565b600060208201905081810360008301526121588161211c565b9050919050565b7f546869732070726f7065727479206973206e6f7420617661696c61626c65206660008201527f6f722072656e7400000000000000000000000000000000000000000000000000602082015250565b60006121bb6027836117bf565b91506121c68261215f565b604082019050919050565b600060208201905081810360008301526121ea816121ae565b9050919050565b60006121fc8261179b565b91507fffffffffffffffffffffffffffffffffffffffffffffffffffffffffffffffff82141561222f5761222e61203a565b5b60018201905091905056fea2646970667358221220069c3357f6b5b8263aeca2ec68daf67ac3bcdba18ccae10eafc830afef777b9064736f6c63430008090033",
  "immutableReferences": {},
  "source": "// SPDX-License-Identifier: MIT\n\npragma solidity >=0.4.22 <0.9.0;\n\nimport \"../libraries/Roles.sol\";\nimport \"../libraries/Lessors.sol\";\n\ncontract RentProperty {\n     \n    /*\n      --- Libraries\n    */\n    \n    using Roles for Roles.Role;\n    using LessorsLib for LessorsLib.Lessors;\n\n    /*\n      --- State variables\n    */\n    \n    LessorsLib.Lessors private _lessors;\n    Roles.Role private _lessorRoles;\n    Roles.Role private _tenant;\n\n    \n    mapping(address => LessorsLib.Property) public tenant;\n    address[] public numOfLessors;\n    \n    \n     /*\n      --- Events\n    */\n    \n    event PropertyRented(address indexed lessor, address indexed tenant, uint propertyId);\n    event PropertyCreated(address indexed lessor, uint propertyId);\n    \n    \n    /*\n      --- Funtions modifiers\n    */\n    \n    modifier isPropertyOwner() {\n        require(_lessorRoles.has(msg.sender), \"Not property owner\");\n        _;\n    }\n    \n    modifier hasProperty() {\n        require(!_lessorRoles.has(msg.sender), \"has property\");\n        _;\n    }\n    \n    modifier onlyTenant() {\n        require(_tenant.has(msg.sender), \"Not owner\");\n        _;\n    }\n    \n    modifier isTenant() {\n        require(_tenant.has(msg.sender) == false, \"Already has a Property\");\n        _;\n    }\n\n    \n     /**\n     * @dev get all properties for rental\n    */\n    function getLessors() public view returns (LessorsLib.Lessor[] memory) {\n        return _lessors.getLessors(numOfLessors);\n    }\n\n\n     /**\n     * @dev get num of lessor\n    */\n    function getNumOfLessors() public view returns (uint) {\n        return numOfLessors.length;\n    }\n\n     /**\n     * @dev rent a property\n    */\n    function rentProperty(address lessorAddress, uint propertyId) public payable  {\n        LessorsLib.Lessor storage lessor = _lessors.getLessor(lessorAddress);\n        LessorsLib.Property storage property = lessor.properties[propertyId];\n        uint montlyPrice = property.montlyPrice;\n        uint depositPrice = property.depositPrice;\n        \n        uint value = msg.value;\n        uint deposit = value - montlyPrice;\n        uint amountToTransfer = value - deposit;\n        \n        require(montlyPrice + depositPrice == value, \"You don't have enough ether\");\n        require(property.available == true, \"This property is not available for rent\");\n        \n        // update lessor property \n        property.tenant = payable(msg.sender); \n        property.available = false;\n        property.depositAmount = deposit;\n\n        // transfer token to lessor \n        lessor.owner.transfer(amountToTransfer);\n        \n        // set rented poperty to tenant\n        tenant[msg.sender] = property;\n        _tenant.add(msg.sender);\n        \n        emit PropertyRented(property.tenant, msg.sender,  property.id);\n    }\n    \n    /**\n     * @dev get single property by address\n    */\n    function getPropertyByTenant(address _address)\n        public\n        view\n        returns (\n            uint256 id,\n            string memory title,\n            string memory description,\n            uint256 depositPrice,\n            uint256 montlyPrice,\n            address currentTenant,\n            address owner,\n            bool available\n            \n        )\n    {\n            id = tenant[_address].id;\n            title = tenant[_address].title;\n            description = tenant[_address].description;\n            depositPrice = tenant[_address].depositPrice;\n            montlyPrice = tenant[_address].montlyPrice;\n            currentTenant = tenant[_address].tenant;\n            owner = tenant[_address].lessor;\n            available = tenant[_address].available;\n            \n    }\n    \n    /**\n     * @dev create new porpery ang get lessor role\n    */\n    function createProperty(\n        string memory _title,\n        string memory _description,\n        uint256 _amount,\n        uint256 _deposit\n    ) public {\n        LessorsLib.Lessor storage lessor = _lessors.createProperty(_title, _description, _amount, _deposit);\n     \n       // check if created lessor already exits\n       if(lessor.owner == address(0)) {\n          lessor.owner = payable(msg.sender);\n          numOfLessors.push(msg.sender);\n         _lessorRoles.add(msg.sender);\n       }\n    }\n}\n",
  "sourcePath": "/Users/vicklercharles/Desktop/smart-contracts/blockchain-developer-bootcamp-final-project/contracts/RentProperty.sol",
  "compiler": {
    "name": "solc",
    "version": "0.8.9+commit.e5eed63a.Emscripten.clang"
  },
  "schemaVersion": "3.4.3",
  "updatedAt": "2021-11-19T11:52:51.560Z",
  "devdoc": {
    "kind": "dev",
    "methods": {
      "createProperty(string,string,uint256,uint256)": {
        "details": "create new porpery ang get lessor role"
      },
      "getLessors()": {
        "details": "get all properties for rental"
      },
      "getNumOfLessors()": {
        "details": "get num of lessor"
      },
      "getPropertyByTenant(address)": {
        "details": "get single property by address"
      },
      "rentProperty(address,uint256)": {
        "details": "rent a property"
      }
    },
    "version": 1
  },
  "userdoc": {
    "kind": "user",
    "methods": {},
    "version": 1
  }
}