{
  "contractName": "RentProperty",
  "abi": [
    {
      "anonymous": false,
      "inputs": [],
      "name": "PropertyCreated",
      "type": "event"
    },
    {
      "anonymous": false,
      "inputs": [
        {
          "indexed": true,
          "internalType": "address",
          "name": "lessor",
          "type": "address"
        },
        {
          "indexed": true,
          "internalType": "address",
          "name": "tenant",
          "type": "address"
        },
        {
          "indexed": false,
          "internalType": "uint256",
          "name": "propertyId",
          "type": "uint256"
        }
      ],
      "name": "PropertyRented",
      "type": "event"
    },
    {
      "inputs": [],
      "name": "MONTH",
      "outputs": [
        {
          "internalType": "uint256",
          "name": "",
          "type": "uint256"
        }
      ],
      "stateMutability": "view",
      "type": "function",
      "constant": true
    },
    {
      "inputs": [
        {
          "internalType": "address",
          "name": "",
          "type": "address"
        }
      ],
      "name": "_tenant",
      "outputs": [
        {
          "internalType": "uint256",
          "name": "id",
          "type": "uint256"
        },
        {
          "internalType": "string",
          "name": "title",
          "type": "string"
        },
        {
          "internalType": "string",
          "name": "description",
          "type": "string"
        },
        {
          "internalType": "string",
          "name": "imgUrl",
          "type": "string"
        },
        {
          "internalType": "uint256",
          "name": "montlyPrice",
          "type": "uint256"
        },
        {
          "internalType": "uint256",
          "name": "depositAmount",
          "type": "uint256"
        },
        {
          "internalType": "uint256",
          "name": "depositPrice",
          "type": "uint256"
        },
        {
          "internalType": "address",
          "name": "lessor",
          "type": "address"
        },
        {
          "internalType": "address payable",
          "name": "tenant",
          "type": "address"
        },
        {
          "components": [
            {
              "internalType": "uint256",
              "name": "amount",
              "type": "uint256"
            },
            {
              "internalType": "address",
              "name": "from",
              "type": "address"
            },
            {
              "internalType": "address",
              "name": "to",
              "type": "address"
            },
            {
              "internalType": "uint256",
              "name": "date",
              "type": "uint256"
            }
          ],
          "internalType": "struct Payment",
          "name": "lastPayment",
          "type": "tuple"
        },
        {
          "internalType": "uint256",
          "name": "nextPayment",
          "type": "uint256"
        },
        {
          "internalType": "bool",
          "name": "available",
          "type": "bool"
        }
      ],
      "stateMutability": "view",
      "type": "function",
      "constant": true
    },
    {
      "inputs": [
        {
          "internalType": "uint256",
          "name": "",
          "type": "uint256"
        }
      ],
      "name": "numOfLessors",
      "outputs": [
        {
          "internalType": "address",
          "name": "",
          "type": "address"
        }
      ],
      "stateMutability": "view",
      "type": "function",
      "constant": true
    },
    {
      "inputs": [
        {
          "internalType": "uint256",
          "name": "",
          "type": "uint256"
        }
      ],
      "name": "payments",
      "outputs": [
        {
          "internalType": "uint256",
          "name": "amount",
          "type": "uint256"
        },
        {
          "internalType": "address",
          "name": "from",
          "type": "address"
        },
        {
          "internalType": "address",
          "name": "to",
          "type": "address"
        },
        {
          "internalType": "uint256",
          "name": "date",
          "type": "uint256"
        }
      ],
      "stateMutability": "view",
      "type": "function",
      "constant": true
    },
    {
      "inputs": [],
      "name": "getLessors",
      "outputs": [
        {
          "components": [
            {
              "internalType": "address payable",
              "name": "owner",
              "type": "address"
            },
            {
              "internalType": "uint256",
              "name": "numOfProperties",
              "type": "uint256"
            },
            {
              "components": [
                {
                  "internalType": "uint256",
                  "name": "id",
                  "type": "uint256"
                },
                {
                  "internalType": "string",
                  "name": "title",
                  "type": "string"
                },
                {
                  "internalType": "string",
                  "name": "description",
                  "type": "string"
                },
                {
                  "internalType": "string",
                  "name": "imgUrl",
                  "type": "string"
                },
                {
                  "internalType": "uint256",
                  "name": "montlyPrice",
                  "type": "uint256"
                },
                {
                  "internalType": "uint256",
                  "name": "depositAmount",
                  "type": "uint256"
                },
                {
                  "internalType": "uint256",
                  "name": "depositPrice",
                  "type": "uint256"
                },
                {
                  "internalType": "address",
                  "name": "lessor",
                  "type": "address"
                },
                {
                  "internalType": "address payable",
                  "name": "tenant",
                  "type": "address"
                },
                {
                  "components": [
                    {
                      "internalType": "uint256",
                      "name": "amount",
                      "type": "uint256"
                    },
                    {
                      "internalType": "address",
                      "name": "from",
                      "type": "address"
                    },
                    {
                      "internalType": "address",
                      "name": "to",
                      "type": "address"
                    },
                    {
                      "internalType": "uint256",
                      "name": "date",
                      "type": "uint256"
                    }
                  ],
                  "internalType": "struct Payment",
                  "name": "lastPayment",
                  "type": "tuple"
                },
                {
                  "internalType": "uint256",
                  "name": "nextPayment",
                  "type": "uint256"
                },
                {
                  "internalType": "bool",
                  "name": "available",
                  "type": "bool"
                }
              ],
              "internalType": "struct LessorsLib.Property[]",
              "name": "properties",
              "type": "tuple[]"
            }
          ],
          "internalType": "struct LessorsLib.Lessor[]",
          "name": "",
          "type": "tuple[]"
        }
      ],
      "stateMutability": "view",
      "type": "function",
      "constant": true
    },
    {
      "inputs": [
        {
          "internalType": "address",
          "name": "lessorAddress",
          "type": "address"
        },
        {
          "internalType": "uint256",
          "name": "propertyId",
          "type": "uint256"
        }
      ],
      "name": "rentProperty",
      "outputs": [],
      "stateMutability": "payable",
      "type": "function",
      "payable": true
    },
    {
      "inputs": [
        {
          "internalType": "address",
          "name": "_address",
          "type": "address"
        }
      ],
      "name": "getPropertyByTenant",
      "outputs": [
        {
          "internalType": "uint256",
          "name": "id",
          "type": "uint256"
        },
        {
          "internalType": "string",
          "name": "title",
          "type": "string"
        },
        {
          "internalType": "string",
          "name": "description",
          "type": "string"
        },
        {
          "internalType": "string",
          "name": "imgUrl",
          "type": "string"
        },
        {
          "internalType": "uint256",
          "name": "depositPrice",
          "type": "uint256"
        },
        {
          "internalType": "uint256",
          "name": "montlyPrice",
          "type": "uint256"
        },
        {
          "internalType": "address",
          "name": "tenant",
          "type": "address"
        },
        {
          "internalType": "address",
          "name": "owner",
          "type": "address"
        },
        {
          "internalType": "bool",
          "name": "available",
          "type": "bool"
        },
        {
          "components": [
            {
              "internalType": "uint256",
              "name": "amount",
              "type": "uint256"
            },
            {
              "internalType": "address",
              "name": "from",
              "type": "address"
            },
            {
              "internalType": "address",
              "name": "to",
              "type": "address"
            },
            {
              "internalType": "uint256",
              "name": "date",
              "type": "uint256"
            }
          ],
          "internalType": "struct Payment",
          "name": "lastPayment",
          "type": "tuple"
        },
        {
          "internalType": "uint256",
          "name": "nextPayment",
          "type": "uint256"
        }
      ],
      "stateMutability": "view",
      "type": "function",
      "constant": true
    },
    {
      "inputs": [
        {
          "internalType": "string",
          "name": "_title",
          "type": "string"
        },
        {
          "internalType": "string",
          "name": "_description",
          "type": "string"
        },
        {
          "internalType": "string",
          "name": "_imgUrl",
          "type": "string"
        },
        {
          "internalType": "uint256",
          "name": "_amount",
          "type": "uint256"
        },
        {
          "internalType": "uint256",
          "name": "_deposit",
          "type": "uint256"
        }
      ],
      "name": "createProperty",
      "outputs": [],
      "stateMutability": "nonpayable",
      "type": "function"
    }
  ],
  "bytecode": "0x608060405234801561001057600080fd5b50612f86806100206000396000f3fe60806040526004361061007b5760003560e01c8063751eaa0a1161004e578063751eaa0a1461016357806387d817891461017f5780638aa6716f146101bf578063d5999a5c146101fc5761007b565b80631a974aa91461008057806326e55796146100c757806364816004146100f25780637472bc381461013a575b600080fd5b34801561008c57600080fd5b506100a760048036038101906100a2919061224b565b610227565b6040516100be9b9a999897969594939291906123c7565b60405180910390f35b3480156100d357600080fd5b506100dc610848565b6040516100e9919061283c565b60405180910390f35b3480156100fe57600080fd5b506101196004803603810190610114919061224b565b6108e9565b6040516101319c9b9a9998979695949392919061286d565b60405180910390f35b34801561014657600080fd5b50610161600480360381019061015c9190612a9d565b610bf8565b005b61017d60048036038101906101789190612b6c565b610d60565b005b34801561018b57600080fd5b506101a660048036038101906101a19190612bac565b6113a8565b6040516101b69493929190612bd9565b60405180910390f35b3480156101cb57600080fd5b506101e660048036038101906101e19190612bac565b611428565b6040516101f39190612c1e565b60405180910390f35b34801561020857600080fd5b50610211611467565b60405161021e9190612c39565b60405180910390f35b60006060806060600080600080600061023e611f89565b60006102548c600261146e90919063ffffffff16565b610293576040517f08c379a000000000000000000000000000000000000000000000000000000000815260040161028a90612ca0565b60405180910390fd5b600360008d73ffffffffffffffffffffffffffffffffffffffff1673ffffffffffffffffffffffffffffffffffffffff168152602001908152602001600020600001549a50600360008d73ffffffffffffffffffffffffffffffffffffffff1673ffffffffffffffffffffffffffffffffffffffff168152602001908152602001600020600101805461032590612cef565b80601f016020809104026020016040519081016040528092919081815260200182805461035190612cef565b801561039e5780601f106103735761010080835404028352916020019161039e565b820191906000526020600020905b81548152906001019060200180831161038157829003601f168201915b50505050509950600360008d73ffffffffffffffffffffffffffffffffffffffff1673ffffffffffffffffffffffffffffffffffffffff16815260200190815260200160002060020180546103f290612cef565b80601f016020809104026020016040519081016040528092919081815260200182805461041e90612cef565b801561046b5780601f106104405761010080835404028352916020019161046b565b820191906000526020600020905b81548152906001019060200180831161044e57829003601f168201915b50505050509850600360008d73ffffffffffffffffffffffffffffffffffffffff1673ffffffffffffffffffffffffffffffffffffffff16815260200190815260200160002060030180546104bf90612cef565b80601f01602080910402602001604051908101604052809291908181526020018280546104eb90612cef565b80156105385780601f1061050d57610100808354040283529160200191610538565b820191906000526020600020905b81548152906001019060200180831161051b57829003601f168201915b50505050509750600360008d73ffffffffffffffffffffffffffffffffffffffff1673ffffffffffffffffffffffffffffffffffffffff168152602001908152602001600020600601549650600360008d73ffffffffffffffffffffffffffffffffffffffff1673ffffffffffffffffffffffffffffffffffffffff168152602001908152602001600020600401549550600360008d73ffffffffffffffffffffffffffffffffffffffff1673ffffffffffffffffffffffffffffffffffffffff16815260200190815260200160002060080160009054906101000a900473ffffffffffffffffffffffffffffffffffffffff169450600360008d73ffffffffffffffffffffffffffffffffffffffff1673ffffffffffffffffffffffffffffffffffffffff16815260200190815260200160002060070160009054906101000a900473ffffffffffffffffffffffffffffffffffffffff169350600360008d73ffffffffffffffffffffffffffffffffffffffff1673ffffffffffffffffffffffffffffffffffffffff168152602001908152602001600020600e0160009054906101000a900460ff169250600360008d73ffffffffffffffffffffffffffffffffffffffff1673ffffffffffffffffffffffffffffffffffffffff168152602001908152602001600020600901604051806080016040529081600082015481526020016001820160009054906101000a900473ffffffffffffffffffffffffffffffffffffffff1673ffffffffffffffffffffffffffffffffffffffff1673ffffffffffffffffffffffffffffffffffffffff1681526020016002820160009054906101000a900473ffffffffffffffffffffffffffffffffffffffff1673ffffffffffffffffffffffffffffffffffffffff1673ffffffffffffffffffffffffffffffffffffffff1681526020016003820154815250509150600360008d73ffffffffffffffffffffffffffffffffffffffff1673ffffffffffffffffffffffffffffffffffffffff168152602001908152602001600020600d0154905091939597999b90929496989a50565b60606108e460058054806020026020016040519081016040528092919081815260200182805480156108cf57602002820191906000526020600020905b8160009054906101000a900473ffffffffffffffffffffffffffffffffffffffff1673ffffffffffffffffffffffffffffffffffffffff1681526020019060010190808311610885575b5050505050600061150090919063ffffffff16565b905090565b600360205280600052604060002060009150905080600001549080600101805461091290612cef565b80601f016020809104026020016040519081016040528092919081815260200182805461093e90612cef565b801561098b5780601f106109605761010080835404028352916020019161098b565b820191906000526020600020905b81548152906001019060200180831161096e57829003601f168201915b5050505050908060020180546109a090612cef565b80601f01602080910402602001604051908101604052809291908181526020018280546109cc90612cef565b8015610a195780601f106109ee57610100808354040283529160200191610a19565b820191906000526020600020905b8154815290600101906020018083116109fc57829003601f168201915b505050505090806003018054610a2e90612cef565b80601f0160208091040260200160405190810160405280929190818152602001828054610a5a90612cef565b8015610aa75780601f10610a7c57610100808354040283529160200191610aa7565b820191906000526020600020905b815481529060010190602001808311610a8a57829003601f168201915b5050505050908060040154908060050154908060060154908060070160009054906101000a900473ffffffffffffffffffffffffffffffffffffffff16908060080160009054906101000a900473ffffffffffffffffffffffffffffffffffffffff169080600901604051806080016040529081600082015481526020016001820160009054906101000a900473ffffffffffffffffffffffffffffffffffffffff1673ffffffffffffffffffffffffffffffffffffffff1673ffffffffffffffffffffffffffffffffffffffff1681526020016002820160009054906101000a900473ffffffffffffffffffffffffffffffffffffffff1673ffffffffffffffffffffffffffffffffffffffff1673ffffffffffffffffffffffffffffffffffffffff1681526020016003820154815250509080600d01549080600e0160009054906101000a900460ff1690508c565b6000610c1686868686866000611a529095949392919063ffffffff16565b9050600073ffffffffffffffffffffffffffffffffffffffff168160000160009054906101000a900473ffffffffffffffffffffffffffffffffffffffff1673ffffffffffffffffffffffffffffffffffffffff161415610d2c57338160000160006101000a81548173ffffffffffffffffffffffffffffffffffffffff021916908373ffffffffffffffffffffffffffffffffffffffff1602179055506005339080600181540180825580915050600190039060005260206000200160009091909190916101000a81548173ffffffffffffffffffffffffffffffffffffffff021916908373ffffffffffffffffffffffffffffffffffffffff160217905550610d2b336001611d5d90919063ffffffff16565b5b7fcacfd486a28a41cf538c0f2926b5e686fdc9508e9ccd6a548447d40f31fe540060405160405180910390a1505050505050565b6000610d76836000611e0990919063ffffffff16565b90506000816002018381548110610d9057610d8f612d21565b5b90600052602060002090600f02019050600081600401549050600082600601549050600034905060008382610dc59190612d7f565b905060008183610dd59190612d7f565b9050828486610de49190612db3565b14610e24576040517f08c379a0000000000000000000000000000000000000000000000000000000008152600401610e1b90612e55565b60405180910390fd5b6001151586600e0160009054906101000a900460ff16151514610e7c576040517f08c379a0000000000000000000000000000000000000000000000000000000008152600401610e7390612ee7565b60405180910390fd5b338660080160006101000a81548173ffffffffffffffffffffffffffffffffffffffff021916908373ffffffffffffffffffffffffffffffffffffffff160217905550600086600e0160006101000a81548160ff021916908315150217905550818660050181905550610f1581338960000160009054906101000a900473ffffffffffffffffffffffffffffffffffffffff1642611e54565b866009016000820151816000015560208201518160010160006101000a81548173ffffffffffffffffffffffffffffffffffffffff021916908373ffffffffffffffffffffffffffffffffffffffff16021790555060408201518160020160006101000a81548173ffffffffffffffffffffffffffffffffffffffff021916908373ffffffffffffffffffffffffffffffffffffffff16021790555060608201518160030155905050622819a042610fcd9190612db3565b86600d01819055508660000160009054906101000a900473ffffffffffffffffffffffffffffffffffffffff1673ffffffffffffffffffffffffffffffffffffffff166108fc829081150290604051600060405180830381858888f1935050505015801561103f573d6000803e3d6000fd5b5085600360003373ffffffffffffffffffffffffffffffffffffffff1673ffffffffffffffffffffffffffffffffffffffff16815260200190815260200160002060008201548160000155600182018160010190805461109e90612cef565b6110a9929190611fdd565b5060028201816002019080546110be90612cef565b6110c9929190611fdd565b5060038201816003019080546110de90612cef565b6110e9929190611fdd565b506004820154816004015560058201548160050155600682015481600601556007820160009054906101000a900473ffffffffffffffffffffffffffffffffffffffff168160070160006101000a81548173ffffffffffffffffffffffffffffffffffffffff021916908373ffffffffffffffffffffffffffffffffffffffff1602179055506008820160009054906101000a900473ffffffffffffffffffffffffffffffffffffffff168160080160006101000a81548173ffffffffffffffffffffffffffffffffffffffff021916908373ffffffffffffffffffffffffffffffffffffffff1602179055506009820181600901600082015481600001556001820160009054906101000a900473ffffffffffffffffffffffffffffffffffffffff168160010160006101000a81548173ffffffffffffffffffffffffffffffffffffffff021916908373ffffffffffffffffffffffffffffffffffffffff1602179055506002820160009054906101000a900473ffffffffffffffffffffffffffffffffffffffff168160020160006101000a81548173ffffffffffffffffffffffffffffffffffffffff021916908373ffffffffffffffffffffffffffffffffffffffff160217905550600382015481600301555050600d82015481600d0155600e820160009054906101000a900460ff1681600e0160006101000a81548160ff021916908315150217905550905050611310336002611d5d90919063ffffffff16565b3373ffffffffffffffffffffffffffffffffffffffff168660080160009054906101000a900473ffffffffffffffffffffffffffffffffffffffff1673ffffffffffffffffffffffffffffffffffffffff167f4fc3a676fdeef8973dc185dc49c43ba446e6c7e00c459a429b5dee5d6b92907f88600001546040516113959190612c39565b60405180910390a3505050505050505050565b600481815481106113b857600080fd5b90600052602060002090600402016000915090508060000154908060010160009054906101000a900473ffffffffffffffffffffffffffffffffffffffff16908060020160009054906101000a900473ffffffffffffffffffffffffffffffffffffffff16908060030154905084565b6005818154811061143857600080fd5b906000526020600020016000915054906101000a900473ffffffffffffffffffffffffffffffffffffffff1681565b622819a081565b60008073ffffffffffffffffffffffffffffffffffffffff168273ffffffffffffffffffffffffffffffffffffffff1614156114a957600080fd5b8260000160008373ffffffffffffffffffffffffffffffffffffffff1673ffffffffffffffffffffffffffffffffffffffff16815260200190815260200160002060009054906101000a900460ff16905092915050565b60606000825190506000835167ffffffffffffffff81111561152557611524612946565b5b60405190808252806020026020018201604052801561155e57816020015b61154b61206a565b8152602001906001900390816115435790505b50905060005b82811015611a465785600001600086838151811061158557611584612d21565b5b602002602001015173ffffffffffffffffffffffffffffffffffffffff1673ffffffffffffffffffffffffffffffffffffffff1681526020019081526020016000206040518060600160405290816000820160009054906101000a900473ffffffffffffffffffffffffffffffffffffffff1673ffffffffffffffffffffffffffffffffffffffff1673ffffffffffffffffffffffffffffffffffffffff1681526020016001820154815260200160028201805480602002602001604051908101604052809291908181526020016000905b82821015611a0d57838290600052602060002090600f0201604051806101800160405290816000820154815260200160018201805461169590612cef565b80601f01602080910402602001604051908101604052809291908181526020018280546116c190612cef565b801561170e5780601f106116e35761010080835404028352916020019161170e565b820191906000526020600020905b8154815290600101906020018083116116f157829003601f168201915b5050505050815260200160028201805461172790612cef565b80601f016020809104026020016040519081016040528092919081815260200182805461175390612cef565b80156117a05780601f10611775576101008083540402835291602001916117a0565b820191906000526020600020905b81548152906001019060200180831161178357829003601f168201915b505050505081526020016003820180546117b990612cef565b80601f01602080910402602001604051908101604052809291908181526020018280546117e590612cef565b80156118325780601f1061180757610100808354040283529160200191611832565b820191906000526020600020905b81548152906001019060200180831161181557829003601f168201915b505050505081526020016004820154815260200160058201548152602001600682015481526020016007820160009054906101000a900473ffffffffffffffffffffffffffffffffffffffff1673ffffffffffffffffffffffffffffffffffffffff1673ffffffffffffffffffffffffffffffffffffffff1681526020016008820160009054906101000a900473ffffffffffffffffffffffffffffffffffffffff1673ffffffffffffffffffffffffffffffffffffffff1673ffffffffffffffffffffffffffffffffffffffff16815260200160098201604051806080016040529081600082015481526020016001820160009054906101000a900473ffffffffffffffffffffffffffffffffffffffff1673ffffffffffffffffffffffffffffffffffffffff1673ffffffffffffffffffffffffffffffffffffffff1681526020016002820160009054906101000a900473ffffffffffffffffffffffffffffffffffffffff1673ffffffffffffffffffffffffffffffffffffffff1673ffffffffffffffffffffffffffffffffffffffff1681526020016003820154815250508152602001600d8201548152602001600e820160009054906101000a900460ff16151515158152505081526020019060010190611657565b5050505081525050828281518110611a2857611a27612d21565b5b60200260200101819052508080611a3e90612f07565b915050611564565b50809250505092915050565b6000611a5c6120a1565b8760000160003373ffffffffffffffffffffffffffffffffffffffff1673ffffffffffffffffffffffffffffffffffffffff168152602001908152602001600020915086816020018190525085816040018190525084816060018190525083816080018181525050828160c0018181525050600181610160019015159081151581525050338160e0019073ffffffffffffffffffffffffffffffffffffffff16908173ffffffffffffffffffffffffffffffffffffffff1681525050816001016000815480929190611b2d90612f07565b91905055816000018181525050816002018190806001815401808255809150506001900390600052602060002090600f0201600090919091909150600082015181600001556020820151816001019080519060200190611b8e929190612136565b506040820151816002019080519060200190611bab929190612136565b506060820151816003019080519060200190611bc8929190612136565b506080820151816004015560a0820151816005015560c0820151816006015560e08201518160070160006101000a81548173ffffffffffffffffffffffffffffffffffffffff021916908373ffffffffffffffffffffffffffffffffffffffff1602179055506101008201518160080160006101000a81548173ffffffffffffffffffffffffffffffffffffffff021916908373ffffffffffffffffffffffffffffffffffffffff160217905550610120820151816009016000820151816000015560208201518160010160006101000a81548173ffffffffffffffffffffffffffffffffffffffff021916908373ffffffffffffffffffffffffffffffffffffffff16021790555060408201518160020160006101000a81548173ffffffffffffffffffffffffffffffffffffffff021916908373ffffffffffffffffffffffffffffffffffffffff16021790555060608201518160030155505061014082015181600d015561016082015181600e0160006101000a81548160ff0219169083151502179055505050509695505050505050565b600073ffffffffffffffffffffffffffffffffffffffff168173ffffffffffffffffffffffffffffffffffffffff161415611d9757600080fd5b611da1828261146e565b15611dab57600080fd5b60018260000160008373ffffffffffffffffffffffffffffffffffffffff1673ffffffffffffffffffffffffffffffffffffffff16815260200190815260200160002060006101000a81548160ff0219169083151502179055505050565b60008260000160008373ffffffffffffffffffffffffffffffffffffffff1673ffffffffffffffffffffffffffffffffffffffff168152602001908152602001600020905092915050565b611e5c611f89565b600060405180608001604052808781526020018573ffffffffffffffffffffffffffffffffffffffff1681526020018673ffffffffffffffffffffffffffffffffffffffff16815260200184815250905060048190806001815401808255809150506001900390600052602060002090600402016000909190919091506000820151816000015560208201518160010160006101000a81548173ffffffffffffffffffffffffffffffffffffffff021916908373ffffffffffffffffffffffffffffffffffffffff16021790555060408201518160020160006101000a81548173ffffffffffffffffffffffffffffffffffffffff021916908373ffffffffffffffffffffffffffffffffffffffff16021790555060608201518160030155505080915050949350505050565b604051806080016040528060008152602001600073ffffffffffffffffffffffffffffffffffffffff168152602001600073ffffffffffffffffffffffffffffffffffffffff168152602001600081525090565b828054611fe990612cef565b90600052602060002090601f01602090048101928261200b5760008555612059565b82601f1061201c5780548555612059565b8280016001018555821561205957600052602060002091601f016020900482015b8281111561205857825482559160010191906001019061203d565b5b50905061206691906121bc565b5090565b6040518060600160405280600073ffffffffffffffffffffffffffffffffffffffff16815260200160008152602001606081525090565b60405180610180016040528060008152602001606081526020016060815260200160608152602001600081526020016000815260200160008152602001600073ffffffffffffffffffffffffffffffffffffffff168152602001600073ffffffffffffffffffffffffffffffffffffffff168152602001612120611f89565b8152602001600081526020016000151581525090565b82805461214290612cef565b90600052602060002090601f01602090048101928261216457600085556121ab565b82601f1061217d57805160ff19168380011785556121ab565b828001600101855582156121ab579182015b828111156121aa57825182559160200191906001019061218f565b5b5090506121b891906121bc565b5090565b5b808211156121d55760008160009055506001016121bd565b5090565b6000604051905090565b600080fd5b600080fd5b600073ffffffffffffffffffffffffffffffffffffffff82169050919050565b6000612218826121ed565b9050919050565b6122288161220d565b811461223357600080fd5b50565b6000813590506122458161221f565b92915050565b600060208284031215612261576122606121e3565b5b600061226f84828501612236565b91505092915050565b6000819050919050565b61228b81612278565b82525050565b600081519050919050565b600082825260208201905092915050565b60005b838110156122cb5780820151818401526020810190506122b0565b838111156122da576000848401525b50505050565b6000601f19601f8301169050919050565b60006122fc82612291565b612306818561229c565b93506123168185602086016122ad565b61231f816122e0565b840191505092915050565b6123338161220d565b82525050565b60008115159050919050565b61234e81612339565b82525050565b61235d81612278565b82525050565b61236c8161220d565b82525050565b6080820160008201516123886000850182612354565b50602082015161239b6020850182612363565b5060408201516123ae6040850182612363565b5060608201516123c16060850182612354565b50505050565b60006101c0820190506123dd600083018e612282565b81810360208301526123ef818d6122f1565b90508181036040830152612403818c6122f1565b90508181036060830152612417818b6122f1565b9050612426608083018a612282565b61243360a0830189612282565b61244060c083018861232a565b61244d60e083018761232a565b61245b610100830186612345565b612469610120830185612372565b6124776101a0830184612282565b9c9b505050505050505050505050565b600081519050919050565b600082825260208201905092915050565b6000819050602082019050919050565b60006124be826121ed565b9050919050565b6124ce816124b3565b82525050565b600081519050919050565b600082825260208201905092915050565b6000819050602082019050919050565b600082825260208201905092915050565b600061251c82612291565b6125268185612500565b93506125368185602086016122ad565b61253f816122e0565b840191505092915050565b6080820160008201516125606000850182612354565b5060208201516125736020850182612363565b5060408201516125866040850182612363565b5060608201516125996060850182612354565b50505050565b6125a881612339565b82525050565b60006101e0830160008301516125c76000860182612354565b50602083015184820360208601526125df8282612511565b915050604083015184820360408601526125f98282612511565b915050606083015184820360608601526126138282612511565b91505060808301516126286080860182612354565b5060a083015161263b60a0860182612354565b5060c083015161264e60c0860182612354565b5060e083015161266160e0860182612363565b506101008301516126766101008601826124c5565b5061012083015161268b61012086018261254a565b506101408301516126a06101a0860182612354565b506101608301516126b56101c086018261259f565b508091505092915050565b60006126cc83836125ae565b905092915050565b6000602082019050919050565b60006126ec826124d4565b6126f681856124df565b935083602082028501612708856124f0565b8060005b85811015612744578484038952815161272585826126c0565b9450612730836126d4565b925060208a0199505060018101905061270c565b50829750879550505050505092915050565b600060608301600083015161276e60008601826124c5565b5060208301516127816020860182612354565b506040830151848203604086015261279982826126e1565b9150508091505092915050565b60006127b28383612756565b905092915050565b6000602082019050919050565b60006127d282612487565b6127dc8185612492565b9350836020820285016127ee856124a3565b8060005b8581101561282a578484038952815161280b85826127a6565b9450612816836127ba565b925060208a019950506001810190506127f2565b50829750879550505050505092915050565b6000602082019050818103600083015261285681846127c7565b905092915050565b612867816124b3565b82525050565b60006101e082019050612883600083018f612282565b8181036020830152612895818e6122f1565b905081810360408301526128a9818d6122f1565b905081810360608301526128bd818c6122f1565b90506128cc608083018b612282565b6128d960a083018a612282565b6128e660c0830189612282565b6128f360e083018861232a565b61290161010083018761285e565b61290f610120830186612372565b61291d6101a0830185612282565b61292b6101c0830184612345565b9d9c50505050505050505050505050565b600080fd5b600080fd5b7f4e487b7100000000000000000000000000000000000000000000000000000000600052604160045260246000fd5b61297e826122e0565b810181811067ffffffffffffffff8211171561299d5761299c612946565b5b80604052505050565b60006129b06121d9565b90506129bc8282612975565b919050565b600067ffffffffffffffff8211156129dc576129db612946565b5b6129e5826122e0565b9050602081019050919050565b82818337600083830152505050565b6000612a14612a0f846129c1565b6129a6565b905082815260208101848484011115612a3057612a2f612941565b5b612a3b8482856129f2565b509392505050565b600082601f830112612a5857612a5761293c565b5b8135612a68848260208601612a01565b91505092915050565b612a7a81612278565b8114612a8557600080fd5b50565b600081359050612a9781612a71565b92915050565b600080600080600060a08688031215612ab957612ab86121e3565b5b600086013567ffffffffffffffff811115612ad757612ad66121e8565b5b612ae388828901612a43565b955050602086013567ffffffffffffffff811115612b0457612b036121e8565b5b612b1088828901612a43565b945050604086013567ffffffffffffffff811115612b3157612b306121e8565b5b612b3d88828901612a43565b9350506060612b4e88828901612a88565b9250506080612b5f88828901612a88565b9150509295509295909350565b60008060408385031215612b8357612b826121e3565b5b6000612b9185828601612236565b9250506020612ba285828601612a88565b9150509250929050565b600060208284031215612bc257612bc16121e3565b5b6000612bd084828501612a88565b91505092915050565b6000608082019050612bee6000830187612282565b612bfb602083018661232a565b612c08604083018561232a565b612c156060830184612282565b95945050505050565b6000602082019050612c33600083018461232a565b92915050565b6000602082019050612c4e6000830184612282565b92915050565b7f646f6e2774206861766520612070726f70657274790000000000000000000000600082015250565b6000612c8a60158361229c565b9150612c9582612c54565b602082019050919050565b60006020820190508181036000830152612cb981612c7d565b9050919050565b7f4e487b7100000000000000000000000000000000000000000000000000000000600052602260045260246000fd5b60006002820490506001821680612d0757607f821691505b60208210811415612d1b57612d1a612cc0565b5b50919050565b7f4e487b7100000000000000000000000000000000000000000000000000000000600052603260045260246000fd5b7f4e487b7100000000000000000000000000000000000000000000000000000000600052601160045260246000fd5b6000612d8a82612278565b9150612d9583612278565b925082821015612da857612da7612d50565b5b828203905092915050565b6000612dbe82612278565b9150612dc983612278565b9250827fffffffffffffffffffffffffffffffffffffffffffffffffffffffffffffffff03821115612dfe57612dfd612d50565b5b828201905092915050565b7f77726f6e6720616d6f756e740000000000000000000000000000000000000000600082015250565b6000612e3f600c8361229c565b9150612e4a82612e09565b602082019050919050565b60006020820190508181036000830152612e6e81612e32565b9050919050565b7f546869732070726f7065727479206973206e6f7420617661696c61626c65206660008201527f6f722072656e7400000000000000000000000000000000000000000000000000602082015250565b6000612ed160278361229c565b9150612edc82612e75565b604082019050919050565b60006020820190508181036000830152612f0081612ec4565b9050919050565b6000612f1282612278565b91507fffffffffffffffffffffffffffffffffffffffffffffffffffffffffffffffff821415612f4557612f44612d50565b5b60018201905091905056fea26469706673582212202f06737ed5698f391b09e10b28090576bbca0fa9539faf5b65e877bf9b809fd964736f6c63430008090033",
  "immutableReferences": {},
  "source": "// SPDX-License-Identifier: MIT\n\npragma solidity >=0.4.22 <0.9.0;\n\nimport \"../libraries/Roles.sol\";\nimport \"../libraries/Lessors.sol\";\nimport \"./IRentProperty.sol\";\nimport \"../structs/Payment.sol\";\nimport \"@openzeppelin/contracts/access/Ownable.sol\";\n\ncontract RentProperty is IRentProperty {\n    \n    \n    /*\n      --- Libraries\n    */\n    \n    using Roles for Roles.Role;\n    using LessorsLib for LessorsLib.Lessors;\n    \n    uint public constant MONTH = 2628000;\n\n    /*\n      --- State variables\n    */\n    \n    LessorsLib.Lessors private _lessors;\n    Roles.Role private _lessorRoles;\n    Roles.Role private _tenantRoles;\n\n    \n    mapping(address => LessorsLib.Property) public _tenant;\n    Payment[] public payments;\n    address[] public numOfLessors;\n    \n    \n     /*\n      --- Events\n    */\n    \n    event PropertyRented(address indexed lessor, address indexed tenant, uint propertyId);\n    event PropertyCreated();\n    \n    \n    /*\n      --- Funtions modifiers\n    */\n    \n    modifier isPropertyOwner() {\n        require(_lessorRoles.has(msg.sender), \"Not property owner\");\n        _;\n    }\n    \n    modifier hasProperty() {\n        require(!_lessorRoles.has(msg.sender), \"has property\");\n        _;\n    }\n    \n    modifier onlyTenant() {\n        require(_tenantRoles.has(msg.sender), \"Not owner\");\n        _;\n    }\n    \n    modifier isTenant() {\n        require(_tenantRoles.has(msg.sender) == false, \"Already has a Property\");\n        _;\n    }\n\n    \n     /**\n     * @dev get all properties for rental\n    */\n    function getLessors() public view override returns (LessorsLib.Lessor[] memory) {\n        return _lessors.getLessors(numOfLessors);\n    }\n    \n    \n     /**\n     * @dev create and return new payments \n    */\n    function createPayment(uint amount, address to, address from, uint date) private returns(Payment memory) {\n        Payment memory payment = Payment(amount, from, to, date);\n        payments.push(payment);\n        return payment;\n    }\n\n     /**\n     * @dev rent a property\n    */\n    function rentProperty(address lessorAddress, uint propertyId) public override payable {\n        LessorsLib.Lessor storage lessor = _lessors.getLessor(lessorAddress);\n        LessorsLib.Property storage property = lessor.properties[propertyId];\n        uint montlyPrice = property.montlyPrice;\n        uint depositPrice = property.depositPrice;\n        \n        uint value = msg.value;\n        uint deposit = value - montlyPrice;\n        uint amountToTransfer = value - deposit;\n        \n        require(montlyPrice + depositPrice == value, \"wrong amount\");\n        require(property.available == true, \"This property is not available for rent\");\n        \n        // update lessor property \n        property.tenant = payable(msg.sender); \n        property.available = false;\n        property.depositAmount = deposit;\n        property.lastPayment = createPayment(amountToTransfer, msg.sender, lessor.owner, block.timestamp);\n        property.nextPayment = block.timestamp + MONTH;\n\n        // transfer token to lessor \n        lessor.owner.transfer(amountToTransfer);\n        \n        // set rented poperty to tenant\n        _tenant[msg.sender] = property;\n        _tenantRoles.add(msg.sender);\n        \n        emit PropertyRented(property.tenant, msg.sender,  property.id);\n    }\n    \n    /**\n     * @dev get single property by address\n    */\n    function getPropertyByTenant(address _address)\n        public\n        view\n        override\n        returns (\n            uint256 id,\n            string memory title,\n            string memory description,\n            string memory imgUrl,\n            uint256 depositPrice,\n            uint256 montlyPrice,\n            address tenant,\n            address owner,\n            bool available,\n            Payment memory lastPayment,\n            uint256 nextPayment\n            \n        )\n    {\n            require(_tenantRoles.has(_address), \"don't have a property\");\n            id = _tenant[_address].id;\n            title = _tenant[_address].title;\n            description = _tenant[_address].description;\n            imgUrl = _tenant[_address].imgUrl;\n            depositPrice = _tenant[_address].depositPrice;\n            montlyPrice = _tenant[_address].montlyPrice;\n            tenant = _tenant[_address].tenant;\n            owner = _tenant[_address].lessor;\n            available = _tenant[_address].available;\n            lastPayment = _tenant[_address].lastPayment;\n            nextPayment = _tenant[_address].nextPayment;\n            \n    }\n    \n    /**\n     * @dev create new porpery and get lessor role\n    */\n    function createProperty(\n        string memory _title,\n        string memory _description,\n        string memory _imgUrl,\n        uint256 _amount,\n        uint256 _deposit\n    ) public override {\n        LessorsLib.Lessor storage lessor = _lessors.createProperty(_title, _description, _imgUrl, _amount, _deposit);\n     \n       // check if created lessor already exits\n       if(lessor.owner == address(0)) {\n          lessor.owner = payable(msg.sender);\n          numOfLessors.push(msg.sender);\n         _lessorRoles.add(msg.sender);\n       }\n\n\n        emit PropertyCreated();\n    }\n}\n",
  "sourcePath": "/Users/vicklercharles/Desktop/smart-contracts/blockchain-developer-bootcamp-final-project/contracts/RentProperty.sol",
  "compiler": {
    "name": "solc",
    "version": "0.8.9+commit.e5eed63a.Emscripten.clang"
  },
  "schemaVersion": "3.4.3",
  "updatedAt": "2021-11-23T12:27:52.901Z",
  "networkType": "ethereum",
  "devdoc": {
    "kind": "dev",
    "methods": {
      "createProperty(string,string,string,uint256,uint256)": {
        "details": "create new porpery and get lessor role"
      },
      "getLessors()": {
        "details": "get all properties for rental"
      },
      "getPropertyByTenant(address)": {
        "details": "get single property by address"
      },
      "rentProperty(address,uint256)": {
        "details": "rent a property"
      }
    },
    "version": 1
  },
  "userdoc": {
    "kind": "user",
    "methods": {},
    "version": 1
  }
}