{
  "contractName": "RealEstatePropertyFactory",
  "abi": [
    {
      "inputs": [
        {
          "internalType": "uint256",
          "name": "",
          "type": "uint256"
        }
      ],
      "name": "numOfAddress",
      "outputs": [
        {
          "internalType": "address",
          "name": "",
          "type": "address"
        }
      ],
      "stateMutability": "view",
      "type": "function"
    },
    {
      "inputs": [
        {
          "internalType": "address",
          "name": "",
          "type": "address"
        }
      ],
      "name": "properties",
      "outputs": [
        {
          "internalType": "address",
          "name": "owner",
          "type": "address"
        },
        {
          "internalType": "uint256",
          "name": "numOfProperties",
          "type": "uint256"
        }
      ],
      "stateMutability": "view",
      "type": "function"
    },
    {
      "inputs": [],
      "name": "getProperties",
      "outputs": [
        {
          "components": [
            {
              "internalType": "address",
              "name": "owner",
              "type": "address"
            },
            {
              "internalType": "uint256",
              "name": "numOfProperties",
              "type": "uint256"
            },
            {
              "components": [
                {
                  "internalType": "string",
                  "name": "title",
                  "type": "string"
                },
                {
                  "internalType": "string",
                  "name": "description",
                  "type": "string"
                },
                {
                  "internalType": "uint256",
                  "name": "montlyPrice",
                  "type": "uint256"
                },
                {
                  "internalType": "uint256",
                  "name": "deposit",
                  "type": "uint256"
                }
              ],
              "internalType": "struct RealEstatePropertyFactory.Property[]",
              "name": "properties",
              "type": "tuple[]"
            }
          ],
          "internalType": "struct RealEstatePropertyFactory.RealEstateProperty[]",
          "name": "",
          "type": "tuple[]"
        }
      ],
      "stateMutability": "view",
      "type": "function"
    },
    {
      "inputs": [
        {
          "internalType": "address",
          "name": "_address",
          "type": "address"
        }
      ],
      "name": "getProperty",
      "outputs": [
        {
          "internalType": "string",
          "name": "",
          "type": "string"
        },
        {
          "internalType": "string",
          "name": "",
          "type": "string"
        },
        {
          "internalType": "uint256",
          "name": "",
          "type": "uint256"
        }
      ],
      "stateMutability": "view",
      "type": "function"
    },
    {
      "inputs": [
        {
          "internalType": "address",
          "name": "_address",
          "type": "address"
        }
      ],
      "name": "findPropertyOwner",
      "outputs": [
        {
          "internalType": "bool",
          "name": "isFounded",
          "type": "bool"
        }
      ],
      "stateMutability": "view",
      "type": "function"
    },
    {
      "inputs": [
        {
          "internalType": "address",
          "name": "_address",
          "type": "address"
        },
        {
          "internalType": "string",
          "name": "_title",
          "type": "string"
        },
        {
          "internalType": "string",
          "name": "_description",
          "type": "string"
        },
        {
          "internalType": "uint256",
          "name": "_amount",
          "type": "uint256"
        },
        {
          "internalType": "uint256",
          "name": "_deposit",
          "type": "uint256"
        }
      ],
      "name": "createProperty",
      "outputs": [],
      "stateMutability": "nonpayable",
      "type": "function"
    },
    {
      "inputs": [],
      "name": "createRealEstateProperty",
      "outputs": [],
      "stateMutability": "nonpayable",
      "type": "function"
    }
  ],
  "bytecode": "0x608060405234801561001057600080fd5b5061175d806100206000396000f3fe608060405234801561001057600080fd5b506004361061007d5760003560e01c80633df2fc041161005b5780633df2fc04146100ff578063952ba6d414610109578063aa4f15751461013b578063ec0cfd0b1461016b5761007d565b80631e6efb3b1461008257806323dd40da146100b257806325ec77d7146100ce575b600080fd5b61009c60048036038101906100979190610e69565b610189565b6040516100a99190610ed7565b60405180910390f35b6100cc60048036038101906100c79190611064565b6101c8565b005b6100e860048036038101906100e39190611117565b610578565b6040516100f6929190611153565b60405180910390f35b6101076105bc565b005b610123600480360381019061011e9190611117565b6106f6565b60405161013293929190611204565b60405180910390f35b61015560048036038101906101509190611117565b610950565b6040516101629190611264565b60405180910390f35b6101736109f1565b6040516101809190611525565b60405180910390f35b6001818154811061019957600080fd5b906000526020600020016000915054906101000a900473ffffffffffffffffffffffffffffffffffffffff1681565b8460008060008373ffffffffffffffffffffffffffffffffffffffff1673ffffffffffffffffffffffffffffffffffffffff1681526020019081526020016000206040518060600160405290816000820160009054906101000a900473ffffffffffffffffffffffffffffffffffffffff1673ffffffffffffffffffffffffffffffffffffffff1673ffffffffffffffffffffffffffffffffffffffff1681526020016001820154815260200160028201805480602002602001604051908101604052809291908181526020016000905b8282101561040357838290600052602060002090600402016040518060800160405290816000820180546102cc90611576565b80601f01602080910402602001604051908101604052809291908181526020018280546102f890611576565b80156103455780601f1061031a57610100808354040283529160200191610345565b820191906000526020600020905b81548152906001019060200180831161032857829003601f168201915b5050505050815260200160018201805461035e90611576565b80601f016020809104026020016040519081016040528092919081815260200182805461038a90611576565b80156103d75780601f106103ac576101008083540402835291602001916103d7565b820191906000526020600020905b8154815290600101906020018083116103ba57829003601f168201915b505050505081526020016002820154815260200160038201548152505081526020019060010190610299565b50505050815250509050806000015173ffffffffffffffffffffffffffffffffffffffff163373ffffffffffffffffffffffffffffffffffffffff161461047f576040517f08c379a0000000000000000000000000000000000000000000000000000000008152600401610476906115f4565b60405180910390fd5b610487610d1d565b868160000181905250858160200181905250848160400181815250508381606001818152505060008060008a73ffffffffffffffffffffffffffffffffffffffff1673ffffffffffffffffffffffffffffffffffffffff1681526020019081526020016000209050806002018290806001815401808255809150506001900390600052602060002090600402016000909190919091506000820151816000019080519060200190610539929190610d45565b506020820151816001019080519060200190610556929190610d45565b5060408201518160020155606082015181600301555050505050505050505050565b60006020528060005260406000206000915090508060000160009054906101000a900473ffffffffffffffffffffffffffffffffffffffff16908060010154905082565b600015156105c933610950565b15151461060b576040517f08c379a000000000000000000000000000000000000000000000000000000000815260040161060290611660565b60405180910390fd5b60008060003373ffffffffffffffffffffffffffffffffffffffff1673ffffffffffffffffffffffffffffffffffffffff1681526020019081526020016000209050338160000160006101000a81548173ffffffffffffffffffffffffffffffffffffffff021916908373ffffffffffffffffffffffffffffffffffffffff1602179055506001339080600181540180825580915050600190039060005260206000200160009091909190916101000a81548173ffffffffffffffffffffffffffffffffffffffff021916908373ffffffffffffffffffffffffffffffffffffffff16021790555050565b60608060008060008573ffffffffffffffffffffffffffffffffffffffff1673ffffffffffffffffffffffffffffffffffffffff16815260200190815260200160002060020160008154811061074f5761074e611680565b5b90600052602060002090600402016000016000808673ffffffffffffffffffffffffffffffffffffffff1673ffffffffffffffffffffffffffffffffffffffff1681526020019081526020016000206002016000815481106107b4576107b3611680565b5b90600052602060002090600402016001016000808773ffffffffffffffffffffffffffffffffffffffff1673ffffffffffffffffffffffffffffffffffffffff16815260200190815260200160002060020160008154811061081957610818611680565b5b90600052602060002090600402016003015482805461083790611576565b80601f016020809104026020016040519081016040528092919081815260200182805461086390611576565b80156108b05780601f10610885576101008083540402835291602001916108b0565b820191906000526020600020905b81548152906001019060200180831161089357829003601f168201915b505050505092508180546108c390611576565b80601f01602080910402602001604051908101604052809291908181526020018280546108ef90611576565b801561093c5780601f106109115761010080835404028352916020019161093c565b820191906000526020600020905b81548152906001019060200180831161091f57829003601f168201915b505050505091509250925092509193909250565b6000805b6001805490508110156109eb578273ffffffffffffffffffffffffffffffffffffffff166001828154811061098c5761098b611680565b5b9060005260206000200160009054906101000a900473ffffffffffffffffffffffffffffffffffffffff1673ffffffffffffffffffffffffffffffffffffffff1614156109d857600191505b80806109e3906116de565b915050610954565b50919050565b606060006001805490509050600060018054905067ffffffffffffffff811115610a1e57610a1d610f39565b5b604051908082528060200260200182016040528015610a5757816020015b610a44610dcb565b815260200190600190039081610a3c5790505b50905060005b82811015610d145760008060018381548110610a7c57610a7b611680565b5b9060005260206000200160009054906101000a900473ffffffffffffffffffffffffffffffffffffffff1673ffffffffffffffffffffffffffffffffffffffff1673ffffffffffffffffffffffffffffffffffffffff1681526020019081526020016000206040518060600160405290816000820160009054906101000a900473ffffffffffffffffffffffffffffffffffffffff1673ffffffffffffffffffffffffffffffffffffffff1673ffffffffffffffffffffffffffffffffffffffff1681526020016001820154815260200160028201805480602002602001604051908101604052809291908181526020016000905b82821015610cdb5783829060005260206000209060040201604051806080016040529081600082018054610ba490611576565b80601f0160208091040260200160405190810160405280929190818152602001828054610bd090611576565b8015610c1d5780601f10610bf257610100808354040283529160200191610c1d565b820191906000526020600020905b815481529060010190602001808311610c0057829003601f168201915b50505050508152602001600182018054610c3690611576565b80601f0160208091040260200160405190810160405280929190818152602001828054610c6290611576565b8015610caf5780601f10610c8457610100808354040283529160200191610caf565b820191906000526020600020905b815481529060010190602001808311610c9257829003601f168201915b505050505081526020016002820154815260200160038201548152505081526020019060010190610b71565b5050505081525050828281518110610cf657610cf5611680565b5b60200260200101819052508080610d0c906116de565b915050610a5d565b50809250505090565b6040518060800160405280606081526020016060815260200160008152602001600081525090565b828054610d5190611576565b90600052602060002090601f016020900481019282610d735760008555610dba565b82601f10610d8c57805160ff1916838001178555610dba565b82800160010185558215610dba579182015b82811115610db9578251825591602001919060010190610d9e565b5b509050610dc79190610e02565b5090565b6040518060600160405280600073ffffffffffffffffffffffffffffffffffffffff16815260200160008152602001606081525090565b5b80821115610e1b576000816000905550600101610e03565b5090565b6000604051905090565b600080fd5b600080fd5b6000819050919050565b610e4681610e33565b8114610e5157600080fd5b50565b600081359050610e6381610e3d565b92915050565b600060208284031215610e7f57610e7e610e29565b5b6000610e8d84828501610e54565b91505092915050565b600073ffffffffffffffffffffffffffffffffffffffff82169050919050565b6000610ec182610e96565b9050919050565b610ed181610eb6565b82525050565b6000602082019050610eec6000830184610ec8565b92915050565b610efb81610eb6565b8114610f0657600080fd5b50565b600081359050610f1881610ef2565b92915050565b600080fd5b600080fd5b6000601f19601f8301169050919050565b7f4e487b7100000000000000000000000000000000000000000000000000000000600052604160045260246000fd5b610f7182610f28565b810181811067ffffffffffffffff82111715610f9057610f8f610f39565b5b80604052505050565b6000610fa3610e1f565b9050610faf8282610f68565b919050565b600067ffffffffffffffff821115610fcf57610fce610f39565b5b610fd882610f28565b9050602081019050919050565b82818337600083830152505050565b600061100761100284610fb4565b610f99565b90508281526020810184848401111561102357611022610f23565b5b61102e848285610fe5565b509392505050565b600082601f83011261104b5761104a610f1e565b5b813561105b848260208601610ff4565b91505092915050565b600080600080600060a086880312156110805761107f610e29565b5b600061108e88828901610f09565b955050602086013567ffffffffffffffff8111156110af576110ae610e2e565b5b6110bb88828901611036565b945050604086013567ffffffffffffffff8111156110dc576110db610e2e565b5b6110e888828901611036565b93505060606110f988828901610e54565b925050608061110a88828901610e54565b9150509295509295909350565b60006020828403121561112d5761112c610e29565b5b600061113b84828501610f09565b91505092915050565b61114d81610e33565b82525050565b60006040820190506111686000830185610ec8565b6111756020830184611144565b9392505050565b600081519050919050565b600082825260208201905092915050565b60005b838110156111b657808201518184015260208101905061119b565b838111156111c5576000848401525b50505050565b60006111d68261117c565b6111e08185611187565b93506111f0818560208601611198565b6111f981610f28565b840191505092915050565b6000606082019050818103600083015261121e81866111cb565b9050818103602083015261123281856111cb565b90506112416040830184611144565b949350505050565b60008115159050919050565b61125e81611249565b82525050565b60006020820190506112796000830184611255565b92915050565b600081519050919050565b600082825260208201905092915050565b6000819050602082019050919050565b6112b481610eb6565b82525050565b6112c381610e33565b82525050565b600081519050919050565b600082825260208201905092915050565b6000819050602082019050919050565b600082825260208201905092915050565b60006113118261117c565b61131b81856112f5565b935061132b818560208601611198565b61133481610f28565b840191505092915050565b6000608083016000830151848203600086015261135c8282611306565b915050602083015184820360208601526113768282611306565b915050604083015161138b60408601826112ba565b50606083015161139e60608601826112ba565b508091505092915050565b60006113b5838361133f565b905092915050565b6000602082019050919050565b60006113d5826112c9565b6113df81856112d4565b9350836020820285016113f1856112e5565b8060005b8581101561142d578484038952815161140e85826113a9565b9450611419836113bd565b925060208a019950506001810190506113f5565b50829750879550505050505092915050565b600060608301600083015161145760008601826112ab565b50602083015161146a60208601826112ba565b506040830151848203604086015261148282826113ca565b9150508091505092915050565b600061149b838361143f565b905092915050565b6000602082019050919050565b60006114bb8261127f565b6114c5818561128a565b9350836020820285016114d78561129b565b8060005b8581101561151357848403895281516114f4858261148f565b94506114ff836114a3565b925060208a019950506001810190506114db565b50829750879550505050505092915050565b6000602082019050818103600083015261153f81846114b0565b905092915050565b7f4e487b7100000000000000000000000000000000000000000000000000000000600052602260045260246000fd5b6000600282049050600182168061158e57607f821691505b602082108114156115a2576115a1611547565b5b50919050565b7f4e6f74206f776e65720000000000000000000000000000000000000000000000600082015250565b60006115de600983611187565b91506115e9826115a8565b602082019050919050565b6000602082019050818103600083015261160d816115d1565b9050919050565b7f6164647265737320616c72656164792065786974730000000000000000000000600082015250565b600061164a601583611187565b915061165582611614565b602082019050919050565b600060208201905081810360008301526116798161163d565b9050919050565b7f4e487b7100000000000000000000000000000000000000000000000000000000600052603260045260246000fd5b7f4e487b7100000000000000000000000000000000000000000000000000000000600052601160045260246000fd5b60006116e982610e33565b91507fffffffffffffffffffffffffffffffffffffffffffffffffffffffffffffffff82141561171c5761171b6116af565b5b60018201905091905056fea2646970667358221220ed61b9e5ece9a32ab62923b5f353cce0af39c1f81192dfad162fbc9c221dbcb664736f6c63430008090033",
  "immutableReferences": {},
  "source": "// SPDX-License-Identifier: MIT\n\npragma solidity >=0.4.22 <0.9.0;\n\ncontract RealEstatePropertyFactory {\n    mapping(address => RealEstateProperty) public properties;\n    address[] public numOfAddress;\n\n    struct RealEstateProperty {\n        address owner;\n        uint256 numOfProperties;\n        Property[] properties;\n    }\n\n    struct Property {\n        string title;\n        string description;\n        uint256 montlyPrice;\n        uint256 deposit;\n    }\n\n    // get all Property for rental\n    function getProperties() public view returns (RealEstateProperty[] memory) {\n        uint256 numLength = numOfAddress.length;\n        RealEstateProperty[] memory memoryArray = new RealEstateProperty[](\n            numOfAddress.length\n        );\n        for (uint256 i = 0; i < numLength; i++) {\n            memoryArray[i] = properties[numOfAddress[i]];\n        }\n        return memoryArray;\n    }\n\n    function getProperty(address _address)\n        public\n        view\n        returns (\n            string memory,\n            string memory,\n            uint256\n        )\n    {\n        return (\n            properties[_address].properties[0].title,\n            properties[_address].properties[0].description,\n            properties[_address].properties[0].deposit\n        );\n    }\n\n    modifier hasAProperty() {\n        require(\n            findPropertyOwner(msg.sender) == false,\n            \"address already exits\"\n        );\n        _;\n    }\n\n    function findPropertyOwner(address _address)\n        public\n        view\n        returns (bool isFounded)\n    {\n        isFounded = false;\n        for (uint256 i = 0; i < numOfAddress.length; i++) {\n            if (numOfAddress[i] == _address) {\n                isFounded = true;\n            }\n        }\n    }\n\n    modifier isOwner(address _address) {\n        RealEstateProperty memory p = properties[_address];\n        require(msg.sender == p.owner, \"Not owner\");\n        _;\n    }\n\n    // create a property - only property owners\n    function createProperty(\n        address _address,\n        string memory _title,\n        string memory _description,\n        uint256 _amount,\n        uint256 _deposit\n    ) public isOwner(_address) {\n        Property memory property;\n        property.title = _title;\n        property.description = _description;\n        property.montlyPrice = _amount;\n        property.deposit = _deposit;\n        RealEstateProperty storage p = properties[_address];\n        p.properties.push(property);\n    }\n\n    // Owners create a real state property\n    function createRealEstateProperty() public hasAProperty {\n        RealEstateProperty storage c = properties[msg.sender];\n        c.owner = msg.sender;\n        numOfAddress.push(msg.sender);\n    }\n}\n",
  "sourcePath": "/Users/vicklercharles/Desktop/smart-contracts/blockchain-developer-bootcamp-final-project/contracts/RealEstatePropertyFactory.sol",
  "compiler": {
    "name": "solc",
    "version": "0.8.9+commit.e5eed63a.Emscripten.clang"
  },
  "schemaVersion": "3.4.3",
  "updatedAt": "2021-11-09T10:49:55.362Z",
  "devdoc": {
    "kind": "dev",
    "methods": {},
    "version": 1
  },
  "userdoc": {
    "kind": "user",
    "methods": {},
    "version": 1
  }
}