{
  "contractName": "RealEstateProperty",
  "abi": [
    {
      "inputs": [
        {
          "internalType": "address",
          "name": "_owner",
          "type": "address"
        }
      ],
      "stateMutability": "nonpayable",
      "type": "constructor"
    },
    {
      "inputs": [],
      "name": "owner",
      "outputs": [
        {
          "internalType": "address",
          "name": "",
          "type": "address"
        }
      ],
      "stateMutability": "view",
      "type": "function"
    },
    {
      "inputs": [],
      "name": "getProperties",
      "outputs": [
        {
          "components": [
            {
              "internalType": "string",
              "name": "title",
              "type": "string"
            },
            {
              "internalType": "string",
              "name": "description",
              "type": "string"
            },
            {
              "internalType": "uint256",
              "name": "montlyPrice",
              "type": "uint256"
            },
            {
              "internalType": "uint256",
              "name": "deposit",
              "type": "uint256"
            },
            {
              "internalType": "address payable",
              "name": "currentTenant",
              "type": "address"
            }
          ],
          "internalType": "struct SharedStructs.Property[]",
          "name": "",
          "type": "tuple[]"
        }
      ],
      "stateMutability": "view",
      "type": "function"
    },
    {
      "inputs": [
        {
          "internalType": "string",
          "name": "_title",
          "type": "string"
        },
        {
          "internalType": "string",
          "name": "_description",
          "type": "string"
        },
        {
          "internalType": "uint256",
          "name": "_montlyPrice",
          "type": "uint256"
        },
        {
          "internalType": "uint256",
          "name": "_deposit",
          "type": "uint256"
        }
      ],
      "name": "createProperty",
      "outputs": [],
      "stateMutability": "nonpayable",
      "type": "function"
    }
  ],
  "bytecode": "0x608060405234801561001057600080fd5b50604051610b6f380380610b6f833981810160405281019061003291906100db565b806000806101000a81548173ffffffffffffffffffffffffffffffffffffffff021916908373ffffffffffffffffffffffffffffffffffffffff16021790555050610108565b600080fd5b600073ffffffffffffffffffffffffffffffffffffffff82169050919050565b60006100a88261007d565b9050919050565b6100b88161009d565b81146100c357600080fd5b50565b6000815190506100d5816100af565b92915050565b6000602082840312156100f1576100f0610078565b5b60006100ff848285016100c6565b91505092915050565b610a58806101176000396000f3fe608060405234801561001057600080fd5b50600436106100415760003560e01c80631d26538f146100465780638da5cb5b14610062578063ec0cfd0b14610080575b600080fd5b610060600480360381019061005b9190610606565b61009e565b005b61006a61011c565b60405161007791906106e6565b60405180910390f35b610088610140565b60405161009591906108f8565b60405180910390f35b6000600160008154809291906100b390610949565b9190505590506000600260008381526020019081526020016000209050858160000190805190602001906100e892919061038e565b508481600101908051906020019061010192919061038e565b50838160020181905550828160030181905550505050505050565b60008054906101000a900473ffffffffffffffffffffffffffffffffffffffff1681565b6060600060015467ffffffffffffffff8111156101605761015f6104a5565b5b60405190808252806020026020018201604052801561019957816020015b610186610414565b81526020019060019003908161017e5790505b50905060005b60015481101561038657600260008281526020019081526020016000206040518060a00160405290816000820180546101d7906109c1565b80601f0160208091040260200160405190810160405280929190818152602001828054610203906109c1565b80156102505780601f1061022557610100808354040283529160200191610250565b820191906000526020600020905b81548152906001019060200180831161023357829003601f168201915b50505050508152602001600182018054610269906109c1565b80601f0160208091040260200160405190810160405280929190818152602001828054610295906109c1565b80156102e25780601f106102b7576101008083540402835291602001916102e2565b820191906000526020600020905b8154815290600101906020018083116102c557829003601f168201915b5050505050815260200160028201548152602001600382015481526020016004820160009054906101000a900473ffffffffffffffffffffffffffffffffffffffff1673ffffffffffffffffffffffffffffffffffffffff1673ffffffffffffffffffffffffffffffffffffffff1681525050828281518110610368576103676109f3565b5b6020026020010181905250808061037e90610949565b91505061019f565b508091505090565b82805461039a906109c1565b90600052602060002090601f0160209004810192826103bc5760008555610403565b82601f106103d557805160ff1916838001178555610403565b82800160010185558215610403579182015b828111156104025782518255916020019190600101906103e7565b5b5090506104109190610459565b5090565b6040518060a0016040528060608152602001606081526020016000815260200160008152602001600073ffffffffffffffffffffffffffffffffffffffff1681525090565b5b8082111561047257600081600090555060010161045a565b5090565b6000604051905090565b600080fd5b600080fd5b600080fd5b600080fd5b6000601f19601f8301169050919050565b7f4e487b7100000000000000000000000000000000000000000000000000000000600052604160045260246000fd5b6104dd82610494565b810181811067ffffffffffffffff821117156104fc576104fb6104a5565b5b80604052505050565b600061050f610476565b905061051b82826104d4565b919050565b600067ffffffffffffffff82111561053b5761053a6104a5565b5b61054482610494565b9050602081019050919050565b82818337600083830152505050565b600061057361056e84610520565b610505565b90508281526020810184848401111561058f5761058e61048f565b5b61059a848285610551565b509392505050565b600082601f8301126105b7576105b661048a565b5b81356105c7848260208601610560565b91505092915050565b6000819050919050565b6105e3816105d0565b81146105ee57600080fd5b50565b600081359050610600816105da565b92915050565b600080600080608085870312156106205761061f610480565b5b600085013567ffffffffffffffff81111561063e5761063d610485565b5b61064a878288016105a2565b945050602085013567ffffffffffffffff81111561066b5761066a610485565b5b610677878288016105a2565b9350506040610688878288016105f1565b9250506060610699878288016105f1565b91505092959194509250565b600073ffffffffffffffffffffffffffffffffffffffff82169050919050565b60006106d0826106a5565b9050919050565b6106e0816106c5565b82525050565b60006020820190506106fb60008301846106d7565b92915050565b600081519050919050565b600082825260208201905092915050565b6000819050602082019050919050565b600081519050919050565b600082825260208201905092915050565b60005b8381101561076757808201518184015260208101905061074c565b83811115610776576000848401525b50505050565b60006107878261072d565b6107918185610738565b93506107a1818560208601610749565b6107aa81610494565b840191505092915050565b6107be816105d0565b82525050565b60006107cf826106a5565b9050919050565b6107df816107c4565b82525050565b600060a0830160008301518482036000860152610802828261077c565b9150506020830151848203602086015261081c828261077c565b915050604083015161083160408601826107b5565b50606083015161084460608601826107b5565b50608083015161085760808601826107d6565b508091505092915050565b600061086e83836107e5565b905092915050565b6000602082019050919050565b600061088e82610701565b610898818561070c565b9350836020820285016108aa8561071d565b8060005b858110156108e657848403895281516108c78582610862565b94506108d283610876565b925060208a019950506001810190506108ae565b50829750879550505050505092915050565b600060208201905081810360008301526109128184610883565b905092915050565b7f4e487b7100000000000000000000000000000000000000000000000000000000600052601160045260246000fd5b6000610954826105d0565b91507fffffffffffffffffffffffffffffffffffffffffffffffffffffffffffffffff8214156109875761098661091a565b5b600182019050919050565b7f4e487b7100000000000000000000000000000000000000000000000000000000600052602260045260246000fd5b600060028204905060018216806109d957607f821691505b602082108114156109ed576109ec610992565b5b50919050565b7f4e487b7100000000000000000000000000000000000000000000000000000000600052603260045260246000fdfea264697066735822122058d8c17e92db9122f37f9c4139ca0ddd4061f86c6ed78b998e637ada5192b3db64736f6c63430008090033",
  "immutableReferences": {},
  "source": "// SPDX-License-Identifier: MIT\npragma experimental ABIEncoderV2;\npragma solidity >=0.4.22 <0.9.0;\n\nlibrary SharedStructs {\n    struct Property {\n        string title;\n        string description;\n        uint256 montlyPrice;\n        uint256 deposit;\n        address payable currentTenant;\n    }\n}\n\ncontract RealEstateProperty {\n    address public owner;\n\n    uint256 numProperties;\n    mapping(uint256 => SharedStructs.Property) properties;\n\n    constructor(address _owner) public {\n        owner = _owner;\n    }\n\n    modifier onlyOwner(address _owner) {\n        require(owner == _owner, \"Not authorized.\");\n        _;\n    }\n\n    function getProperties()\n        public\n        view\n        returns (SharedStructs.Property[] memory)\n    {\n        SharedStructs.Property[]\n            memory memoryArray = new SharedStructs.Property[](numProperties);\n        for (uint256 i = 0; i < numProperties; i++) {\n            memoryArray[i] = properties[i];\n        }\n        return memoryArray;\n    }\n\n    function createProperty(\n        string memory _title,\n        string memory _description,\n        uint256 _montlyPrice,\n        uint256 _deposit\n    ) public {\n        uint256 propertyID = numProperties++;\n        SharedStructs.Property storage p = properties[propertyID];\n        p.title = _title;\n        p.description = _description;\n        p.montlyPrice = _montlyPrice;\n        p.deposit = _deposit;\n    }\n}\n\ncontract RealEstatePropertyFactory {\n    mapping(address => RealEstateProperty) public properties;\n    uint256 private numProperties;\n    struct Property {\n        string title;\n        string description;\n        uint256 montlyPrice;\n        uint256 deposit;\n        address payable currentTenant;\n    }\n\n    function getRealEstateProperty(address _propertyOwner)\n        public\n        view\n        returns (SharedStructs.Property[] memory)\n    {\n        return properties[_propertyOwner].getProperties();\n    }\n\n    // Owners create a real state property\n    function createRealEstateProperty(\n        string memory _title,\n        string memory _description,\n        uint256 _amount,\n        uint256 _deposit\n    ) public {\n        RealEstateProperty property = new RealEstateProperty(msg.sender);\n        properties[msg.sender] = property;\n        numProperties++;\n        property.createProperty(_title, _description, _amount, _deposit);\n    }\n}\n",
  "sourcePath": "/Users/vicklercharles/Desktop/smart-contracts/blockchain-developer-bootcamp-final-project/contracts/RealEstatePropertyFactory.sol",
  "compiler": {
    "name": "solc",
    "version": "0.8.9+commit.e5eed63a.Emscripten.clang"
  },
  "schemaVersion": "3.4.3",
  "updatedAt": "2021-11-07T19:42:01.239Z",
  "devdoc": {
    "kind": "dev",
    "methods": {},
    "version": 1
  },
  "userdoc": {
    "kind": "user",
    "methods": {},
    "version": 1
  }
}